:100000000C9453010C947B010C947B010C947B01A8
:100010000C947B010C947B010C947B010C940A10D2
:100020000C947B010C947B010C947B010C947B0160
:100030000C947B010C947B010C947B010C947B0150
:100040000C94A10E0C947B010C946F0E0C94490E31
:100050000C947B010C947B010C947B010C947B0130
:100060000C94EB0E0C947B01084AD73B3BCE016EFF
:1000700084BCBFFDC12F3D6C74319ABD56833DDAFF
:100080003D00C77F11BED9E4BB4C3E916BAAAABE0E
:10009000000000803F00030040A0A0600380C0A0DB
:1000A000A040030060808060032060A0A0400300A7
:1000B00060A0C0600340A080C0800340A0602040DA
:1000C000038080C0A0A001800080808002400040AA
:1000D000408003A0A0C0A0A00280808080400500D6
:1000E00050A8A8A80300C0A0A0A0030040A0A04062
:1000F00004609090E0800340A06020200400A050A5
:1001000040400360804020E00280C08080400300C7
:10011000A0A0A0600300A0A0A04005000088A850F7
:10012000030000A040A003A0A06020400300E02046
:1001300080E0030000000000018080800080040057
:10014000A0A000000714FE28FC50040000000000DE
:1001500004009020409005205068906802004040C4
:1001600000000240808080400280404040800400C7
:1001700060F06000030040E040000100000080806B
:10018000030000E0000001000000008004001020D7
:1001900040800340A0A0A0400240C0404040034037
:1001A000A02040E003C0204020C003204080E02089
:1001B00003E080C020C0032040C0A04003E02040F6
:1001C00080800340A040A0400340A0E020C0232541
:1001D000732A253032580A004125303258452564AB
:1001E0000041253032584B0041253032584B3B25D9
:1001F0006C64005925753B25753B300000000000FC
:10020000240027002A00000000080002010000036B
:1002100004070000000000000000076CFE7C38109E
:100220000700287C381003002400241803002C0049
:1002300024180342A5E742000300E7E74200030059
:1002400000E742005325643B25643B25643B25645D
:100250003B25643B25643B25643B25643B25643B8F
:1002600025643B25643B25643B25633B25750001E4
:10027000020408102040800102040810200102043A
:1002800008102000000000250028002B00040404B2
:10029000040404040402020202020203030303032F
:1002A00003003211DD1A11241FBECFEFD8E0DEBFEC
:1002B000CDBF25E0A4E6B1E001C01D92A536B2078E
:1002C000E1F711E0A0E0B1E0E4E7F8E402C0059056
:1002D0000D92A436B107D9F711E0C2E5D1E004C010
:1002E0002197FE010E94E421C135D107C9F70E9480
:1002F0008F120C942D240C9400008091D1039091C6
:10030000D203891B990B0895E0914B05F0914C05A0
:100310008E179F0798F530915105332361F0639F45
:10032000B0011124672F349FA0011124452F329F63
:1003300090011124232F30915705E0915205F0913F
:1003400053055091540535131AC0DC01AA0FBB1F89
:100350008A0F9B1F8E0F9F1FE0915405E80FF92F06
:10036000F11D6083E0915505E80FF92FF11D4083E1
:1003700030915605830F911DFC0120830895880F4D
:10038000991F880F991F8E0F9F1FFC01E30FF11D0E
:100390001082E2CF08950895AF92BF92CF92DF927C
:1003A000EF92FF920F931F93CF93DF936C017B012A
:1003B0008B01040F151FEB015E01AE18BF08C017BB
:1003C000D10759F06991D601ED91FC910190F0812E
:1003D000E02DC6010995892B79F7C501DF91CF91F1
:1003E0001F910F91FF90EF90DF90CF90BF90AF9053
:1003F0000895FC01538D448D252F30E0842F90E02B
:10040000821B930B541710F0CF960895019708950F
:10041000FC01918D828D981761F0A28DAE0FBF2FD8
:10042000B11D5D968C91928D9F5F9F73928F90E02E
:1004300008958FEF9FEF0895FC01918D828D98179D
:1004400031F0828DE80FF11D858D90E008958FEFDA
:100450009FEF0895FC01918D228D892F90E0805CA3
:100460009F4F821B91098F739927089583E494E02D
:100470000E942A0221E0892B09F420E0822F0895AE
:1004800080E090E0892B29F00E94360281110C94C3
:1004900000000895FC01A48DA80FB92FB11DA35A27
:1004A000BF4F2C91848D90E001968F739927848F94
:1004B000A689B7892C93A089B1898C9183708064B7
:1004C0008C93938D848D981306C00288F389E02D58
:1004D00080818F7D80830895EF92FF920F931F9309
:1004E000CF93DF93EC0181E0888F9B8D8C8D9813E7
:1004F0001AC0E889F989808185FF15C09FB7F894F3
:10050000EE89FF896083E889F9898081837080643E
:1005100080839FBF81E090E0DF91CF911F910F9189
:10052000FF90EF900895F62E0B8D10E00F5F1F4F98
:100530000F731127E02E8C8D8E110CC00FB607FCA7
:10054000FACFE889F989808185FFF5CFCE010E9435
:100550004A02F1CFEB8DEC0FFD2FF11DE35AFF4F57
:10056000F0829FB7F8940B8FEA89FB8980818062C3
:10057000CFCFCF93DF93EC01888D8823B9F0AA8980
:10058000BB89E889F9898C9185FD03C0808186FD4E
:100590000DC00FB607FCF7CF8C9185FFF2CF80819D
:1005A00085FFEDCFCE010E944A02E9CFDF91CF91C6
:1005B000089590E0FC01EA5FFD4F2491FC01E159B0
:1005C000FD4F3491FC01E357FD4FE491EE23C9F058
:1005D000222339F0233001F1A8F4213019F122301F
:1005E00029F1F0E0EE0FFF1FED57FD4FA591B491FB
:1005F0008FB7F894EC91611126C030953E233C935F
:100600008FBF08952730A9F02830C9F0243049F76A
:10061000809180008F7D03C0809180008F778093D0
:100620008000DFCF84B58F7784BDDBCF84B58F7D2D
:10063000FBCF8091B0008F778093B000D2CF8091B4
:10064000B0008F7DF9CF3E2BDACFCF93DF9390E0D0
:10065000FC01E159FD4F249183579D4FFC0184918A
:100660008823D1F090E0880F991FFC01E450FE4FE1
:10067000A591B491FC01ED57FD4FC591D491611145
:100680000EC09FB7F8948C91E22FE0958E238C9347
:100690002881E223E8839FBFDF91CF9108958FB730
:1006A000F894EC91E22BEC938FBFF6CF8E508064E0
:1006B00080937C0080917A00806480937A0080919E
:1006C0007A0086FDFCCF80917800909179000895A2
:1006D0003FB7F8948091CD019091CE01A091CF01C8
:1006E000B091D00126B5A89B05C02F3F19F0019607
:1006F000A11DB11D3FBFBA2FA92F982F8827BC017C
:10070000CD01620F711D811D911D42E0660F771FA3
:10071000881F991F4A95D1F708950F931F93CF9380
:10072000DF93CDB7DEB729970FB6F894DEBF0FBEC3
:10073000CDBF8091520590915305892B09F47CC05F
:100740000E946803009158051091590520915A059F
:1007500030915B05601771078207930740F460933F
:1007600058057093590580935A0590935B05009145
:1007700058051091590520915A0530915B05601B71
:10078000710B820B930B6C32714081059105C0F2A5
:10079000F89480914D0590914E059A838983E0915C
:1007A0005205F0915305DF01119680818987909160
:1007B0004905E0915C05F0915D0580915E05992306
:1007C00009F445C09081982B988790818095892362
:1007D0008F838F818C8388E08B8358856F814985D7
:1007E0003B812C8189819A81508347FD252F3A9541
:1007F0002083262F39F0441F00C0000060830000D2
:1008000000C0F2CF38E04D9160830000019761F79E
:10081000F0935D05E0935C0549873B832C839A83C5
:10082000898378940E9468036093580570935905F2
:1008300080935A0590935B0529960FB6F894DEBF16
:100840000FBECDBFDF91CF911F910F910895908181
:10085000982B98879081809589238F838F818E83B1
:1008600088E08D8358856F8149853D812E818981FE
:100870009A81508347FD252F00C000C0208300C00F
:1008800000C000C000C000C060830000262F3A9561
:1008900041F0441F000000C000C000C000C000C004
:1008A000E8CF38E04D9100C0608300C0019709F7A0
:1008B000F0935D05E0935C0549873D832E83AFCFC0
:1008C0008F929F92AF92BF92CF92DF92EF92FF9260
:1008D0004B015C010E9468036B017C010E9468036C
:1008E0006C197D098E099F09683E73408105910549
:1008F000A8F321E0821A9108A108B10888EEC80E79
:1009000083E0D81EE11CF11C81149104A104B10400
:1009100029F7FF90EF90DF90CF90BF90AF909F901E
:100920008F9008952FB7F8946091C9017091CA0112
:100930008091CB019091CC012FBF08954F925F928F
:100940006F927F928F929F92AF92BF92CF92DF92DF
:10095000EF92FF92CF93DF9300D000D000D0CDB7BD
:10096000DEB79E838D836A017B01DC0114968D9135
:100970009D910D90BC91A02D89839A83AB83BC83FC
:10098000ED81FE812081318142815381BC01CD0105
:100990000E94A31F9B01AC0169817A818B819C819C
:1009A0000E9481204B015C01AD81BE8154968D92E5
:1009B0009D92AD92BC92579750964D905D906D90E0
:1009C0007C905397A3019201C701B6010E94A21F18
:1009D000A50194010E94AD1EA30192010E94A31FD4
:1009E0006B017C01ED81FE81C486D586E686F786A3
:1009F000AC019B01C301B2010E94A21F9F77AD8190
:100A0000BE8118962D913D914D915C911B970E944E
:100A1000AD1E2B013C01A501940160E070E080E86F
:100A20009FE30E94A21F29813A814B815C810E9431
:100A3000AD1E9B01AC01C301B2010E94A31FED8159
:100A4000FE816483758386839783C08AD18AE28A14
:100A5000F38AC701B60126960FB6F894DEBF0FBE23
:100A6000CDBFDF91CF91FF90EF90DF90CF90BF90FF
:100A7000AF909F908F907F906F905F904F90089570
:100A8000089508952091A501260F3327331F2132A1
:100A90003105ECF420913D04FC0190E080E024302D
:100AA00069F082E00895A091A5012191AC014B5716
:100AB0005E4FA40FB52FB11D2C930196861798F3A6
:100AC0008091A501680F6093A50180E0089581E001
:100AD000089510923D0481E080931C041092170445
:100AE00061E082E10E94D90261E083E10E94D902C3
:100AF000E9EBF0E080818E7F808380818D7F808331
:100B000088E48093B80085E48093BC000895CF9377
:100B1000DF9391E0909384018823B9F0C091B800ED
:100B2000D091BA008091BC008A7B8093BC0060E0C9
:100B300082E10E94D90260E083E10E94D9020E9412
:100B40006905D093BA00C093B800DF91CF910895A2
:100B50008F929F92AF92BF92CF92DF92EF92FF92CD
:100B60000F931F93CF93DF93D82FC62F142F61328B
:100B700008F09CC00E9468036B017C0180913D04D9
:100B800081116FC081E080933D0410931C049FEF9E
:100B900090931B0410921A049C0F90931904809355
:100BA000180480911804DD0FD82BD093180480917D
:100BB0001704813009F07CC0109217040E9468036A
:100BC0006B017C01809118048093BB0080913F04ED
:100BD00090914004A0914104B0914204892B8A2B4A
:100BE0008B2BA1F00E94680300913F0410914004F8
:100BF00020914104309142046C197D098E099F09AE
:100C0000061717072807390708F44CC08091BC0065
:100C100083FDD8CF85EC8093BC000E9468036B01F4
:100C20007C0180913D04813009F444C080911A0414
:100C30008C1710F4C0911A04E7EFF3E0ADE1B4E0D3
:100C400080E08C1359C08C2FDF91CF911F910F91B1
:100C5000FF90EF90DF90CF90BF90AF909F908F90DC
:100C6000089580913F0490914004A0914104B09177
:100C70004204892B8A2B8B2B09F480CF0E946803B6
:100C800080903F0490904004A0904104B0904204B2
:100C90006C197D098E099F0986169706A806B90664
:100CA00008F06CCF80913E040E948705C0E0CBCF56
:100CB00085EEB1CF80913F0490914004A091410412
:100CC000B0914204892B8A2B8B2B09F4AACF0E9466
:100CD000680300913F041091400420914104309139
:100CE00042046C197D098E099F090617170728070A
:100CF000390708F096CFD6CF91919D938F5FA1CF02
:100D00008F929F92AF92BF92CF92DF92EF92FF921B
:100D10000F931F93CF93DF93D091F603D13208F056
:100D2000D7C0182FC091F5030E9468036B017C01A6
:100D300080913D0481116BC082E080933D0410934B
:100D40001C048FEF80931B0410921A04D093190493
:100D5000A5EDB3E0E7EFF3E080E0D81391C0109287
:100D6000180480911804CC0FC82BC09318048091EC
:100D70001704813009F088C0109217040E9468039C
:100D80006B017C01809118048093BB0080913F042B
:100D900090914004A0914104B0914204892B8A2B88
:100DA0008B2BA1F00E94680300913F041091400436
:100DB00020914104309142046C197D098E099F09EC
:100DC000061717072807390708F442C08091BC00AE
:100DD00083FDD8CF85EC8093BC000E9468036B0133
:100DE0007C0180913D04823009F450C080911B0445
:100DF0008F3F09F46FC080911B04803209F46CC0EE
:100E000080911B04803309F469C084E026C080917E
:100E10003F0490914004A0914104B0914204892B79
:100E20008A2B8B2B09F484CF0E94680380903F04A7
:100E300090904004A0904104B09042046C197D0948
:100E40008E099F0986169706A806B90608F070CF86
:100E500080913E040E94870585E01092D403109291
:100E6000F6031092D303DF91CF911F910F91FF9062
:100E7000EF90DF90CF90BF90AF909F908F900895AC
:100E80009D9191938F5F69CF85EEA5CF80913F04AF
:100E900090914004A0914104B0914204892B8A2B87
:100EA0008B2B09F49ECF0E94680300913F041091A0
:100EB000400420914104309142046C197D098E094F
:100EC0009F09061717072807390708F08ACFC0CFF0
:100ED00081E0C3CF80E0C1CF82E0BFCF83E0BDCF50
:100EE000CF93DF93EA01DC0111968D919C91DC0197
:100EF000ED91FC910280F381E02D0995C817D90787
:100F000029F481E00E94800691E0811190E0892F10
:100F1000DF91CF910895CF93DF93EC018B818823EC
:100F2000A1F0888191E09093D3038093F503109210
:100F3000D4031092F60381E00E94800691E08111B3
:100F400090E0892FDF91CF9108951092D2031092F3
:100F5000D1031092D4031092F6030E9469058AEC23
:100F600091E09093D7018093D6018BEC91E0909320
:100F7000D9018093D80181E08B83CE010E948B0739
:100F8000982F8111CECFDDCF0895E091D2038091CB
:100F9000D103E81730F4F0E0E35EFB4F808190E08E
:100FA00008958FEF9FEF08959091D2038091D10320
:100FB0002FEF3FEF981748F4E92FF0E0E35EFB4F87
:100FC000208130E09F5F9093D203C9010895CF92B2
:100FD000DF92EF92FF920F931F93CF93DF937C01E9
:100FE000CB018A012091D303222389F0EB016B010D
:100FF000C40ED51ECC15DD0569F06991D701ED91C0
:10100000FC910190F081E02DC7010995F3CF642F89
:101010000E944205C801DF91CF911F910F91FF906F
:10102000EF90DF90CF900895CF93DF931F92CDB7CD
:10103000DEB769832091D3032223F9F02091F603D0
:10104000203258F021E030E0FC013383228390E02D
:1010500080E00F90DF91CF9108958091D403E82F25
:10106000F0E0EB52FC4F998190838F5F8093D40323
:101070008093F60381E090E0ECCF61E0CE01019631
:101080000E944205F7CFCF93C62F91E09093D303F0
:101090009DE19093F5031092D4031092F603682F0C
:1010A00080EE94E00E9414086C2F80EE94E00E9481
:1010B000140881E0CF910C94800690E080E00895C0
:1010C000FC01AC014E5F5F4F80E08295807F919183
:1010D00020ED290F2A3028F4822BE417F507A9F711
:1010E00008952FEB290F263018F49753892BF5CF4D
:1010F0002FE9290F263088F79755F8CFFC0180E0BB
:1011000037E09191992369F0982728E0892F880F7B
:1011100097FF03C0990F892F83272150982FB1F78C
:10112000F0CF08950F931F93CF93DF93FC01C481F9
:10113000D5810BE611E041E050E070E060E06C1713
:101140007D0708F062C080819181009709F45DC03D
:10115000860F971FDC018C9190ED980F9A3040F02C
:10116000982F9F7D8FEB890F9753863008F09FEF64
:101170009295907F4C175D0708F049C0208131811E
:101180002115310509F443C0240F351FD9013C91C5
:1011900020ED230F2A3040F0232F2F7D8FEB820F7D
:1011A0002753863008F02FEF920FD8019D938D01C1
:1011B0006E5F7F4F4E5F5F4F4B30510509F0BFCFE1
:1011C000809170008D7F8093700080916B0180937F
:1011D000DD0180916C018093DE0180916D0180932F
:1011E000DF0180916E018093E00180916F01809317
:1011F000E1011092D10180917000826080937000B3
:10120000DF91CF911F910F91089580E0A5CF30E03D
:10121000BFCF41E00E94A8051092D2038093D10372
:10122000089591E09093D3039DE19093F50310927C
:10123000D4031092F603682F80EE94E00E94140805
:1012400080E00E94800661E070E08DE190E00E9405
:1012500009099091D1038091D203981729F080EE6B
:1012600094E00E94D407089580E00895CF93DF931F
:10127000C82FD62F8AE20E941109C095C8236C2F6F
:101280006D2B8AE2DF91CF910C9443088091340555
:10129000882341F081E080933505109234056EEF8C
:1012A0000C94360980913505882349F01092350554
:1012B00061E081E00E94360981E080933405089561
:1012C0006F927F928F929F92AF92BF92CF92DF9256
:1012D000EF92FF920F931F93CF93DF936C013B012B
:1012E0007A0110E000E0D60114968D919C91E701FF
:1012F000C01BD10B8C179D0708F4EC0141E0C7011E
:101300008C1B9D0B0817190708F440E06C2FC132A5
:1013100008F060E2F60180810E94A8051092D203D5
:101320008093D1038C171D0679F54301800E911E21
:101330005401C501881999098C179D0778F4D601C5
:1013400011968D919C91DC01ED91FC910284F385C5
:10135000E02D0995F50181935F01EBCF0C0F1D1F67
:101360000E151F0508F4BFCF81E0DF91CF911F91CB
:101370000F91FF90EF90DF90CF90BF90AF909F9034
:101380008F907F906F90089580E0EFCFCF93DF93A1
:101390001F92CDB7DEB741E050E0BE016F5F7F4FD7
:1013A000FC01848595850E946009882329F0898144
:1013B0000F90DF91CF9108958FEFFACF0C94862292
:1013C0000C948622E9E4F5E04481558170E060E008
:1013D000818592850C94D5234F925F926F927F9274
:1013E000AF92BF92CF92DF92EF92FF920F931F9333
:1013F000CF93DF93CDB7DEB729970FB6F894DEBF52
:101400000FBECDBF8C017B016A010E9492042B01AB
:101410003C018091080190910901A0910A018F83FC
:101420009887A987D8011C968D919C91FC012481F5
:10143000358123303105B8F4B12C8B2D29960FB6A8
:10144000F894DEBF0FBECDBFDF91CF911F910F91FA
:10145000FF90EF90DF90CF90BF90AF907F906F9014
:101460005F904F900895208131E03093D303209313
:10147000F5031092D4031092F60343E050E0BE014E
:10148000695F7F4F0E9470078823B1F2C8010E94F4
:10149000C60987FF07C06AE070E080E090E00E9424
:1014A0006004F4CF46E050E0BE016F5F7F4FF8016B
:1014B000848595850E946009B82E882309F4BCCFE5
:1014C0006A817B81762767277627CB01B0E0A0E091
:1014D0009C01AD0184E0220F331F441F551F8A95E4
:1014E000D1F7AC808A2D90E064E0959587956A9558
:1014F000E1F7092E000CAA0BBB0BBC01CD01622B3E
:10150000732B842B952B0E944C1E20E030E048EC7E
:1015100052E40E94AD1E20E030E040E855E30E9416
:10152000AD1ED80114966D937D938D939C93179760
:101530006A2D6F7070E090E080E0982F872F762FF3
:1015400066272D81622B982F872F762F66272E8175
:10155000622B0E944C1E20E030E048E453E40E94DD
:10156000AD1E20E030E040E855E30E94AD1E20E0D3
:1015700030E048E452E40E94A21FF80160837183C6
:1015800082839383C114D10481F1F601349680E201
:10159000DF011D928A95E9F784E290E0A0E0B0E0D7
:1015A000F60180839183A283B383D8011A968D912B
:1015B0009C91B0E0A0E084839583A683B7838DE0FF
:1015C00090E0A0E0B0E080879187A287B387408A4F
:1015D000518A628A738AF80180819181A281B381E4
:1015E000F601848B958BA68BB78BE114F10409F47B
:1015F00024CFF701349680E2DF011D928A95E9F746
:1016000084E290E0A0E0B0E0F70180839183A283C0
:10161000B383D80118968D919C91B0E0A0E08483AB
:101620009583A683B7838DE090E0A0E0B0E080874B
:101630009187A287B387408A518A628A738AF801A8
:1016400084819581A681B781F701848B958BA68BC8
:10165000B78BF3CEAB0170E060E0FC018481958133
:101660000E94EC0981E0089550E040E0FC01848193
:1016700095810E94EC0981E00895CF93DF93E0E724
:10168000F0E080818D7F8083ADEDB1E086E4ED01F7
:1016900019928A95E9F71092D1011092D201109215
:1016A000D30110925202808182608083DF91CF91BA
:1016B00008950F931F93CF93DF93CDB7DEB7CE5628
:1016C000D1090FB6F894DEBF0FBECDBF182F092F7A
:1016D0000E947E081F928F930F931F938EEC91E0D0
:1016E0009F938F931F928EE68F938E010F5F1F4FF4
:1016F0001F930F930E949E1BF80101900020E9F7B1
:101700003197AF01401B510BB80183E494E00E9474
:10171000CC010FB6F894DEBF0FBECDBFC259DF4F6C
:101720000FB6F894DEBF0FBECDBFDF91CF911F91F2
:101730000F9108950F931F93CF93DF93CDB7DEB72B
:1017400060970FB6F894DEBF0FBECDBF1F9283E047
:101750008F931F9284E08F9383EF91E09F938F93F9
:101760001F9280E18F938E010F5F1F4F1F930F9386
:101770000E949E1BC8010E94590B0FB6F894DEBF51
:101780000FBECDBF60960FB6F894DEBF0FBECDBFC3
:10179000DF91CF911F910F9108950F931F93CF93D6
:1017A000DF938C01EB0188E2FB0111928A95E9F746
:1017B0004BE050E06BE471E0CE010E94EE231B860B
:1017C00081E090E0A0E0B0E08C879D87AE87BF8786
:1017D000F80182819381092E000CAA0BBB0B888B28
:1017E000998BAA8BBB8B8DE090E0A0E0B0E08C8B56
:1017F0009D8BAE8BBF8B1CA21DA21EA21FA280E0E0
:1018000090E0A0E2B2EC8C8F9D8FAE8FBF8F80E016
:1018100090E0AAEAB2E4888F998FAA8FBB8F8AE9F9
:1018200099E9A9E9BEE388A399A3AAA3BBA3DF9181
:10183000CF911F910F9108950F931F93CF93DF9333
:101840008C01EB0188E2FB0111928A95E9F74BE0EC
:1018500050E063E571E0CE010E94EE231B8681E03B
:1018600090E0A0E0B0E08C879D87AE87BF87F8014D
:1018700082819381092E000CAA0BBB0B888B998B5C
:10188000AA8BBB8B8CE090E0A0E0B0E08C8B9D8BB2
:10189000AE8BBF8B1CA21DA21EA21FA21C8E1D8E72
:1018A0001E8E1F8E80E090E0A8ECB2E4888F998FA6
:1018B000AA8FBB8F80E090E0A0E0B0E488A399A35A
:1018C000AAA3BBA3DF91CF911F910F910895BF925F
:1018D000CF92DF92EF92FF920F931F93CF93DF93FC
:1018E000CDB7DEB768970FB6F894DEBF0FBECDBF99
:1018F000B82ECE0101966C016B3409F045C022234D
:10190000A9F11F930F93FF92EF921F92BF9288EE5F
:1019100091E09F938F931F9288E18F93DF92CF92F4
:101920000E949E1B0FB6F894DEBF0FBECDBF48E1EC
:1019300050E0B60183E292E00E94EE23B0923B02B7
:1019400081E080933C02C6010E94590B68960FB655
:10195000F894DEBF0FBECDBFDF91CF911F910F91E5
:10196000FF90EF90DF90CF90BF9008951F92BF92AD
:1019700081EE91E09F938F931F9288E18F93DF9286
:10198000CF920E949E1BCECF5F934F931F92BF9228
:1019900088ED91E09F938F931F9288E18F93DF9260
:1019A000CF920E949E1BBECF85ED8093BC0080919C
:1019B0003F0490914004A0914104B09142040796E5
:1019C000A11DB11D23E0B695A795979587952A95FA
:1019D000D1F72091BC0024FD03C010923D0408956E
:1019E00040913F0450914004609141047091420441
:1019F000452B462B472B69F30097A105B10541F014
:101A00002AE22A95F1F700C00197A109B109E1CFB7
:101A100080913E040C948705FF920F931F93CF9300
:101A2000DF93F62EC72FD42F6BE571E00E94551B74
:101A30000F2D1C2FC0E0009781F0CD1771F0CF5F04
:101A40000E94071BF801819391938F016BE571E070
:101A500090E080E00E94551BEECF8C2FDF91CF915C
:101A60001F910F91FF9008958F929F92AF92BF9216
:101A7000CF92DF92EF92FF920F931F93CF93DF935A
:101A800000D000D000D0CDB7DEB7142F26E0629F83
:101A9000800D911D1124BC0146E050E0CE0101965D
:101AA0000E944C1BE12FF0E04F0183E09594879456
:101AB0008A95E1F7412F4770898195E0989D9001C3
:101AC000999D300D112423523E4FDE0112967E0166
:101AD00057E0E50EF11CBD01042F10E0F9019191D2
:101AE0009F01FB01A190BF016901F1E0CF1AD1086C
:101AF000B12C042E02C0B594A7940A94E2F79A2957
:101B0000F60190836E157F0549F7080F111D073008
:101B100011050CF1E1E0E80D25E0E29FF001112450
:101B2000E352FE4F0730110551F158E0541B7F017D
:101B3000F70141917F019D918F0101501109292FDA
:101B4000052E01C0220F0A94EAF7242BF801208306
:101B50006A177B0769F78F5F26960FB6F894DEBF8A
:101B60000FBECDBFDF91CF911F910F91FF90EF90EE
:101B7000DF90CF90BF90AF909F908F90089590E0AE
:101B80002191DF0111972F772C939F5F9530C1F73B
:101B9000E2CFBF92CF92DF92EF92FF920F931F930B
:101BA000CF93DF93CDB7DEB764970FB6F894DEBF5F
:101BB0000FBECDBFB42E9E012F5F3F4F6901DC01E8
:101BC000F90100E02AE10617C1F00431B1F09D915E
:101BD0008FE9890F8A3120F480830F5F3196F3CF2C
:101BE0008FEB890F8A31C0F380EE890F8A3118F4A8
:101BF00096509083F2CF2083F0CF809170008D7F3C
:101C000080937000EDEDF1E086E4DF011D928A958E
:101C1000E9F7760110E08E2D8C19801750F4F7014A
:101C200061917F01412F86E990E00E94340D180FE9
:101C3000F2CF809170008260809370001930F8F0CC
:101C4000185010936A01809170008D7F809370000E
:101C5000B092D10180917000826080937000649690
:101C60000FB6F894DEBF0FBECDBFDF91CF911F91AD
:101C70000F91FF90EF90DF90CF90BF90089510925A
:101C80006A01809170008D7F809370001092D10165
:101C9000E1CF1F920F920FB60F9211242F933F9313
:101CA0004F935F936F937F938F939F93AF93BF9364
:101CB000EF93FF9383E494E00E944A02FF91EF9137
:101CC000BF91AF919F918F917F916F915F914F9154
:101CD0003F912F910F900FBE0F901F9018951F925C
:101CE0000F920FB60F9211242F938F939F93EF9320
:101CF000FF93E0915304F09154048081E0915904E2
:101D0000F0915A0482FD1BC0908180915C048F5F2A
:101D10008F7320915D04821741F0E0915C04F0E044
:101D2000ED5BFB4F958F80935C04FF91EF919F914A
:101D30008F912F910F900FBE0F901F90189580815B
:101D4000F4CF1F920F920FB60F9211242F933F934F
:101D50008F939F93AF93BF938091C9019091CA01D4
:101D6000A091CB01B091CC013091C80123E0230FA9
:101D70002D3758F50196A11DB11D2093C801809300
:101D8000C9019093CA01A093CB01B093CC0180917B
:101D9000CD019091CE01A091CF01B091D0010196DB
:101DA000A11DB11D8093CD019093CE01A093CF01D1
:101DB000B093D001BF91AF919F918F913F912F919F
:101DC0000F900FBE0F901F90189526E8230F0296D4
:101DD000A11DB11DD2CF1F920F920FB60F921124E9
:101DE0002F933F934F935F936F937F938F939F9323
:101DF000AF93BF93EF93FF938091B900887F8036B4
:101E000009F44AC0F0F5883209F4A7C018F580310A
:101E100009F49BC0B8F4882309F4F9C0883009F4A8
:101E200094C0FF91EF91BF91AF919F918F917F915E
:101E30006F915F914F913F912F910F900FBE0F9037
:101E40001F901895883109F488C0803251F780932B
:101E50001B0414C0803409F49DC040F48033B9F3EE
:101E60008833F9F680931B0485ECB0C0803509F403
:101E700085C0883509F496C0883499F60E94D40C40
:101E8000D0CF883909F48CC038F5883729F050F460
:101E9000883611F0803729F683E080933D04109254
:101EA000C70157C0883809F47BC0803919F08038E1
:101EB00009F0B7CF8091C701803208F071C0E0917E
:101EC000C70181E08E0F8093C7018091BB00F0E0D5
:101ED000E955FE4F80833DC0803B39F0E0F4803A05
:101EE00009F479C0883A09F09CCF84E080933D04DE
:101EF0001092A6011092A501E091D601F091D701B0
:101F000009958091A50181110FC081E08093A50101
:101F10001092850109C0803C09F4A6CF883C09F4E1
:101F2000A3CF883B09F07DCFE091A60181E08E0F21
:101F30008093A601F0E0EB57FE4F80818093BB00B9
:101F40009091A6018091A50129C0809118048093E9
:101F5000BB0085EC8093BC0064CF90911A04809103
:101F60001904981758F5E0911A0481E08E0F8093B8
:101F70001A04F0E0E950FC4F8081E9CFE0911A04A7
:101F800081E08E0F80931A048091BB00F0E0E9504D
:101F9000FC4F808390911A04809119049817C8F21D
:101FA00085E8D8CFE0911A0481E08E0F80931A045F
:101FB0008091BB00F0E0E950FC4F808380911C04CD
:101FC00081115CCF81E08093170484EA8093BC0088
:101FD00010923D0426CF85EC8093BC0010923D0406
:101FE0008091C701803230F4E091C701F0E0E955FB
:101FF000FE4F10826091C70170E0E091D801F0912E
:10200000D90187EA91E009951092C7010ACF109291
:102010001B0434CF1F920F920FB60F9211242F93EF
:102020003F934F935F936F937F938F939F93AF9360
:10203000BF93CF93DF93EF93FF9385B1807E85B9F4
:102040008BB1837E8BB980916901893108F075C0AD
:10205000809169018F5F8093690180916901893066
:1020600069F48091D201823009F4AAC008F068C0F6
:10207000882309F47BC0813009F48BC08091690109
:10208000883008F047C08091D30190E023E0959517
:1020900087952A95E1F74091D301477009F0BEC0BA
:1020A00025E0289FF001299FF00D1124E352FE4FF7
:1020B000A4E6B1E089E691E021912D938A179B0770
:1020C000D9F7209169018BB194E0299F90011124E7
:1020D000822B8BB99091690181E001C0880F9A959C
:1020E000EAF7E4E6F1E030E020E090E061E070E063
:1020F0004191482339F0AB01022E01C0440F0A94EC
:10210000EAF7942B2F5F3F4F2530310589F785B1D2
:10211000892B85B9FF91EF91DF91CF91BF91AF915D
:102120009F918F917F916F915F914F913F912F91EF
:102130000F900FBE0F901F901895109269018DCFD0
:10214000833009F45FC0843009F098CF8091D401C6
:102150009091D50101969093D5018093D4018091FF
:10216000D4019091D5010897D8F588CF8091D101FD
:10217000882309F483CF1092D3011092D5011092D5
:10218000D4011092D1011092520281E08093D201C9
:1021900075CF8091D4019091D50101969093D5018E
:1021A0008093D4018091D4019091D501843691051A
:1021B00008F464CF1092D5011092D40182E0E6CFEA
:1021C0008091D4019091D50101969093D50180938F
:1021D000D4018091D4019091D501489708F44ECF55
:1021E0001092D5011092D4018091D3018F5F80931A
:1021F000D3019091D30180916A01981708F43ECFE2
:1022000083E0C4CF81E0809352021092D3011092F8
:10221000D5011092D4011092D20130CF58E0541B56
:1022200025E0289FF001299FF00D1124EF01C352F2
:10223000DE4FEE51FE4FA4E6B1E089912191042ECC
:1022400001C0880F0A94EAF730E0052E02C03595E8
:1022500027950A94E2F7822B8D9381E0A936B8077F
:1022600061F72FCF109246041092450488EE93E058
:10227000A0E0B0E08093470490934804A093490401
:10228000B0934A042BE231E030934404209343049A
:1022900025EC30E03093500420934F0424EC30E0E0
:1022A000309352042093510420EC30E030935404D6
:1022B0002093530421EC30E03093560420935504CE
:1022C00022EC30E0309358042093570426EC30E0A1
:1022D00030935A042093590410925C0410925D04C8
:1022E00010925E0410925F041092E3041092E204D4
:1022F0008093E4049093E504A093E604B093E7048C
:102300008DE391E09093E1048093E00410924A05FC
:1023100010925105109258051092590510925A05C5
:1023200010925B0581E080935705809354051092CD
:10233000550592E090935605809349058CE090E016
:1023400090934E0580934D050E94EA21909353058A
:1023500080935205009709F4D9C02CE0FC0111923A
:102360002A95E9F784E090E090934C0580934B0523
:1023700085E090E09093500580934F0580914A0549
:10238000882341F061E085E00E94250360E085E05C
:102390000E94D902E2E9F2E0E491F0E0EE0FFF1FC3
:1023A000ED57FD4F8591949190935D0580935C0569
:1023B000E4E7F2E0E491E0935E05109244051092A8
:1023C000430510924605109245051092480510925B
:1023D0004705109234051092350510922805109289
:1023E000290510922A0510922B0510922C051092A7
:1023F0002D0510922E0510922F0510923005109287
:10240000310510923205109233058AE999E9A9E95C
:10241000BFE380931C0590931D05A0931E05B09308
:102420001F058093200590932105A0932205B0936A
:1024300023054DEC5CEC6CE47DE340932405509364
:1024400025056093260570932705109210051092BC
:102450001105109212051092130510921405109296
:102460001505109216051092170510921805109276
:10247000190510921A0510921B058093040590937C
:102480000505A0930605B093070580930805909372
:102490000905A0930A05B0930B0540930C055093D2
:1024A0000D0560930E0570930F051092F8041092BD
:1024B000F9041092FA041092FB041092FC0410929A
:1024C000FD041092FE041092FF0410920005109279
:1024D000010510920205109203058093EC0490937D
:1024E000ED04A093EE04B093EF048093F004909376
:1024F000F104A093F204B093F3044093F4045093D6
:10250000F5046093F6047093F704089510924E0555
:1025100010924D0510924C0510924B0529CFCF9388
:10252000DF93CDB7DEB7CC57D1090FB6F894DEBF35
:102530000FBECDBF789484B5826084BD84B58160C0
:1025400084BD85B5826085BD85B5816085BD80917E
:102550006E00816080936E001092810080918100F6
:1025600082608093810080918100816080938100EE
:10257000809180008160809380008091B1008460B0
:102580008093B1008091B00081608093B000809111
:102590007A00846080937A0080917A0082608093D0
:1025A0007A0080917A00816080937A0080917A002D
:1025B000806880937A001092C10060915105633366
:1025C00029F120915205309153056150C9F070E016
:1025D0008FEF92E30E94BC21F90140914D0550918B
:1025E0004E05CF01821B930B8417950760F4408141
:1025F000469FC001479F900D112490833196EDCFE7
:1026000070E060E0E9CF83E38093510580914F054E
:102610009091500597FD25C161E00E94250360E07F
:1026200080914F050E94D90281E080934A0520E005
:1026300040E06FEF90E080E00E94840120E04FEFE7
:1026400060E081E090E00E9484012FEF40E060E0D4
:1026500082E090E00E9484012FEF40E06FEF83E082
:1026600090E00E9484010E948D038AB18C618AB936
:1026700084B18F6184B9F89412E01093B00003E044
:102680000093B10086EA8093B3001092B2001093D9
:10269000700078941092D5011092D4011092D30159
:1026A0001092D2011092D101109252020E943D0B61
:1026B000E0915304F09154041083E0914F04F091A1
:1026C00050041082E0915104F091520480E1808323
:1026D00010925B04E0915704F091580496E09083C7
:1026E000E0915504F0915604808180618083E091EF
:1026F0005504F0915604808188608083E0915504F0
:10270000F0915604808180688083E0915504F091B7
:10271000560480818F7D80831F920F931F9284E0E7
:102720008F932DE531E03F932F931F929F939E014E
:102730002F5F3F4F19013F932F930E94FD23F1011B
:1027400001900020E9F73197BF016219730941E058
:10275000C1010E94C90D60EB74E080E090E00E942E
:1027600060040E943D0B64E170E080E090E00E9414
:10277000600480914305909144050FB6F894DEBF44
:102780000FBECDBF009711F00E94862286E090E038
:102790000E94EA218C0188E3D8018C9380EE94E0BA
:1027A00012969C938E93119713961C92139780E226
:1027B00090E015969C938E93149710934405009384
:1027C00043051092D2031092D1031092D4031092B9
:1027D000F6030E9469058AEC91E09093D7018093FB
:1027E000D6018BEC91E09093D9018093D801FF241E
:1027F000F394F801F382C8010E948B07882309F43F
:10280000A6C08AEB89838091430590914405DC0141
:1028100014962D913C911597232B09F498C02C9177
:10282000F092D3032093F5031092D4031092F60391
:1028300041E050E0B1010E947007882309F487C08D
:1028400064E170E080E090E00E94600487E395E03E
:102850000E94C60987FF08C06AE070E080E090E04F
:10286000F3CF10924A05E3CE81EE898388E08A8314
:102870001B828091430590914405FC0124813581A0
:102880002330310578F0208131E03093D303209359
:10289000F5031092D4031092F60343E050E0B10127
:1028A0000E94700787E395E00E94C60987FF07C072
:1028B0006AE070E080E090E00E946004F3CF87E37C
:1028C00095E00E94C60983FF42C080914705909120
:1028D0004805009739F0DC01ED91FC910280F3810D
:1028E000E02D09958091450590914605009739F0B6
:1028F000DC01ED91FC910280F381E02D099586E0E9
:1029000090E00E94EA21FC018DE191E091838083B7
:1029100080E290E19383828307E315E015830483CB
:10292000F0934805E093470586E090E00E94EA2195
:10293000FC018FE091E09183808381E290E19383B9
:10294000828315830483F0934605E09345058DE06B
:102950000E9411098A3539F51092340560E48BE242
:102960000E9443086AE070E080E090E00E9460040A
:102970000E94460960E08EE00E9443080E944609DA
:102980000E94460960E288E30E9436090E944609D7
:102990000E94460981E08093360560E082E00E9453
:1029A00036090E94460961E081E00E94360981E013
:1029B000809334050E94E2090E948D0343E552E0B2
:1029C00067E772E087E395E00E94EC090E949204B9
:1029D00060934E0270934F02809350029093510285
:1029E0000E94920460934A0270934B0280934C02BF
:1029F00090934D020E9492046093AB027093AC02DC
:102A00008093AD029093AE020E949A0B88E19FE002
:102A10000FB6F894A895809360000FBE9093600065
:102A2000FE013796E196FFAFEEAFE19783E494E0C5
:102A30000E942A02E3969FAF8EAFE397892B09F499
:102A40005FC083E494E00E940802833281F4F1E0E5
:102A5000F093DC01E091DB01F093DA0148E4A42E6D
:102A6000AE9EF0011124E155FD4F8083DFCF9091A0
:102A7000DC019923D9F2E091DA018A3071F5809175
:102A8000DB0138E4B32EB89EC001112481559D4F5F
:102A9000E80FF92FF11D10828091D003843080F46B
:102AA0008091DB0190E00196837099278093DB0190
:102AB0008091D0038F5F8093D0031092DC01B6CF5A
:102AC0008091DB0190E00196837099278093DB0170
:102AD0008091DB018093CF03F0CFE73408F0A6CFDD
:102AE0002091DB0191E09E0F9093DA0148E4429F30
:102AF0009001112421553D4FE20FF32FF11DB5CF69
:102B0000A8958091D0038823D9F10091CF0358E490
:102B1000059F8001112401551D4F8091CF0390E046
:102B20000196837099278093CF038091D0038150C1
:102B30008093D003D8018C91833211F56AE270E062
:102B4000C8010E94DC237C010097D1F001960E940D
:102B50006008D82EF7011082C80101960E947E08F5
:102B6000D8120EC098012E5F3F4FD80111969C914C
:102B7000983409F499C20CF079C2933409F4B3C2C1
:102B80000E9492042B013C0180914E0290914F02D1
:102B9000A0915002B0915102A3019201281B390B60
:102BA0004A0B5B0BDA01C901853F9140A105B105D4
:102BB00080F043E552E067E772E087E395E00E942A
:102BC000EC0940924E0250924F0260925002709275
:102BD000510280914A0290914B02A0914C02B09117
:102BE0004D02A3019201281B390B4A0B5B0BDA0142
:102BF000C90185369105A105B10508F410C1809180
:102C00003405882309F465C031E03093D3038DE1A6
:102C10008093F5031092D4031092F60361E080EEE6
:102C200094E00E94140880E00E948006809136059E
:102C300066E070E0811102C063E070E08DE190E039
:102C40000E940909710180EE94E00E94D407D82EF9
:102C5000D7018C9311969C93B2E0EB0EF11C8091FE
:102C60003605870102501109882309F468C480EEF3
:102C700094E00E94D407E996DFAEE997E8961FAE8C
:102C8000E897E996AEACBFACE9978A299B2926E084
:102C9000959587952A95E1F7D8018D939C93898125
:102CA0009A8190939C0280939B028B819C8190934C
:102CB0009E0280939D028D819E819093A0028093BD
:102CC0009F02E196AEACBFACE197AE14BF0409F031
:102CD000BACF60919B0270919C02072E000C880B6A
:102CE000990B0E944E1EAB01BC018CE195E00E9445
:102CF0009E046B017C01C0924602D0924702E09292
:102D00004802F092490260919D0270919E02072E46
:102D1000000C880B990B0E944E1EAB01BC0184E095
:102D200095E00E949E044B015C01809242029092C9
:102D30004302A0924402B092450260919F027091BA
:102D4000A002072E000C880B990B0E944E1EAB01AF
:102D5000BC018CEE94E00E949E049B01AC010E9499
:102D6000AD1EE7966CAF7DAF8EAF9FAFE797A50125
:102D70009401C501B4010E94AD1EE7962CAD3DAD96
:102D80004EAD5FADE7970E94A31F0E9463219B0198
:102D9000AC01C701B6010E9422202EEB3EE245E6BF
:102DA00052E40E94AD1E6093A1027093A202809330
:102DB000A3029093A402A7019601C701B6010E9445
:102DC000AD1EE7962CAD3DAD4EAD5FADE7970E94D1
:102DD000A31F0E9463219B01AC01C501B4010E94A5
:102DE00022202EEB3EE245E652E40E94AD1E6093A7
:102DF000A5027093A6028093A7029093A8028091E7
:102E000041028F5F843008F0A1C380934102409259
:102E10004A0250924B0260924C0270924D02009115
:102E20000001109101010115110509F412C10E9460
:102E30009204C090AB02D090AC02E090AD02F09052
:102E4000AE029B01AC012C193D094E095F096901D5
:102E50007A0130E020E0C016D106E206F30608F45D
:102E6000F8C06093AB027093AC028093AD02909374
:102E7000AE028FE00E94560303E0883C910554F0B7
:102E800002E08C3033E093072CF001E08B36934066
:102E90000CF000E050E1059F8001112480E10E94C8
:102EA00056039C0183E0283C310554F02C3083E02C
:102EB00038070CF480C381E02B3633400CF080E0FF
:102EC000A4E08A9FC0011124082B81E10E945603CF
:102ED0009C0193E0283C310554F092E02C30B3E0A3
:102EE0003B072CF091E02B3633400CF090E0092B9F
:102EF0008091520211E3811101C010E3A090A90258
:102F0000E296AFAEE297B090AA02E496BFAEE49725
:102F10006091A5027091A6028091A7029091A802EB
:102F20000E94F320562E472E6091A1027091A202BA
:102F30008091A3029091A4020E94F320762E672E26
:102F400090909F028090A002B0909D02A0909E025F
:102F500020919B02EA962FAFEA9730919C02EB9664
:102F60003FAFEB9781E10E945603D82EC92E80E136
:102F70000E945603F82EE92E8FE00E945603EC962D
:102F80008FAFEC97ED969FAFED978EE00E945603C2
:102F90001F920F931F921F93E4964FADE4974F93A8
:102FA000E2965FADE2975F934F925F926F927F924E
:102FB0008F929F92AF92BF92EB96AFACEB97AF928E
:102FC000EA96BFACEA97BF92CF92DF92EF92FF9260
:102FD000ED96AFACED97AF92EC96BFACEC97BF928D
:102FE0009F938F9320E030E048EC52E460918B0295
:102FF00070918C0280918D0290918E020E94AD1E84
:103000000E94F3207F936F9320E030E048EC52E47D
:1030100060916702709168028091690290916A02E2
:103020000E94AD1E0E94F3207F936F9324E432E050
:103030003F932F931F9288E68F933F922F920E9487
:103040009E1B0FB6F894DEBF0FBECDBFC1010E941C
:10305000590B80E090E0892B09F4E8CC0E943602FD
:10306000882309F4E3CC0E940000E0CC903509F1FC
:10307000923509F085CDC9010E94251B6938B3E15D
:103080007B078105910524F068E873E180E090E01A
:10309000DC01CB01B7FF03C080E090E0DC0190933E
:1030A0000101809300016CCD10923C020E949A0BAA
:1030B00067CDC9010E94600890913C02992349F0B4
:1030C00090913B02891305C083E292E00E94590B64
:1030D00057CDE12CF12C870120E050E040E06BE47B
:1030E0000E94670C4DCDC9010E946008D82EC8010E
:1030F00004960E946008F82E0A5F1F4F80913C02E0
:10310000882321F080913B02D816F1F288E0F1018A
:1031100011928A95E9F7EFEFEF0DE83308F008C256
:10312000F0E0EB56F74E0C94E421CD18981A981A5B
:10313000981A981A981A981A981A981A981A981AFF
:10314000981A981A981A981AD218D918041928197E
:103150006E19CB19DC19F619981A981A981A981A38
:10316000981A981A981A981A1E1A1E1ACF18981A8E
:10317000981A981A981A981A981A981A981A981ABF
:10318000981A981A981A981A531A6E1A7B1A831A50
:10319000851A871A891A8E1A931A0E943D0B0E946B
:1031A000E2097EC10E943D0B80E090E0DC0120E05E
:1031B0008FC142E0B101C8010E940C0D823048F479
:1031C000E12CF12C870120E041E050E065E48D2DF9
:1031D00087CFEB81FC8189819A818830910520F726
:1031E000E530F10508F7E352FE4F27E0A22EB12C9F
:1031F000A81AB90A21E030E001C0220FAA94EAF728
:103200008081822B8083D0CF42E0B101C8010E942F
:103210000C0D8230A8F2EB81FC8189819A81883083
:10322000910510F6E530F10508F0BECFE352FE4FF0
:1032300027E030E0281B390B41E050E002C0440F8A
:10324000551F2A95E2F7CA01809590818923DACF2C
:1032500044E0B101C8010E940C0D843008F4B0CFE5
:10326000AD81BE816B817C8189819A81FD01E81BE2
:10327000F90B2F813885261B370B220F331FA9012D
:103280004E1B5F0B4F01880C991CA817B9070CF453
:103290008BCF88309105B8F465307105A0F48B01AF
:1032A00003521E4FE7E0EE2EF12CE81AF90AE1E096
:1032B000F0E002C0EE0FFF1FEA94E2F77F01F80191
:1032C000F080EF28E0821416150624F46F5F7F4F1C
:1032D00048195909420F531F0196D7CFAB961FAE1D
:1032E0001EAEAB97AD961FAE1EAEAD97AF961FAE9E
:1032F0001EAEAF9701151105C9F1F801019000202C
:10330000E9F731977F01E01AF10AB7016F5F7F4F4C
:1033100090E080E00E940F230097B1F0AB969FAF42
:103320008EAFAB97AD96FFAEEEAEAD97AF962EAD2E
:103330003FADAF97232B49F1AF96FFAEEEAEAF97FF
:10334000B8010E94E72312C0AB968EAD9FADAB973C
:103350000097F1F4AB961FAE1EAEAB97AF961FAEC3
:103360001EAEAF97AD961FAE1EAEAD97CE0187597C
:103370009F4F0E949208AB968EAD9FADAB97009782
:1033800009F412CF0E9486220FCFDC011C92D4CF09
:103390000E948622DFCF41E0B101C8010E940C0DDE
:1033A000882309F40DCF0E943D0B40E069818AE13A
:1033B00092E00E94340DF8CEF80101900020E9F768
:1033C000BF0161507109601B710BCB0101978534FE
:1033D000910508F0E9CEF801E60FF71F80E280833F
:1033E000118241E0C8010E94C90DDECE41E0B10169
:1033F000C8010E940C0D882309F4E2CE89819A81CC
:103400008436910514F083E690E097FF02C090E0C7
:1034100080E06AE070E00E94D021605DAA966FAF04
:10342000AA97805DAB968FAFAB97AC961FAEAC976B
:1034300040E062E0CE0187599F4FD5CF44E0B10113
:10344000C8010E940C0D843008F4BACE1981F0E254
:10345000FF1202C00E94E20913FF07C02F814D81B5
:103460006B8190E080E00E94840112FF07C02F81F1
:103470004D816B8181E090E00E94840111FF07C0C3
:103480002F814D816B8182E090E00E94840110FFCA
:1034900007C02F814D816B8183E090E00E94840101
:1034A0000E948D0381CE20E030E048EC52E4609130
:1034B0006702709168028091690290916A020E948D
:1034C000AD1E0E94F320CB01770FAA0BBB0B21E0AE
:1034D0007C018D0150E040E06BE479CE20E030E0EB
:1034E00048EC52E460918B0270918C0280918D02C5
:1034F00090918E02E4CF8EE00E945603092E000CBC
:10350000AA0BBB0BE4CF8FE0F7CF80E1F5CF81E1D1
:10351000F3CF80919B0290919C02F0CF80919D020D
:1035200090919E02EBCF80919F029091A002E6CFF6
:10353000E12CF12C870120E042E050E047CE8D2DB8
:10354000DD0C990BF80191838083A9CB1092410285
:1035500020913D0230913E0240913F025091400245
:10356000C701B6010E94A21FC0923D02D0923E0246
:10357000E0923F02F09240026B017C01E894F7F880
:1035800020E030E048E452E4C701B6010E94502137
:10359000181644F4C701B6010E94F320E3967FAFEA
:1035A0006EAFE397E396AEACBFACE397B092AA02DE
:1035B000A092A9022CCC82E083CC80914505909109
:1035C0004605009739F0DC01ED91FC910280F38112
:1035D000E02D09958091470590914805009739F0B5
:1035E000DC01ED91FC910280F381E02D0995809141
:1035F0005205909153050E94862280914F0590912B
:10360000500597FD03C060E00C9425030895FC016C
:1036100088279927E89421912032E9F3293010F086
:103620002E30C8F32B3241F02D3239F4689404C0A7
:103630000E94961B820F911D219120532A30C0F3C6
:103640001EF4909581959F4F08951F93FC01992733
:103650008827BC01E89411911032E9F3193010F079
:103660001E30C8F31B3251F01D3249F4689406C075
:103670000E94811B610F711D811D911D11911053BD
:103680001A30B0F33EF490958095709561957F4F18
:103690008F4F9F4F1F910895FB01DC0102C00590E1
:1036A0000D9241505040D8F708954FE555E00E94E3
:1036B0005A1B0895FA01A191B081009719F410974F
:1036C000E1F0CD01DC01CD010D90002011F4C0012D
:1036D00013C0FB012191222319F02015D9F7F3CF54
:1036E000FB012191201519F41E92119606C0222388
:1036F000C1F70D900020A1F7D001FA01A193B0838A
:103700000895592F482F372F262F660F771F881FB0
:10371000991F660F771F881F991F620F731F841FE1
:10372000951F660F771F881F991F08957AE0979F4E
:10373000902D879F802D910D11240895AEE0B0E06B
:10374000E4EAFBE10C94791F0D891E898F89988D1D
:103750002EE02C831A83098397FF02C080E090E853
:1037600001979E838D83AE01455E5F4F698D7A8D93
:10377000CE0101960E94CE1B4D815E8157FD0AC08D
:103780002F813885421753070CF49A01020F131F3B
:10379000F80110822E96E4E00C94951FABE0B0E0A7
:1037A000E4EDFBE10C946B1F7C013B018A01FC0101
:1037B00017821682838181FFC8C1CE0101965C0108
:1037C000F7019381F30193FD859193FF81913F016F
:1037D000882309F453C1853239F493FD859193FF11
:1037E00081913F01853229F4B70190E00E94BE1D0E
:1037F000E7CF912C212C312CFFE1F31538F08B32DF
:1038000011F190F4803209F1833229F137FC3CC088
:1038100020ED280F2A3050F536FE20C08AE0989E11
:10382000200D1124922E06C08D3291F0803371F755
:10383000689430F8F30193FD859193FF81913F01E6
:103840008111DACF21C0689431F8689432F8F2CF50
:10385000689433F8EFCF689434F8ECCFEAE02E9E0A
:10386000200D1124222E689435F8E4CF8E3229F4ED
:1038700036FC04C1689436F8DDCF8C3619F46894B0
:1038800037F8D8CF8836B1F2982F9F7D9554933072
:10389000E0F08336A1F18337C1F1833509F063C0CD
:1038A0002801F2E04F0E511CF801C080D180692D33
:1038B00070E036FC02C06FEF7FEFC6010E94A81DCA
:1038C0004C01689437F882010AC00C5F1F4FFFE378
:1038D000F98388248394912C6501E89437F833FEAA
:1038E0002DC0522C8114910471F5552009F468CF34
:1038F000B70180E290E00E94BE1D5A94F6CFF80115
:10390000808189830E5F1F4FE4CF2801F2E04F0EC4
:10391000511CF801C080D180692D70E036FC02C0D6
:103920006FEF7FEFC6010E94B31D4C018201D5CF1E
:10393000B70180E290E00E94BE1D2A942814190469
:1039400009F0B0F7CECFF60137FC859137FE8191B3
:103950006F01B70190E00E94BE1D51105A94F1E032
:103960008F1A9108BFCF843619F0893609F077C0D5
:10397000F80137FE6BC060817181828193810C5F99
:103980001F4FF32DFF763F2E97FF09C0909580952E
:10399000709561957F4F8F4F9F4F689437F82AE05D
:1039A00030E0A5010E94EE1DC82ECA188C2C432CB5
:1039B00036FE0CC0E89440F8C91440F434FE05C04B
:1039C00032FC03C0F32DFE7E4F2E892C44FE95C0A1
:1039D000FE01EC0DF11D8081803309F087C0242D9C
:1039E000297E422E842D8870582E43FC95C040FEBF
:1039F0008FC09C2C821418F42C0C922C981844FE26
:103A000091C0B70180E390E00E94BE1D42FE09C054
:103A100088E790E041FE02C088E590E0B7010E948F
:103A2000BE1DC91408F48AC0CA94D12C9FEFC91ACC
:103A3000D90ACA0CDB1CF60182916F01B70190E034
:103A40000E94BE1DAC14BD04B1F74FCF60817181DF
:103A5000072E000C880B990B0E5F1F4F92CFD32CB3
:103A6000E894D4F82AE030E0853739F1232D297F16
:103A7000D22E8F3601F148F48835A9F0F7018681FE
:103A800097812B96E2E10C94871F803749F08837A5
:103A9000A9F7D4FE02C06894D2F820E130E00DC04E
:103AA0006894D4F8F6CF34FE03C0822F8660D82EF7
:103AB00020E132E002C028E030E0F801D7FE0FC07C
:103AC00060817181828193810C5F1F4FA5010E94EB
:103AD000EE1DC82ECA183D2CE89437F867CF6081D8
:103AE000718190E080E00E5F1F4FF0CF42FC02C07A
:103AF000839478CF8394839475CF842D867809F44A
:103B000071CFF6CFB70180E290E00E94BE1D839492
:103B10008214C0F3512C73CF522C5818821408F41D
:103B20006ECFF8CF842D867809F47BCF8BE241FEEF
:103B300080E247FC8DE2B70190E071CFB70180E3EE
:103B400090E00E94BE1D9A946CCF8FEF9FEF99CFAB
:103B5000FC010590615070400110D8F78095909558
:103B60008E0F9F1F0895FC0161507040019001105D
:103B7000D8F7809590958E0F9F1F08950F931F93F0
:103B8000CF93DF93182F092FEB018B8181FD09C0A3
:103B90001FEF0FEF812F902FDF91CF911F910F918A
:103BA000089582FF14C02E813F818C819D8128174A
:103BB00039073CF4E881F981CF0101969983888324
:103BC00010838E819F8101969F838E83E3CFE8854A
:103BD000F985812F0995892BA1F3DACFFA01AA275C
:103BE000283051F1203181F1E8946F936E7F6E5F40
:103BF0007F4F8F4F9F4FAF4FB1E03ED0B4E03CD0EE
:103C0000670F781F891F9A1FA11D680F791F8A1FD0
:103C1000911DA11D6A0F711D811D911DA11D20D037
:103C200009F468943F912AE0269F11243019305DF1
:103C30003193DEF6CF010895462F4770405D4193E2
:103C4000B3E00FD0C9F7F6CF462F4F70405D4A332F
:103C500018F0495D31FD4052419302D0A9F7EACFF7
:103C6000B4E0A6959795879577956795BA95C9F726
:103C700000976105710508959B01AC010A2E069419
:103C80005795479537952795BA95C9F7620F731FD2
:103C9000841F951FA01D0895E89409C097FB3EF46A
:103CA00090958095709561957F4F8F4F9F4F992389
:103CB000A9F0F92F96E9BB279395F6958795779507
:103CC0006795B795F111F8CFFAF4BB0F11F460FFC7
:103CD0001BC06F5F7F4F8F4F9F4F16C0882311F01F
:103CE00096E911C0772321F09EE8872F762F05C033
:103CF000662371F096E8862F70E060E02AF09A95CE
:103D0000660F771F881FDAF7880F9695879597F9C2
:103D10000895990F0008550FAA0BE0E8FEEF16165C
:103D20001706E807F907C0F012161306E407F507AF
:103D300098F0621B730B840B950B39F40A2661F023
:103D4000232B242B252B21F408950A2609F4A140C6
:103D5000A6958FEF811D811D08950E94C01E0C94B1
:103D6000311F0E94231F38F00E942A1F20F0952344
:103D700011F00C941A1F0C94201F11240C94651F31
:103D80000E94421F70F3959FC1F3950F50E0551F9D
:103D9000629FF001729FBB27F00DB11D639FAA27A0
:103DA000F00DB11DAA1F649F6627B00DA11D661FEF
:103DB000829F2227B00DA11D621F739FB00DA11D10
:103DC000621F839FA00D611D221F749F3327A00DCA
:103DD000611D231F849F600D211D822F762F6A2F66
:103DE00011249F5750409AF0F1F088234AF0EE0FCB
:103DF000FF1FBB1F661F771F881F91505040A9F7F8
:103E00009E3F510580F00C941A1F0C94651F5F3F74
:103E1000E4F3983ED4F3869577956795B795F79533
:103E2000E7959F5FC1F7FE2B880F911D96958795AB
:103E300097F9089597F99F6780E870E060E008952A
:103E40009FEF80EC089500240A94161617061806B2
:103E50000906089500240A9412161306140605068E
:103E60000895092E0394000C11F4882352F0BB0F1F
:103E700040F4BF2B11F460FF04C06F5F7F4F8F4F82
:103E80009F4F089557FD9058440F551F59F05F3FBD
:103E900071F04795880F97FB991F61F09F3F79F06C
:103EA00087950895121613061406551FF2CF4695EE
:103EB000F1DF08C0161617061806991FF1CF869570
:103EC0007105610508940895E894BB276627772754
:103ED000CB0197F908952F923F924F925F926F9284
:103EE0007F928F929F92AF92BF92CF92DF92EF928A
:103EF000FF920F931F93CF93DF93CDB7DEB7CA1B0B
:103F0000DB0B0FB6F894DEBF0FBECDBF09942A8835
:103F1000398848885F846E847D848C849B84AA84DD
:103F2000B984C884DF80EE80FD800C811B81AA816A
:103F3000B981CE0FD11D0FB6F894DEBF0FBECDBF35
:103F4000ED0108955058BB27AA270E94BA1F0C9470
:103F5000311F0E94231F38F00E942A1F20F039F4DD
:103F60009F3F19F426F40C94201F0EF4E095E7FB14
:103F70000C941A1FE92F0E94421F58F3BA176207C8
:103F800073078407950720F079F4A6F50C94641F55
:103F90000EF4E0950B2EBA2FA02D0B01B901900164
:103FA0000C01CA01A0011124FF27591B99F0593FA8
:103FB00050F4503E68F11A16F040A22F232F342FF0
:103FC0004427585FF3CF469537952795A795F0403E
:103FD0005395C9F77EF41F16BA0B620B730B840B53
:103FE000BAF09150A1F0FF0FBB1F661F771F881F0B
:103FF000C2F70EC0BA0F621F731F841F48F4879563
:1040000077956795B795F7959E3F08F0B0CF939554
:10401000880F08F09927EE0F9795879508950E94CD
:10402000231F60F080E891E009F49EEF0E942A1FB0
:1040300028F040E851E071F45EEF0CC00C94201FB2
:104040000C94641FE92FE0780E94421F40F3092E70
:10405000052AB1F3261737074807590738F00E2EFF
:1040600007F8E02569F0E025E0640AC0EF6307F88F
:10407000009407FADB01B9019D01DC01CA01AD0121
:10408000EF930E9498200E94311F0E9452205F915E
:10409000552339F02BED3FE049E450FD49EC0C94F9
:1040A000A31F0895DF93DD27B92FBF7740E85FE3B3
:1040B0001616170648075B0718F4D92F0E945521DA
:1040C0009F938F937F936F930E94A321E8E6F0E084
:1040D0000E9429210E94311F2F913F914F915F91A2
:1040E0000E94C01EDD2351F09058A2EA2AED3FE065
:1040F00049EC5FE3D0785D270E94BA1FDF910C94F2
:10410000311F0E9495200C94311F0E942A1F58F0E5
:104110000E94231F40F029F45F3F29F00C941A1FDE
:1041200051110C94651F0C94201F0E94421F68F3CC
:104130009923B1F3552391F3951B550BBB27AA2760
:1041400062177307840738F09F5F5F4F220F331F9A
:10415000441FAA1FA9F335D00E2E3AF0E0E832D062
:1041600091505040E695001CCAF72BD0FE2F29D065
:10417000660F771F881FBB1F261737074807AB0737
:10418000B0E809F0BB0B802DBF01FF2793585F4FAC
:104190003AF09E3F510578F00C941A1F0C94651F5D
:1041A0005F3FE4F3983ED4F3869577956795B7958E
:1041B000F7959F5FC9F7880F911D9695879597F999
:1041C0000895E1E0660F771F881FBB1F6217730712
:1041D0008407BA0720F0621B730B840BBA0BEE1F27
:1041E00088F7E09508950E94FA206894B1110C9424
:1041F000651F08950E944A1F88F09F5798F0B92FB5
:104200009927B751B0F0E1F0660F771F881F991F0B
:104210001AF0BA95C9F714C0B13091F00E94641F2A
:10422000B1E008950C94641F672F782F8827B85F3A
:1042300039F0B93FCCF3869577956795B395D9F763
:104240003EF490958095709561957F4F8F4F9F4F6D
:104250000895DF93CF931F930F93FF92EF92DF9216
:104260007B018C01689406C0DA2EEF010E94C01E0B
:10427000FE01E894A5912591359145915591A6F3BC
:10428000EF010E94BA1FFE019701A801DA9469F7B5
:10429000DF90EF90FF900F911F91CF91DF910895E4
:1042A0000E94891E08F48FEF08959B01AC0160E025
:1042B00070E080E89FE30C94812019F416F40C94CC
:1042C000201F0C94A7210E944A1FB8F39923C9F319
:1042D000B6F39F57550B87FF0E94B5210024A0E637
:1042E00040EA900180585695979528F4805C660FB7
:1042F000771F881F20F026173707480730F4621B06
:10430000730B840B202931294A2BA6951794079407
:10431000202531254A2758F7660F771F881F20F080
:1043200026173707480730F4620B730B840B200DF8
:10433000311D411DA09581F7B901842F9158880F37
:104340009695879508959B01AC010C94AD1E9F3FF7
:1043500031F0915020F4879577956795B795880F40
:10436000911D9695879597F9089591505040660F45
:10437000771F881FD2F70895AA1BBB1B51E107C006
:10438000AA1FBB1FA617B70710F0A61BB70B881FE5
:10439000991F5A95A9F780959095BC01CD01089574
:1043A00097FB072E16F4009407D077FD09D00E94E2
:1043B000BC2107FC05D03EF4909581959F4F089550
:1043C000709561957F4F0895EE0FFF1F0590F49152
:1043D000E02D09940F931F93CF93DF9382309105C3
:1043E00010F482E090E0E0916305F091640530E024
:1043F00020E0B0E0A0E0309799F42115310509F4F0
:104400004AC0281B390B24303105D8F58A819B819D
:104410006115710589F1FB0193838283FE0111C04F
:10442000408151810281138148175907E0F04817F4
:10443000590799F4109761F012960C9312971396FE
:104440001C933296CF01DF91CF911F910F91089568
:104450000093630510936405F4CF2115310551F0E5
:104460004217530738F0A901DB019A01BD01DF01B2
:10447000F801C1CFEF01F9CF9093640580936305F4
:10448000CDCFFE01E20FF31F8193919322503109AA
:1044900039832883D7CF2091610530916205232B82
:1044A00041F420910401309105013093620520937D
:1044B000610520910201309103012115310541F47C
:1044C0002DB73EB74091060150910701241B350BD3
:1044D000E0916105F0916205E217F307A0F42E1B4D
:1044E0003F0B2817390778F0AC014E5F5F4F241758
:1044F000350748F04E0F5F1F5093620540936105EA
:10450000819391939FCFF0E0E0E09CCFCF93DF9336
:104510000097E9F0FC01329713821282A0916305A3
:10452000B0916405ED0130E020E01097A1F4208106
:104530003181820F931F2091610530916205281708
:10454000390709F061C0F0936205E0936105DF91DE
:10455000CF910895EA01CE17DF07E8F54A815B8124
:104560009E0141155105B1F7E901FB83EA834991A9
:104570005991C40FD51FEC17FD0761F4808191811B
:104580000296840F951FE901998388838281938124
:104590009B838A83F0E0E0E012968D919C911397C3
:1045A0000097B9F52D913C911197CD010296820F9C
:1045B000931F20916105309162052817390739F65C
:1045C000309751F51092640510926305B09362051F
:1045D000A0936105BCCFD383C28340815181840FF6
:1045E000951FC817D90761F44E5F5F4F8881998185
:1045F000480F591F518340838A819B819383828313
:104600002115310509F0B0CFF0936405E0936305FF
:104610009ECFFD01DC01C0CF13821282D7CFB0E064
:10462000A0E0E5E1F3E20C946D1F8C01009751F4DA
:10463000CB010E94EA218C01C801CDB7DEB7E0E1D1
:104640000C94891FFC01E60FF71F9C0122503109D1
:10465000E217F30708F49DC0D901CD91DC911197C1
:10466000C617D70798F0C530D10530F3CE010497AF
:104670008617970708F3C61BD70B2297C193D193D0
:104680006D937C93CF010E948622D6CF5B01AC1A3A
:10469000BD0A4C018C0E9D1EA0916305B09164056E
:1046A000512C412CF12CE12C109731F580916105B2
:1046B000909162058815990509F05CC04616570669
:1046C00008F058C08091020190910301009741F4D5
:1046D0008DB79EB74091060150910701841B950B41
:1046E000E817F90708F055C0F0936205E0936105FB
:1046F000F90171836083A0CF8D919C9111971296DF
:104700006C90129713967C901397A815B90559F5DC
:104710006C0142E0C40ED11CCA14DB0420F1AC01D0
:104720004A195B09DA011296159780F0628273824A
:1047300051834083D9016D937C93E114F10471F0AE
:10474000D7011396FC93EE93129776CF22968C0F97
:104750009D1FF90191838083F301EFCFF0936405EE
:10476000E093630569CF4816590608F42C017D01D2
:10477000D3019ACFCB010E94EA217C01009749F036
:10478000AE01B8010E94CC23C8010E948622870195
:1047900053CF10E000E050CFFB01DC0102C00190DC
:1047A0000D9241505040D8F70895DC0101C06D933F
:1047B00041505040E0F70895FC018191861721F0A7
:1047C0008823D9F7992708953197CF010895FB01E0
:1047D000DC0101900D920020E1F70895FB01DC015E
:1047E0004150504048F001900D920020C9F701C09F
:1047F0001D9241505040E0F70895AEE0B0E0E3E094
:10480000F4E20C94791F0D891E898F89988D26E01A
:104810002C831A83098397FF02C080E090E80197F8
:104820009E838D83AE01455E5F4F698D7A8DCE018B
:1048300001960E94CE1B4D815E8157FD0AC02F81DB
:104840003885421753070CF49A01020F131FF80121
:1048500010822E96E4E00C94951F11E0C2E5D1E0A1
:1048600004C0FE010E94E4212196C335D107C9F797
:04487000F894FFCFEA
:104874003200000065052000AC3300000000004059
:1048840005E00941052A0BCD0B000000004005DEC0
:10489400094105340B1C0C000000006C02CC01F92A
:1048A40001B9022A0208021C02000000001408E7F1
:1048B400075D08C4077D01D407C507414854783013
:1048C4005F540041485478305F48003B0025752E02
:0448D4002575000046
:00000001FF
