:100000000C9453010C947B010C947B010C947B01A8
:100010000C947B010C947B010C947B010C942512B5
:100020000C947B010C947B010C947B010C947B0160
:100030000C947B010C947B010C947B010C947B0150
:100040000C94BC100C947B010C948A100C946410DA
:100050000C947B010C947B010C947B010C947B0130
:100060000C9406110C947B01084AD73B3BCE016EE1
:1000700084BCBFFDC12F3D6C74319ABD56833DDAFF
:100080003D00C77F11BED9E4BB4C3E916BAAAABE0E
:10009000000000803F00030040A0A0600380C0A0DB
:1000A000A040030060808060032060A0A0400300A7
:1000B00060A0C0600340A080C0800340A0602040DA
:1000C000038080C0A0A001800080808002400040AA
:1000D000408003A0A0C0A0A00280808080400500D6
:1000E00050A8A8A80300C0A0A0A0030040A0A04062
:1000F00004609090E0800340A06020200400A050A5
:1001000040400360804020E00280C08080400300C7
:10011000A0A0A0600300A0A0A04005000088A850F7
:10012000030000A040A003A0A06020400300E02046
:1001300080E0030000000000018080800080040057
:10014000A0A000000714FE28FC50040000000000DE
:1001500004009020409005205068906802004040C4
:1001600000000240808080400280404040800400C7
:1001700060F06000030040E040000100000080806B
:10018000030000E0000001000000008004001020D7
:1001900040800340A0A0A0400240C0404040034037
:1001A000A02040E003C0204020C003204080E02089
:1001B00003E080C020C0032040C0A04003E02040F6
:1001C00080800340A040A0400340A0E020C0232541
:1001D000732A253032580A004125303258452564AB
:1001E0000041253032584B0041253032584B3B25D9
:1001F0006C64005925753B25753B300000000000FC
:10020000240027002A00000000080002010000036B
:1002100004070000000000000000076CFE7C38109E
:100220000700287C381003002400241803002C0049
:1002300024180342A5E742000300E7E74200030059
:1002400000E742005325643B25643B25643B25645D
:100250003B25643B25643B25643B25643B25643B8F
:1002600025643B25643B25643B25633B25750001E4
:10027000020408102040800102040810200102043A
:1002800008102000000000250028002B00040404B2
:10029000040404040402020202020203030303032F
:1002A00003004D13DE2211241FBECFEFD8E0DEBFC6
:1002B000CDBF26E0A6E6B1E001C01D92A63BB20785
:1002C000E1F711E0A0E0B1E0EAEFF9E502C0059046
:1002D0000D92A636B107D9F711E0C2E5D1E004C00E
:1002E0002197FE010E94A72AC135D107C9F70E94B4
:1002F000AA140C94F02C0C9400008091220590918B
:100300002305891B990B0895E0919C06F0919D06A9
:100310008E179F0798F53091A206332361F0639FF3
:10032000B0011124672F349FA0011124452F329F63
:1003300090011124232F3091A806E091A306F0919B
:10034000A4065091A50635131AC0DC01AA0FBB1FE5
:100350008A0F9B1F8E0F9F1FE091A506E80FF92FB4
:10036000F11D6083E091A606E80FF92FF11D40838F
:100370003091A706830F911DFC0120830895880FFB
:10038000991F880F991F8E0F9F1FFC01E30FF11D0E
:100390001082E2CF08950895AF92BF92CF92DF927C
:1003A000EF92FF920F931F93CF93DF936C017B012A
:1003B0008B01040F151FEB015E01AE18BF08C017BB
:1003C000D10759F06991D601ED91FC910190F0812E
:1003D000E02DC6010995892B79F7C501DF91CF91F1
:1003E0001F910F91FF90EF90DF90CF90BF90AF9053
:1003F0000895FC01538D448D252F30E0842F90E02B
:10040000821B930B541710F0CF960895019708950F
:10041000FC01918D828D981761F0A28DAE0FBF2FD8
:10042000B11D5D968C91928D9F5F9F73928F90E02E
:1004300008958FEF9FEF0895FC01918D828D98179D
:1004400031F0828DE80FF11D858D90E008958FEFDA
:100450009FEF0895FC01918D228D892F90E0805CA3
:100460009F4F821B91098F739927089584E995E026
:100470000E942A0221E0892B09F420E0822F0895AE
:1004800080E090E0892B29F00E94360281110C94C3
:1004900000000895FC01A48DA80FB92FB11DA35A27
:1004A000BF4F2C91848D90E001968F739927848F94
:1004B000A689B7892C93A089B1898C9183708064B7
:1004C0008C93938D848D981306C00288F389E02D58
:1004D00080818F7D80830895EF92FF920F931F9309
:1004E000CF93DF93EC0181E0888F9B8D8C8D9813E7
:1004F0001AC0E889F989808185FF15C09FB7F894F3
:10050000EE89FF896083E889F9898081837080643E
:1005100080839FBF81E090E0DF91CF911F910F9189
:10052000FF90EF900895F62E0B8D10E00F5F1F4F98
:100530000F731127E02E8C8D8E110CC00FB607FCA7
:10054000FACFE889F989808185FFF5CFCE010E9435
:100550004A02F1CFEB8DEC0FFD2FF11DE35AFF4F57
:10056000F0829FB7F8940B8FEA89FB8980818062C3
:10057000CFCFCF93DF93EC01888D8823B9F0AA8980
:10058000BB89E889F9898C9185FD03C0808186FD4E
:100590000DC00FB607FCF7CF8C9185FFF2CF80819D
:1005A00085FFEDCFCE010E944A02E9CFDF91CF91C6
:1005B000089590E0FC01EA5FFD4F2491FC01E159B0
:1005C000FD4F3491FC01E357FD4FE491EE23C9F058
:1005D000222339F0233001F1A8F4213019F122301F
:1005E00029F1F0E0EE0FFF1FED57FD4FA591B491FB
:1005F0008FB7F894EC91611126C030953E233C935F
:100600008FBF08952730A9F02830C9F0243049F76A
:10061000809180008F7D03C0809180008F778093D0
:100620008000DFCF84B58F7784BDDBCF84B58F7D2D
:10063000FBCF8091B0008F778093B000D2CF8091B4
:10064000B0008F7DF9CF3E2BDACFCF93DF9390E0D0
:10065000FC01E159FD4F249183579D4FFC0184918A
:100660008823D1F090E0880F991FFC01E450FE4FE1
:10067000A591B491FC01ED57FD4FC591D491611145
:100680000EC09FB7F8948C91E22FE0958E238C9347
:100690002881E223E8839FBFDF91CF9108958FB730
:1006A000F894EC91E22BEC938FBFF6CF8E508064E0
:1006B00080937C0080917A00806480937A0080919E
:1006C0007A0086FDFCCF80917800909179000895A2
:1006D0003FB7F8948091CF019091D001A091D101C2
:1006E000B091D20126B5A89B05C02F3F19F0019605
:1006F000A11DB11D3FBFBA2FA92F982F8827BC017C
:10070000CD01620F711D811D911D42E0660F771FA3
:10071000881F991F4A95D1F708950F931F93CF9380
:10072000DF93CDB7DEB729970FB6F894DEBF0FBEC3
:10073000CDBF8091A3069091A406892B09F47CC0BB
:100740000E9468030091A9061091AA062091AB06A9
:100750003091AC06601771078207930740F46093ED
:10076000A9067093AA068093AB069093AC060091FD
:10077000A9061091AA062091AB063091AC06601B29
:10078000710B820B930B6C32714081059105C0F2A5
:10079000F89480919E0690919F069A838983E091B8
:1007A000A306F091A406DF011196808189879091BC
:1007B0009A06E091AD06F091AE068091AF069923BE
:1007C00009F445C09081982B988790818095892362
:1007D0008F838F818C8388E08B8358856F814985D7
:1007E0003B812C8189819A81508347FD252F3A9541
:1007F0002083262F39F0441F00C0000060830000D2
:1008000000C0F2CF38E04D9160830000019761F79E
:10081000F093AE06E093AD0649873B832C839A8321
:10082000898378940E9468036093A9067093AA064E
:100830008093AB069093AC0629960FB6F894DEBF72
:100840000FBECDBFDF91CF911F910F910895908181
:10085000982B98879081809589238F838F818E83B1
:1008600088E08D8358856F8149853D812E818981FE
:100870009A81508347FD252F00C000C0208300C00F
:1008800000C000C000C000C060830000262F3A9561
:1008900041F0441F000000C000C000C000C000C004
:1008A000E8CF38E04D9100C0608300C0019709F7A0
:1008B000F093AE06E093AD0649873D832E83AFCF1C
:1008C0008F929F92AF92BF92CF92DF92EF92FF9260
:1008D0004B015C010E9468036B017C010E9468036C
:1008E0006C197D098E099F09683E73408105910549
:1008F000A8F321E0821A9108A108B10888EEC80E79
:1009000083E0D81EE11CF11C81149104A104B10400
:1009100029F7FF90EF90DF90CF90BF90AF909F901E
:100920008F9008952FB7F8946091CB017091CC010E
:100930008091CD019091CE012FBF08954F925F928B
:100940006F927F928F929F92AF92BF92CF92DF92DF
:10095000EF92FF92CF93DF9300D000D000D0CDB7BD
:10096000DEB79E838D836A017B01DC0114968D9135
:100970009D910D90BC91A02D89839A83AB83BC83FC
:10098000ED81FE812081318142815381BC01CD0105
:100990000E9415289B01AC0169817A818B819C8121
:1009A0000E94F3284B015C01AD81BE8154968D926B
:1009B0009D92AD92BC92579750964D905D906D90E0
:1009C0007C905397A3019201C701B6010E9414289D
:1009D000A50194010E94EF26A30192010E9415280F
:1009E0006B017C01ED81FE81C486D586E686F786A3
:1009F000AC019B01C301B2010E9414289F77AD8115
:100A0000BE8118962D913D914D915C911B970E944E
:100A1000EF262B013C01A501940160E070E080E825
:100A20009FE30E94142829813A814B815C810E94B6
:100A3000EF269B01AC01C301B2010E941528ED8194
:100A4000FE816483758386839783C08AD18AE28A14
:100A5000F38AC701B60126960FB6F894DEBF0FBE23
:100A6000CDBFDF91CF91FF90EF90DF90CF90BF90FF
:100A7000AF909F908F907F906F905F904F90089570
:100A8000089508952091A701260F3327331F21329F
:100A90003105ECF420918E05FC0190E080E02430DB
:100AA00069F082E00895A091A7012191AC01495716
:100AB0005E4FA40FB52FB11D2C930196861798F3A6
:100AC0008091A701680F6093A70180E0089581E0FD
:100AD000089510928E0581E080936D05109268054F
:100AE00061E082E10E94D90261E083E10E94D902C3
:100AF000E9EBF0E080818E7F808380818D7F808331
:100B000088E48093B80085E48093BC000895CF9377
:100B1000DF9391E0909386018823B9F0C091B800EB
:100B2000D091BA008091BC008A7B8093BC0060E0C9
:100B300082E10E94D90260E083E10E94D9020E9412
:100B40006905D093BA00C093B800DF91CF910895A2
:100B50008F929F92AF92BF92CF92DF92EF92FF92CD
:100B60000F931F93CF93DF93D82FC62F142F61328B
:100B700008F09CC00E9468036B017C0180918E0587
:100B800081116FC081E080938E0510936D059FEFFA
:100B900090936C0510926B059C0F90936A0580935F
:100BA000690580916905DD0FD82BD0936905809187
:100BB0006805813009F07CC0109268050E946803C6
:100BC0006B017C01809169058093BB008091900549
:100BD00090919105A0919205B0919305892B8A2B54
:100BE0008B2BA1F00E946803009190051091910554
:100BF00020919205309193056C197D098E099F090A
:100C0000061717072807390708F44CC08091BC0065
:100C100083FDD8CF85EC8093BC000E9468036B01F4
:100C20007C0180918E05813009F444C080916B0570
:100C30008C1710F4C0916B05E8E4F5E0AEE6B5E082
:100C400080E08C1359C08C2FDF91CF911F910F91B1
:100C5000FF90EF90DF90CF90BF90AF909F908F90DC
:100C600008958091900590919105A0919205B09181
:100C70009305892B8A2B8B2B09F480CF0E94680364
:100C80008090900590909105A0909205B09093056A
:100C90006C197D098E099F0986169706A806B90664
:100CA00008F06CCF80918F050E948705C0E0CBCF04
:100CB00085EEB1CF8091900590919105A09192051C
:100CC000B0919305892B8A2B8B2B09F4AACF0E9414
:100CD0006803009190051091910520919205309143
:100CE00093056C197D098E099F09061717072807B8
:100CF000390708F096CFD6CF91919D938F5FA1CF02
:100D00008F929F92AF92BF92CF92DF92EF92FF921B
:100D10000F931F93CF93DF93D0914705D13208F003
:100D2000D7C0182FC09146050E9468036B017C0153
:100D300080918E0581116BC082E080938E051093A7
:100D40006D058FEF80936C0510926B05D0936A054B
:100D5000A6E2B5E0E8E4F5E080E0D81391C0109297
:100D6000690580916905CC0FC82BC09369058091F6
:100D70006805813009F088C0109268050E946803F8
:100D80006B017C01809169058093BB008091900587
:100D900090919105A0919205B0919305892B8A2B92
:100DA0008B2BA1F00E946803009190051091910592
:100DB00020919205309193056C197D098E099F0948
:100DC000061717072807390708F442C08091BC00AE
:100DD00083FDD8CF85EC8093BC000E9468036B0133
:100DE0007C0180918E05823009F450C080916C05A1
:100DF0008F3F09F46FC080916C05803209F46CC09C
:100E000080916C05803309F469C084E026C080912C
:100E1000900590919105A0919205B0919305892B31
:100E20008A2B8B2B09F484CF0E9468038090900555
:100E300090909105A0909205B09093056C197D0952
:100E40008E099F0986169706A806B90608F070CF86
:100E500080918F050E94870585E0109225051092EC
:100E6000470510922405DF91CF911F910F91FF90BC
:100E7000EF90DF90CF90BF90AF909F908F900895AC
:100E80009D9191938F5F69CF85EEA5CF809190055D
:100E900090919105A0919205B0919305892B8A2B91
:100EA0008B2B09F49ECF0E9468030091900510914E
:100EB000910520919205309193056C197D098E0959
:100EC0009F09061717072807390708F08ACFC0CFF0
:100ED00081E0C3CF80E0C1CF82E0BFCF83E0BDCF50
:100EE000CF93DF93EA01DC0111968D919C91DC0197
:100EF000ED91FC910280F381E02D0995C817D90787
:100F000029F481E00E94800691E0811190E0892F10
:100F1000DF91CF910895CF93DF93EC018B818823EC
:100F2000A1F0888191E0909324058093460510926A
:100F300025051092470581E00E94800691E081110D
:100F400090E0892FDF91CF910895109223051092A0
:100F5000220510922505109247050E9469058AEC2A
:100F600091E09093D9018093D8018BEC91E090931C
:100F7000DB018093DA0181E08B83CE010E948B0735
:100F8000982F8111CECFDDCF0895E0912305809178
:100F90002205E81730F4F0E0E259FA4F808190E042
:100FA00008958FEF9FEF089590912305809122057A
:100FB0002FEF3FEF981748F4E92FF0E0E259FA4F8E
:100FC000208130E09F5F90932305C9010895CF925F
:100FD000DF92EF92FF920F931F93CF93DF937C01E9
:100FE000CB018A0120912405222389F0EB016B01BA
:100FF000C40ED51ECC15DD0569F06991D701ED91C0
:10100000FC910190F081E02DC7010995F3CF642F89
:101010000E944205C801DF91CF911F910F91FF906F
:10102000EF90DF90CF900895CF93DF931F92CDB7CD
:10103000DEB76983209124052223F9F0209147052A
:10104000203258F021E030E0FC013383228390E02D
:1010500080E00F90DF91CF91089580912505E82FD2
:10106000F0E0EA5DFA4F998190838F5F80932505C8
:101070008093470581E090E0ECCF61E0CE010196DE
:101080000E944205F7CFCF93C62F91E0909324059D
:101090009DE1909346051092250510924705682F13
:1010A00081E396E00E9414086C2F81E396E00E9491
:1010B000140881E0CF910C94800690E080E00895C0
:1010C000982F80ED890F8A3070F08FEB890F863072
:1010D00018F489EC890F08958FE9890F863010F490
:1010E00089EAF8CF80E00895CF93DF938FE00E94E4
:1010F0005603C3E0883C910554F0C2E08C3023E0F5
:1011000092072CF0C1E08B3693400CF0C0E080E1F8
:10111000C89FE001112480E10E9456039C0183E0F6
:10112000283C310554F082E02C3093E039072CF054
:1011300081E02B3633400CF080E024E0829FC00138
:101140001124C82B81E10E9456039C0183E0283CB6
:1011500031054CF02C3083E038074CF081E02B3621
:1011600033400CF080E08C2BDF91CF91089582E02A
:10117000FACFFC01AC014E5F5F4F80E08295807F2B
:10118000919120ED290F2A3028F4822BE417F507DE
:10119000A9F708952FEB290F263018F49753892BC0
:1011A000F5CF2FE9290F263088F79755F8CFFC01A6
:1011B00080E037E09191992369F0982728E0892F02
:1011C000880F97FF03C0990F892F83272150982FED
:1011D000B1F7F0CF0895803138F0E82FF0E0E15416
:1011E000FD4F2081822F0895209100018830D1F396
:1011F000893071F40E94920424EF31E040E050E025
:101200000E94662A20953095409550952170EACF2E
:1012100020919C0330E045E050E0481B510902C09A
:10122000359527954A95E2F7F1CF0F931F93CF930A
:10123000DF93FC01C481D5810DE611E041E050E06F
:1012400070E060E06C177D0708F062C080819181DA
:10125000009709F45DC0860F971FDC018C9190ED1B
:10126000980F9A3040F0982F9F7D8FEB890F9753FE
:10127000863008F09FEF9295907F4C175D0708F03D
:1012800049C0208131812115310509F443C0240F63
:10129000351FD9013C9120ED230F2A3040F0232F38
:1012A0002F7D8FEB820F2753863008F02FEF920FA0
:1012B000D8019D938D016E5F7F4F4E5F5F4F4B3026
:1012C000510509F0BFCF809170008D7F8093700031
:1012D00080916D018093DF0180916E018093E00128
:1012E00080916F018093E101809170018093E20110
:1012F000809171018093E3011092D301809170007D
:10130000826080937000DF91CF911F910F910895BB
:1013100080E0A5CF30E0BFCF41E00E94A805109249
:10132000230580932205089591E0909324059DE183
:10133000909346051092250510924705682F81E38A
:1013400096E00E94140880E00E94800661E070E050
:101350008DE190E00E948C099091220580912305F7
:10136000981729F081E396E00E94D407089580E061
:101370000895CF93DF93C82FD62F8AE20E94940955
:10138000C095C8236C2F6D2B8AE2DF91CF910C940E
:10139000430880918506882341F081E0809386068A
:1013A000109285066EEF0C94B90980918606882309
:1013B00049F01092860661E081E00E94B90981E05F
:1013C0008093850608956F927F928F929F92AF923D
:1013D000BF92CF92DF92EF92FF920F931F93CF9322
:1013E000DF936C013B017A0110E000E0D601149616
:1013F0008D919C91E701C01BD10B8C179D0708F4C0
:10140000EC0141E0C7018C1B9D0B0817190708F47C
:1014100040E06C2FC13208F060E2F60180810E944A
:10142000A80510922305809322058C171D0679F5D7
:101430004301800E911E5401C501881999098C172A
:101440009D0778F4D60111968D919C91DC01ED9168
:10145000FC910284F385E02D0995F50181935F01EC
:10146000EBCF0C0F1D1F0E151F0508F4BFCF81E039
:10147000DF91CF911F910F91FF90EF90DF90CF9070
:10148000BF90AF909F908F907F906F90089580E075
:10149000EFCFCF93DF931F92CDB7DEB741E050E09F
:1014A000BE016F5F7F4FFC01848595850E94E30933
:1014B000882329F089810F90DF91CF9108958FEFD4
:1014C000FACF0C94492B0C94492BEAE9F6E04481BD
:1014D000558170E060E0818592850C94982C4F9244
:1014E0005F926F927F92AF92BF92CF92DF92EF9214
:1014F000FF920F931F93CF93DF93CDB7DEB729975A
:101500000FB6F894DEBF0FBECDBF8C017B016A0120
:101510000E9492042B013C0180910A0190910B01E1
:10152000A0910C018F839887A987D8011C968D9173
:101530009C91FC012481358123303105B8F4B12C14
:101540008B2D29960FB6F894DEBF0FBECDBFDF916D
:10155000CF911F910F91FF90EF90DF90CF90BF90B0
:10156000AF907F906F905F904F900895208131E011
:1015700030932405209346051092250510924705C7
:1015800043E050E0BE01695F7F4F0E9470078823EF
:10159000B1F2C8010E94490A87FF07C06AE070E003
:1015A00080E090E00E946004F4CF46E050E0BE018D
:1015B0006F5F7F4FF801848595850E94E309B82EFF
:1015C000882309F4BCCF6A817B8176276727762739
:1015D000CB01B0E0A0E09C01AD0184E0220F331FFD
:1015E000441F551F8A95D1F7AC808A2D90E064E0A6
:1015F000959587956A95E1F7092E000CAA0BBB0B10
:10160000BC01CD01622B732B842B952B0E948E265F
:1016100020E030E048EC52E40E94EF2620E030E089
:1016200040E855E30E94EF26D80114966D937D9310
:101630008D939C9317976A2D6F7070E090E080E017
:10164000982F872F762F66272D81622B982F872F33
:10165000762F66272E81622B0E948E2620E030E0B6
:1016600048E453E40E94EF2620E030E040E855E3F0
:101670000E94EF2620E030E048E452E40E94142863
:10168000F8016083718382839383C114D10481F153
:10169000F601349680E2DF011D928A95E9F784E233
:1016A00090E0A0E0B0E0F60180839183A283B38351
:1016B000D8011A968D919C91B0E0A0E08483958327
:1016C000A683B7838DE090E0A0E0B0E080879187AB
:1016D000A287B387408A518A628A738AF80180811F
:1016E0009181A281B381F601848B958BA68BB78BF8
:1016F000E114F10409F424CFF701349680E2DF010C
:101700001D928A95E9F784E290E0A0E0B0E0F7014D
:1017100080839183A283B383D80118968D919C9185
:10172000B0E0A0E084839583A683B7838DE090E04A
:10173000A0E0B0E080879187A287B387408A518A72
:10174000628A738AF80184819581A681B781F70145
:10175000848B958BA68BB78BF3CEAB0170E060E0EA
:10176000FC01848195810E946F0A81E0089550E018
:1017700040E0FC01848195810E946F0A81E0089518
:10178000CF93DF93E0E7F0E080818D7F8083AFED42
:10179000B1E086E4ED0119928A95E9F71092D30140
:1017A0001092D4011092D5011092A2038081826020
:1017B0008083DF91CF9108950F931F93CF93DF9391
:1017C000CDB7DEB7CE56D1090FB6F894DEBF0FBE47
:1017D000CDBF182F092F0E94D7081F928F930F9308
:1017E0001F938EEC91E09F938F931F928EE68F93C1
:1017F0008E010F5F1F4F1F930F930E94D023F8019C
:1018000001900020E9F73197AF01401B510BB8015F
:1018100084E995E00E94CC010FB6F894DEBF0FBEBC
:10182000CDBFC259DF4F0FB6F894DEBF0FBECDBF9C
:10183000DF91CF911F910F9108950F931F93CF9335
:10184000DF93CDB7DEB760970FB6F894DEBF0FBE5B
:10185000CDBF1F9284E08F931F928F9383EF91E00F
:101860009F938F931F9280E18F938E010F5F1F4F85
:101870001F930F930E94D023C8010E94DC0B0FB668
:10188000F894DEBF0FBECDBF60960FB6F894DEBFF2
:101890000FBECDBFDF91CF911F910F9108950F9390
:1018A0001F93CF93DF938C01EB0188E2FB01119230
:1018B0008A95E9F74BE050E06DE471E0CE010E94BB
:1018C000B12C1B8681E090E0A0E0B0E08C879D8782
:1018D000AE87BF87F80182819381092E000CAA0B85
:1018E000BB0B888B998BAA8BBB8B8DE090E0A0E023
:1018F000B0E08C8B9D8BAE8BBF8B1CA21DA21EA259
:101900001FA280E090E0A0E2B2EC8C8F9D8FAE8FA2
:10191000BF8F80E090E0AAEAB2E4888F998FAA8F07
:10192000BB8F8AE999E9A9E9BEE388A399A3AAA391
:10193000BBA3DF91CF911F910F9108950F931F9338
:10194000CF93DF938C01EB0188E2FB0111928A9522
:10195000E9F74BE050E065E571E0CE010E94B12C63
:101960001B8681E090E0A0E0B0E08C879D87AE8789
:10197000BF87F80182819381092E000CAA0BBB0B53
:10198000888B998BAA8BBB8B8CE090E0A0E0B0E0B9
:101990008C8B9D8BAE8BBF8B1CA21DA21EA21FA287
:1019A0001C8E1D8E1E8E1F8E80E090E0A8ECB2E48F
:1019B000888F998FAA8FBB8F80E090E0A0E0B0E481
:1019C00088A399A3AAA3BBA3DF91CF911F910F91E5
:1019D0000895BF92CF92DF92EF92FF920F931F93E1
:1019E000CF93DF93CDB7DEB768970FB6F894DEBF1D
:1019F0000FBECDBFB82ECE0101966C016B3409F03D
:101A000045C02223A9F11F930F93FF92EF921F92DB
:101A1000BF9288EE91E09F938F931F9288E18F93FE
:101A2000DF92CF920E94D0230FB6F894DEBF0FBE94
:101A3000CDBF48E150E0B60185E292E00E94B12CB2
:101A4000B0923D0281E080933E02C6010E94DC0B11
:101A500068960FB6F894DEBF0FBECDBFDF91CF9171
:101A60001F910F91FF90EF90DF90CF90BF9008955E
:101A70001F92BF9281EE91E09F938F931F9288E116
:101A80008F93DF92CF920E94D023CECF5F934F935C
:101A90001F92BF9288ED91E09F938F931F9288E1F0
:101AA0008F93DF92CF920E94D023BECF85ED80939B
:101AB000BC008091900590919105A0919205B09104
:101AC00093050796A11DB11D23E0B695A79597959F
:101AD00087952A95D1F72091BC0024FD03C0109270
:101AE0008E05089540919005509191056091920561
:101AF00070919305452B462B472B69F30097A10561
:101B0000B10541F02AE22A95F1F700C00197A10939
:101B1000B109E1CF80918F050C9487050C94AD2716
:101B200080919803909199039C012F5F3F4F3093D0
:101B30009903209398030C948E0D1F93CF93DF93FA
:101B40000E94900D182F0E94900DC82FD0E00E9487
:101B5000900DBE01782B113059F000F1123009F4CC
:101B600062C0133009F46DC060E070E0CB011AC0B0
:101B7000693008F055C0E62FF0E0EF53F24F0C94B7
:101B8000A72ACA0DD60DE10DEA0DEF0DF40DF90DE2
:101B9000020E0B0E8EE00E945603BC01072E000CB5
:101BA000880B990BDF91CF911F9108956091B70336
:101BB0007091B8038091B9039091BA030E9465298E
:101BC000EDCF6091DB037091DC038091DD03909198
:101BD000DE03F4CF6091EB037091EC03DFCF6091F3
:101BE000ED037091EE03DACF6091EF037091F00393
:101BF000D5CF6091F1037091F2038091F30390913E
:101C0000F403DCCF6091F5037091F6038091F70344
:101C10009091F803D3CF6091F9037091FA03BECF8E
:101C200070E060E0BBCF67707727FB01EE0FFF1F0E
:101C3000EE0FFF1FE156FD4F60817181828193811C
:101C4000B1CF6F707727FB01E153FD4F608170E0EA
:101C500090E080E0A7CFCF92DF92EF92FF920F93B8
:101C60001F93CF93DF9380E190E00E948E0D8D341F
:101C700009F099C081E190E00E948E0D8C3409F04A
:101C800092C082E190E00E948E0D8093010181500C
:101C9000833008F088C083E190E00E948E0D80932D
:101CA000970384E190E00E948E0DE82E85E190E09C
:101CB0000E948E0DF82E86E190E00E948E0DC82EB7
:101CC00087E190E00E948E0DD82EC70101978438DD
:101CD000934008F068C0CFEFDFEF10E000E0C801EC
:101CE00048960E948E0DC82788E09E0121703327F8
:101CF000D695C795232B21F091E0C92790EAD927E3
:101D0000815099F70F5F1F4FE016F10641F7CC168F
:101D1000DD0609F048C088E190E090939B03809332
:101D20009A03EFECF2E0119222E0EF3DF207D9F7CF
:101D3000EFE9F2E0119211921192119282E0EF3BE1
:101D4000F807C1F7EFE7F2E0AFE5B2E011921192C8
:101D5000119211921D921D921D921D9292E0EF39E7
:101D6000F907A1F781E080930001EFE1F3E087E953
:101D700093E01082118212821382148235968E179C
:101D80009F07B9F7EFEDF2E08FE193E011928E1724
:101D90009F07E1F7EFEBF2E0119222E0EF3CF20750
:101DA000D9F781E001C080E0DF91CF911F910F91C1
:101DB000FF90EF90DF90CF900895FF920F931F93C5
:101DC000CF93DF93F62EC72FD42F6DE571E00E94DD
:101DD00056230F2D1C2FC0E0009781F0CD1771F016
:101DE000CF5F0E940823F801819391938F016DE5E5
:101DF00071E090E080E00E945623EECF8C2FDF91BF
:101E0000CF911F910F91FF900895FF920F931F9311
:101E1000CF93DF93EC01F62E08811981C8010E944F
:101E2000AD27F81621F06F2DC8010E94B527CE010D
:101E3000DF91CF911F910F91FF9008958F929F9204
:101E4000AF92BF92CF92DF92EF92FF920F931F93C8
:101E5000CF93DF9300D000D000D0CDB7DEB7142FE2
:101E600026E0629F800D911D1124BC0146E050E0E8
:101E7000CE0101960E944D23E12FF0E04F0183E057
:101E8000959487948A95E1F7412F4770898195E071
:101E9000989D9001999D300D112421523E4FDE01F5
:101EA00012967E0157E0E50EF11CBD01042F10E0F3
:101EB000F90191919F01FB01A190BF016901F1E03E
:101EC000CF1AD108B12C042E02C0B594A7940A945D
:101ED000E2F79A29F60190836E157F0549F7080FFE
:101EE000111D073011050CF1E1E0E80D25E0E29F3E
:101EF000F0011124E152FE4F0730110551F158E075
:101F0000541B7F01F70141917F019D918F01015089
:101F10001109292F052E01C0220F0A94EAF7242B5C
:101F2000F80120836A177B0769F78F5F26960FB643
:101F3000F894DEBF0FBECDBFDF91CF911F910F91FF
:101F4000FF90EF90DF90CF90BF90AF909F908F90D9
:101F5000089590E02191DF0111972F772C939F5FD7
:101F60009530C1F7E2CFBF92CF92DF92EF92FF920E
:101F70000F931F93CF93DF93CDB7DEB764970FB660
:101F8000F894DEBF0FBECDBFB42E9E012F5F3F4F32
:101F90006901DC01F90100E02AE10617C1F0043112
:101FA000B1F09D918FE9890F8A3120F480830F5F12
:101FB0003196F3CF8FEB890F8A31C0F380EE890F12
:101FC0008A3118F496509083F2CF2083F0CF80911D
:101FD00070008D7F80937000EFEDF1E086E4DF010B
:101FE0001D928A95E9F7760110E08E2D8C198017E5
:101FF00050F4F70161917F01412F86E990E00E9442
:102000001E0F180FF2CF80917000826080937000D5
:102010001930F8F0185010936C01809170008D7F8A
:1020200080937000B092D3018091700082608093A1
:10203000700064960FB6F894DEBF0FBECDBFDF917F
:10204000CF911F910F91FF90EF90DF90CF90BF90B5
:10205000089510926C01809170008D7F80937000C4
:102060001092D301E1CFFC0101900020E9F73197F4
:10207000BF01681B790B19F041E00C94B30F089570
:10208000CF93DF9300D01F92CDB7DEB78436910592
:1020900014F083E690E097FF02C090E080E06AE0F1
:1020A00070E00E94522A605D6983805D8A831B8292
:1020B00040E062E0CE0101960E94B30F0F900F90B6
:1020C0000F90DF91CF9108951F920F920FB60F924C
:1020D00011242F933F934F935F936F937F938F932D
:1020E0009F93AF93BF93EF93FF9384E995E00E9492
:1020F0004A02FF91EF91BF91AF919F918F917F9194
:102100006F915F914F913F912F910F900FBE0F9064
:102110001F9018951F920F920FB60F9211242F93B4
:102120008F939F93EF93FF93E091A405F091A50502
:102130008081E091AA05F091AB0582FD1BC09081E2
:102140008091AD058F5F8F732091AE05821741F0AE
:10215000E091AD05F0E0EC56FA4F958F8093AD0518
:10216000FF91EF919F918F912F910F900FBE0F9044
:102170001F9018958081F4CF1F920F920FB60F9287
:1021800011242F933F938F939F93AF93BF9380918D
:10219000CB019091CC01A091CD01B091CE013091B5
:1021A000CA0123E0230F2D3758F50196A11DB11D5B
:1021B0002093CA018093CB019093CC01A093CD01D1
:1021C000B093CE018091CF019091D001A091D10127
:1021D000B091D2010196A11DB11D8093CF019093C2
:1021E000D001A093D101B093D201BF91AF919F9143
:1021F0008F913F912F910F900FBE0F901F901895C8
:1022000026E8230F0296A11DB11DD2CF1F920F9277
:102210000FB60F9211242F933F934F935F936F93B9
:102220007F938F939F93AF93BF93EF93FF9380918F
:10223000B900887F803609F44AC0F0F5883209F485
:10224000A7C018F5803109F49BC0B8F4882309F4BD
:10225000F9C0883009F494C0FF91EF91BF91AF911C
:102260009F918F917F916F915F914F913F912F91AE
:102270000F900FBE0F901F901895883109F488C0F9
:10228000803251F780936C0514C0803409F49DC0EE
:1022900040F48033B9F38833F9F680936C0585EC0C
:1022A000B0C0803509F485C0883509F496C08834FB
:1022B00099F60E94560DD0CF883909F48CC038F5B4
:1022C000883729F050F4883611F0803729F683E0FA
:1022D00080938E051092C90157C0883809F47BC0DD
:1022E000803919F0803809F0B7CF8091C901803268
:1022F00008F071C0E091C90181E08E0F8093C9019F
:102300008091BB00F0E0E755FE4F80833DC0803BED
:1023100039F0E0F4803A09F479C0883A09F09CCFAA
:1023200084E080938E051092A8011092A701E0919D
:10233000D801F091D90109958091A70181110FC0B1
:1023400081E08093A7011092870109C0803C09F4C5
:10235000A6CF883C09F4A3CF883B09F07DCFE0915C
:10236000A80181E08E0F8093A801F0E0E957FE4FAD
:1023700080818093BB009091A8018091A70129C022
:10238000809169058093BB0085EC8093BC0064CF8D
:1023900090916B0580916A05981758F5E0916B054F
:1023A00081E08E0F80936B05F0E0E85BFA4F80814F
:1023B000E9CFE0916B0581E08E0F80936B058091F2
:1023C000BB00F0E0E85BFA4F808390916B05809151
:1023D0006A059817C8F285E8D8CFE0916B0581E0CF
:1023E0008E0F80936B058091BB00F0E0E85BFA4FA5
:1023F000808380916D0581115CCF81E080936805B9
:1024000084EA8093BC0010928E0526CF85EC8093E1
:10241000BC0010928E058091C901803230F4E091A9
:10242000C901F0E0E755FE4F10826091C90170E0EC
:10243000E091DA01F091DB0189EA91E009951092CF
:10244000C9010ACF10926C0534CF1F920F920FB6BC
:102450000F9211242F933F934F935F936F937F932A
:102460008F939F93AF93BF93CF93DF93EF93FF939C
:1024700085B1807E85B98BB1837E8BB980916B01EC
:10248000893108F075C080916B018F5F80936B017B
:1024900080916B01893069F48091D401823009F414
:1024A000AAC008F068C0882309F47BC0813009F411
:1024B0008BC080916B01883008F047C08091D501B6
:1024C00090E023E0959587952A95E1F74091D50115
:1024D000477009F0BEC025E0289FF001299FF00D4C
:1024E0001124E152FE4FA6E6B1E08BE691E0219186
:1024F0002D938A179B07D9F720916B018BB194E03C
:10250000299F90011124822B8BB990916B0181E05E
:1025100001C0880F9A95EAF7E6E6F1E030E020E0A6
:1025200090E061E070E04191482339F0AB01022E68
:1025300001C0440F0A94EAF7942B2F5F3F4F2530D8
:10254000310589F785B1892B85B9FF91EF91DF912D
:10255000CF91BF91AF919F918F917F916F915F913B
:102560004F913F912F910F900FBE0F901F90189594
:1025700010926B018DCF833009F45FC0843009F075
:1025800098CF8091D6019091D70101969093D70171
:102590008093D6018091D6019091D7010897D8F504
:1025A00088CF8091D301882309F483CF1092D5017D
:1025B0001092D7011092D6011092D3011092A2036B
:1025C00081E08093D40175CF8091D6019091D7019D
:1025D00001969093D7018093D6018091D601909176
:1025E000D7018436910508F464CF1092D701109278
:1025F000D60182E0E6CF8091D6019091D701019675
:102600009093D7018093D6018091D6019091D70104
:10261000489708F44ECF1092D7011092D6018091BE
:10262000D5018F5F8093D5019091D50180916C0188
:10263000981708F43ECF83E0C4CF81E08093A203D3
:102640001092D5011092D7011092D6011092D401A8
:1026500030CF58E0541B25E0289FF001299FF00D52
:102660001124EF01C152DE4FEC51FE4FA6E6B1E05E
:1026700089912191042E01C0880F0A94EAF730E075
:10268000052E02C0359527950A94E2F7822B8D938B
:1026900081E0AB36B80761F72FCF10929705109203
:1026A000960588EE93E0A0E0B0E0809398059093C3
:1026B0009905A0939A05B0939B052DE231E03093E4
:1026C00095052093940525EC30E03093A1052093E7
:1026D000A00524EC30E03093A3052093A20520EC64
:1026E00030E03093A5052093A40521EC30E0309331
:1026F000A7052093A60522EC30E03093A90520938E
:10270000A80526EC30E03093AB052093AA05109283
:10271000AD051092AE051092AF051092B005109263
:102720003406109233068093350690933606A093B4
:102730003706B09338068FE391E09093320680938A
:10274000310610929B061092A2061092A9061092D2
:10275000AA061092AB061092AC0681E08093A80600
:102760008093A5061092A60692E09093A706809308
:102770009A068CE090E090939F0680939E060E94BC
:10278000AD2A9093A4068093A306009709F4D9C0BC
:102790002CE0FC0111922A95E9F784E090E09093F7
:1027A0009D0680939C0685E090E09093A10680931F
:1027B000A00680919B06882341F061E085E00E949D
:1027C000250360E085E00E94D902E2E9F2E0E491AD
:1027D000F0E0EE0FFF1FED57FD4F85919491909320
:1027E000AE068093AD06E4E7F2E0E491E093AF0635
:1027F00010929506109294061092970610929606E3
:1028000010929906109298061092850610928606EC
:102810001092790610927A0610927B0610927C062E
:1028200010927D0610927E0610927F06109280060E
:1028300010928106109282061092830610928406EE
:102840008AE999E9A9E9BFE380936D0690936E0642
:10285000A0936F06B09370068093710690937206F2
:10286000A0937306B09374064DEC5CEC6CE47DE3CE
:1028700040937506509376066093770670937806BA
:10288000109261061092620610926306109264061E
:1028900010926506109266061092670610926806FE
:1028A0001092690610926A0610926B0610926C06DE
:1028B0008093550690935606A0935706B0935806FA
:1028C0008093590690935A06A0935B06B0935C06DA
:1028D00040935D0650935E0660935F0670936006BA
:1028E0001092490610924A0610924B0610924C061E
:1028F00010924D0610924E0610924F0610925006FE
:1029000010925106109252061092530610925406DD
:1029100080933D0690933E06A0933F06B0934006F9
:102920008093410690934206A0934306B0934406D9
:1029300040934506509346066093470670934806B9
:10294000089510929F0610929E0610929D06109276
:102950009C0629CFCF93DF93CDB7DEB7CE58D109F0
:102960000FB6F894DEBF0FBECDBF789484B58260F9
:1029700084BD84B5816084BD85B5826085BD85B523
:10298000816085BD80916E00816080936E001092A1
:10299000810080918100826080938100809181001C
:1029A00081608093810080918000816080938000AD
:1029B0008091B10084608093B1008091B00081600B
:1029C0008093B00080917A00846080937A00809137
:1029D0007A00826080937A0080917A00816080938F
:1029E0007A0080917A00806880937A001092C1000A
:1029F0006091A206633329F12091A3063091A406C9
:102A00006150C9F070E08FEF92E30E943E2AF90115
:102A100040919E0650919F06CF01821B930B841715
:102A2000950760F44081469FC001479F900D112497
:102A300090833196EDCF70E060E0E9CF83E380933F
:102A4000A2068091A0069091A10697FD31C161E098
:102A50000E94250360E08091A0060E94D90281E0D7
:102A600080939B0620E040E06FEF90E080E00E94C2
:102A7000840120E04FEF60E081E090E00E9484015B
:102A80002FEF40E060E082E090E00E9484012FEFB1
:102A900040E06FEF83E090E00E9484010E948D038C
:102AA0008AB18C618AB984B18F6184B9F89412E0DB
:102AB0001093B00083E08093B10086EA8093B30066
:102AC0001092B2001093700078941092D701109277
:102AD000D6011092D5011092D4011092D301109218
:102AE000A2030E94C00BE091A405F091A5051083FC
:102AF000E091A005F091A1051082E091A205F0916E
:102B0000A30580E180831092AC05E091A805F091C7
:102B1000A90596E09083E091A605F091A705808134
:102B200080618083E091A605F091A705808188608F
:102B30008083E091A605F091A7058081806880835D
:102B4000E091A605F091A70580818F7D80831F927B
:102B500084E08F931F928F932FE531E03F932F9363
:102B60001F929F938E010F5F1F4FE9961FAF0EAF0D
:102B7000E9971F930F930E94C02CE996EEADFFAD2D
:102B8000E99701900020E9F73197BF01E9962EAD52
:102B90003FADE997621B730B41E0C8010E94B30F80
:102BA00060EB74E080E090E00E9460040E94C00B43
:102BB00064E170E080E090E00E94600480919406FF
:102BC000909195060FB6F894DEBF0FBECDBF00976B
:102BD00011F00E94492B86E090E00E94AD2A8C0102
:102BE00088E3D8018C9381E396E012969C938E93B0
:102BF000119713961C92139780E290E015969C9380
:102C00008E931497109395060093940610922305C3
:102C10001092220510922505109247050E94690521
:102C20008AEC91E09093D9018093D8018BEC91E0EC
:102C30009093DB018093DA01FF24F394F801F3828F
:102C4000C8010E948B07882309F4AAC08AEB8983F4
:102C50008091940690919506DC0114962D913C91FB
:102C60001597232B09F49CC02C91F09224052093F6
:102C70004605109225051092470541E050E0BE013F
:102C80006F5F7F4F0E947007882309F489C064E159
:102C900070E080E090E00E94600488E896E00E9486
:102CA000490A87FF08C06AE070E080E090E0F3CF57
:102CB00010929B06D7CE81EE898388E08A831B829F
:102CC0008091940690919506FC01248135812330F2
:102CD000310588F0208131E03093240520934605AA
:102CE000109225051092470543E050E0BE016F5F4A
:102CF0007F4F0E94700788E896E00E94490A87FF8C
:102D000007C06AE070E080E090E00E946004F3CFCA
:102D100088E896E00E94490A83FF42C080919806A5
:102D200090919906009739F0DC01ED91FC910280B9
:102D3000F381E02D09958091960690919706009772
:102D400039F0DC01ED91FC910280F381E02D0995D1
:102D500086E090E00E94AD2AFC018FE191E0918332
:102D6000808380E290E19383828308E816E01583F4
:102D70000483F0939906E093980686E090E00E9421
:102D8000AD2AFC0181E191E09183808381E290E1B1
:102D90009383828315830483F0939706E0939606CA
:102DA0008DE00E9494098A3539F51092850660E419
:102DB0008BE20E9443086AE070E080E090E00E94AD
:102DC00060040E94C90960E08EE00E9443080E94EE
:102DD000C9090E94C90960E288E30E94B9090E94FA
:102DE000C9090E94C90981E08093870660E082E0FA
:102DF0000E94B9090E94C90961E081E00E94B909F5
:102E000081E0809385060E94650A0E948D0343EA53
:102E100053E067EC73E088E896E00E946F0A0E9436
:102E200092046093500270935102809352029093E7
:102E300053020E94920460934C0270934D0280935F
:102E40004E0290934F020E9492046093FB03709392
:102E5000FC038093FD039093FE030E941D0C0E94CF
:102E60002B0E809359021092FF0380935E020E9402
:102E7000920460935A0270935B0280935C02909379
:102E80005D0288E19FE00FB6F894A89580936000FA
:102E90000FBE909360001E01B9E62B0E311CFE019F
:102EA0003196EB96FFAFEEAFEB978FE090E08C01A1
:102EB0000E1B1F0BC357DF4F19830883CD58D0401B
:102EC00018E401E084E995E00E942A02ED969FAFA4
:102ED0008EAFED97892B09F459C084E995E00E94E3
:102EE0000802833269F40093DE01E091DD01009372
:102EF000DC011E9FF0011124E050FC4F8083E2CFE3
:102F00009091DE019923F1F2E091DC018A3061F5C4
:102F10008091DD01189FC001112480509C4FE80F63
:102F2000F92FF11D108280912105843080F4809169
:102F3000DD0190E00196837099278093DD018091F7
:102F400021058F5F809321051092DE01BBCF809118
:102F5000DD0190E00196837099278093DD018091D7
:102F6000DD0180932005F0CFE73408F0ABCF20914E
:102F7000DD0191E09E0F9093DC01129F90011124DE
:102F800020503C4FE20FF32FF11DB8CFA895809150
:102F90002105882309F44AC0E090200518E4E19E49
:102FA00070011124970120503C4F79018091200538
:102FB00090E00196837099278093200580912105E8
:102FC000815080932105D9018C91833279F56AE291
:102FD00070E0C9010E949F2C8C01009739F1019685
:102FE0000E94B908D82EF8011082C70101960E94EC
:102FF000D708D8121BC00E949204609354027093A9
:103000005502809356029093570281E080935802B4
:1030100097012E5F3F4FD70111969C91983409F488
:10302000A4C20CF084C2933409F4C2C20E94920478
:103030002B013C018091500290915102A0915202CB
:10304000B091530293018201081B190B2A0B3B0B11
:10305000D901C801853F9140A105B10580F043EA3F
:1030600053E067EC73E088E896E00E946F0A4092B4
:10307000500250925102609252027092530280911B
:103080004C0290914D02A0914E02B0914F02A301CB
:103090009201281B390B4A0B5B0BDA01C9018536FB
:1030A0009105A105B10508F41FC18091850688230B
:1030B00009F46EC081E0809324058DE1809346057C
:1030C000109225051092470561E081E396E00E9489
:1030D000140880E00E9480068091870666E070E018
:1030E000811102C063E070E08DE190E00E948C09E4
:1030F000AE014F5F5F4F6A017E0157E0E50EF11CA4
:1031000081E396E00E94D407B82ED6018C931196E5
:103110009C93B2E0CB0ED11C8091870686010250B1
:103120001109882309F40CC581E396E00E94D407B5
:10313000C457DF4FB882CC58D040C557DF4F1882F4
:10314000CB58D040C557DF4FE881F981CB58D040EC
:103150008E2B9F2B26E0959587952A95E1F7D80130
:103160008D939C9389819A819093EC038093EB03D8
:103170008B819C819093EE038093ED038D819E81E2
:103180009093F0038093EF03EC14FD0409F0B8CFA3
:103190006091EB037091EC03072E000C880B990BE8
:1031A0000E949026AB01BC018DE696E00E949E0431
:1031B0006B017C01C0924802D0924902E0924A021F
:1031C000F0924B026091ED037091EE03072E000C1C
:1031D000880B990B0E949026AB01BC0185E596E017
:1031E0000E949E044B015C01809244029092450231
:1031F000A0924602B09247026091EF037091F003F3
:10320000072E000C880B990B0E949026AB01BC0185
:103210008DE396E00E949E049B01AC010E94EF2684
:10322000C158DF4F688379838A839B83CF57D0400F
:10323000A5019401C501B4010E94EF26C158DF4FDA
:10324000288139814A815B81CF57D0400E9415285F
:103250000E94D5299B01AC01C701B6010E949428A8
:103260002EEB3EE245E652E40E94EF266093F10326
:103270007093F2038093F3039093F403A7019601F4
:10328000C701B6010E94EF26C158DF4F288139815E
:103290004A815B81CF57D0400E9415280E94D529D2
:1032A0009B01AC01C501B4010E9494282EEB3EE2C3
:1032B00045E652E40E94EF266093F5037093F6030F
:1032C0008093F7039093F803809143028F5F8430DB
:1032D00008F03DC48093430240924C0250924D024C
:1032E00060924E0270924F020E9492046B017C0128
:1032F00080915E02882311F180915A0290915B02C5
:10330000A0915C02B0915D02A7019601281B390BC8
:103310004A0B5B0BDA01C901803D9740A105B1055D
:1033200068F010925E0280915902882339F00E9461
:103330002B0E882319F081E08093FF038091FF0317
:10334000811131C080915E0281110C94DB2180914A
:103350005902882311F40C94DB21809158028823B0
:1033600011F40C94DB218091540290915502A091AC
:103370005602B0915702C81AD90AEA0AFB0A40E479
:10338000C4164FE1D406E104F10410F40C94DB21DF
:10339000109258020E942B0E882311F40C94DB210A
:1033A00081E08093FF030E9492044B015C010E9424
:1033B00074089091A103891709F4FEC38093A103B7
:1033C00080929D0390929E03A0929F03B092A003CF
:1033D00080919A0390919B03909399038093980313
:1033E000CA57DF4F1882C658D040C158DF4F1882E5
:1033F000CF57D04010E0CC57DF4F1882C458D04090
:1034000080919703CA57DF4F0881C658D0400817EC
:1034100010F00C94D9210E94900DC857DF4F88837B
:10342000C858D040CD57DF4F1882C358D04001E074
:10343000EC960FAFEC9785E0D82EC857DF4F088188
:10344000C858D040CD57DF4F2881C358D04002170D
:1034500009F4E4C40E94900DC757DF4F8883C95810
:10346000D040EE961FAEEE97C12CC757DF4F0881B4
:10347000C958D040EE962FADEE97021709F4BFC49D
:1034800080910101823008F4B0C30E94900DC957A9
:10349000DF4F8883C758D040EC960FADEC97CB57E1
:1034A000DF4F1882C558D040CB57DF4F2881C55811
:1034B000D040C957DF4F3881C758D040231709F48F
:1034C00093C40E94900D782E8AEF870D823008F009
:1034D00005C40E94900DE82EF12C0E94900DF82A50
:1034E000CC57DF4F4881C458D04020E0483128F401
:1034F000CC57DF4F2881C458D040CC57DF4F58817C
:10350000C458D0405F5FCC57DF4F5883C458D04079
:1035100030E086E0D29EF001D39EF00D1124E15EF2
:10352000FC4F7812A6C3011167C31082A6C3903561
:1035300029F1923509F07ACDC9010E942623693814
:10354000B3E17B078105910524F068E873E180E031
:1035500090E0DC01CB01B7FF03C080E090E0DC012C
:10356000909303018093020161CD10923E0210926C
:10357000FF0310925E020E941D0C58CDC9010E94EB
:10358000B90890913E02992349F090913D02891328
:1035900005C085E292E00E94DC0B48CDE12CF12CC5
:1035A000870120E050E040E06BE40E94E90C3ECD52
:1035B000C9010E94B908D82EC70104960E94B90813
:1035C000182FE6E0EE0EF11C80913E02882321F0D8
:1035D00080913D02D816E9F288E0D1011D928A95CA
:1035E000E9F780EC810F873020F01092FF031092F2
:1035F0005E02EFEFE10FE53408F09BC2F0E0ED5F13
:10360000F44E0C94A72A481B991D991D991D991DCC
:10361000991D991D991D991D991D991D991D991DFA
:10362000991D991D4D1B541B831BA91BF51B391C90
:103630004B1C651C991D991D991D991D991D991D5E
:10364000991D991D731C731C4A1B991D991D991D69
:10365000991D991D991D991D991D991D991D991DBA
:10366000991D991DB61CD11CDE1CE61CE81CEA1C29
:10367000EC1CF11CF61C991D991D991D991D991D95
:10368000991D991DFB1C051D6C1D791D001D821DBA
:103690000E94C00B0E94650A66C10E94C00B80E0B8
:1036A00090E0DC0120E077C142E0B101C7010E9457
:1036B000DD0E823048F4E12CF12C870120E041E05E
:1036C00050E065E48D2D71CFD1011296ED91FC9102
:1036D00013978D919C918830910508F7E530F1059D
:1036E000F0F6E152FE4F27E030E0281B390B81E075
:1036F00090E08C0102C0000F111F2A95E2F7808133
:10370000802B8083CCCF42E0B101C7010E94DD0E47
:10371000823088F2D1011296ED91FC9113978D9130
:103720009C918830910508F0BACFE530F10508F09A
:10373000B6CFE152FE4F27E030E0281B390B81E085
:1037400090E001C0880F2A95EAF78095908189233F
:10375000D8CF44E0B101C7010E94DD0E843008F4E7
:10376000AACFF101048115810280F381E02DD101FE
:103770008D919C9111974801881A990A16962D915E
:103780003C912E1B3F0B220F331FB9016819790999
:10379000880C991C47E050E0481B590BAA24A394BD
:1037A000B12C081719070CF47ACF8830910588F4EA
:1037B000E530F10570F4DF01A152BE4F7D01CC90E0
:1037C000D501042E01C0AA0F0A94EAF7CA2AD7012C
:1037D000CC92161617061CF4319668197909620FF7
:1037E000731F019641505109DCCF1A8219821C8245
:1037F0001B821E821D82E114F10449F1F701019040
:103800000020E9F731978F010E191F09B8016F5F8A
:103810007F4F90E080E00E94D22B009771F09A8356
:1038200089831C830B832D813E81232BE1F01E8332
:103830000D83B7010E94AA2C0AC089819A81009742
:10384000A9F41A8219821E821D821C821B82CE015B
:1038500001960E94150989819A81009709F41FCF6A
:103860000E94492B1CCFFC011082E1CF0E94492B02
:10387000E8CF41E0B101C7010E94DD0E882309F4C1
:103880001ACF0E94C00B40E0D1016C918AE192E016
:103890000E941E0F04CFF70101900020E9F7BF013D
:1038A000615071096E197F09CB010197853491052B
:1038B00008F0F5CEF701E60FF71F80E28083118252
:1038C00041E0C7010E94B30FEACE41E0B101C70158
:1038D0000E94DD0E882309F4EECED1018D919C91DA
:1038E0000E944010DCCE44E0B101C7010E94DD0E11
:1038F000843008F4E0CEF1010081103211F40E940E
:10390000650A03FF0DC0D10116962C9116971496E7
:103910004C91149712966C9190E080E00E94840183
:1039200002FF08C0F10126814481628181E090E0BC
:103930000E94840101FF0DC0D10116962C911697AB
:1039400014964C91149712966C9182E090E00E942C
:10395000840100FF08C0F10126814481628183E077
:1039600090E00E9484010E948D0399CE20E030E017
:1039700048EC52E46091B7037091B8038091B903A9
:103980009091BA030E94EF260E946529CB01770F20
:10399000AA0BBB0B21E07C018D0150E040E06BE401
:1039A00091CE20E030E048EC52E46091DB0370916E
:1039B000DC038091DD039091DE03E4CF8EE00E9472
:1039C0005603092E000CAA0BBB0BE4CF8FE0F7CFF8
:1039D00080E1F5CF81E1F3CF8091EB039091EC038F
:1039E000F0CF8091ED039091EE03EBCF8091EF0348
:1039F0009091F003E6CF41E0B101C7010E94DD0ED6
:103A00001092FF0310925E024ACE6BE370E0C70192
:103A10000E949F2C8C01009709F44DCEDC011C9272
:103A2000C7010E9426232B017B01FE0131965F0115
:103A3000C12CD80111968C9111978823C9F0129648
:103A40008C908820A9F00E5F1F4FB8E2CB1681F052
:103A50000E946008982E882D0E946008C394E0E1BF
:103A60009E9E90011124822BD5018D935D01E1CFA3
:103A7000B0E14B0E511C4C0C511CE1E04E16E4E041
:103A80005E0618F58E010F5F1F4FC357DF4F288169
:103A90003981CD58D040E20EF31E802FEA963FAD1B
:103AA000EA97831B8C1508F0FACDD8016D918D0132
:103AB000C7018A0F9B1FE7969FAF8EAFE797CE0196
:103AC0008B589F4F0E94050FE8CFE12CF12C870106
:103AD00020E043E050E0F5CD0E942B0E8093590288
:103AE000E12CF12C870120E044E050E08111D7CD9A
:103AF000E8CD0E942B0E882309F4D1CD81E080937C
:103B0000FF03CDCD80E190E09A8389836FEFCE01F2
:103B100001960E94050F81E190E09A8389836FEFFF
:103B2000CE0101960E94050F1092FF0310925902D8
:103B3000B6CDE12CF12C870120E042E050E0C1CD70
:103B40008B2DBB0C990BF801918380830BCB1092CA
:103B5000430220913F023091400240914102509136
:103B60004202C701B6010E941428C0923F02D092BF
:103B70004002E0924102F09242026B017C01E89423
:103B8000F7F820E030E048E452E4C701B6010E94B3
:103B9000C229181644F4C701B6010E946529ED96A2
:103BA0007FAF6EAFED97ED960EAD1FADED97109315
:103BB000FA030093F90390CB40919D0350919E032B
:103BC00060919F037091A00395018401041B150B64
:103BD000260B370BB901A8014E315105610571055E
:103BE00008F4F6CB80939C03F3CB01E0C957DF4F79
:103BF0000883C758D04050CC418152816381748181
:103C0000452B462B472B21F481829282A382B482DA
:103C1000D29EF001D39EF00D1124E15EFC4F418154
:103C2000528163817481D501C401841B950BA60B5D
:103C3000B70BAC01BD01C701B0E0A0E048175907C0
:103C40006A077B0710F091E09083D29EF001D39E2B
:103C5000F00D1124E15EFC4F0081CB57DF4F5881FE
:103C6000C558D0405F5FCB57DF4F5883C558D04011
:103C70001BCC002339F0A1E0A083118212821382B1
:103C80001482E3CF4081442301F341815281638157
:103C90007481452B462B472B21F481829282A3828B
:103CA000B482D29EF001D39EF00D1124E15EFC4F50
:103CB0004181528163817481D501C401841B950BBC
:103CC000A60BB70BAC01BD01C701B0E0A0E04817DF
:103CD00059076A077B0708F4B8CF27CC91E079121F
:103CE0000AC00E94900D0E94EB08282F002309F4BF
:103CF000B4CF022FB2CFA2E07A1207C00E94900D7B
:103D00000E94EB0821E02827F1CF8DEF870D82304C
:103D1000E8F40E94900D0E94EB08E0E0103408F4F3
:103D2000E12FF0E0E152FD4F908180831F5FB3E00F
:103D30007B1207C0882319F0992309F48ECF00E085
:103D40008CCF8111FCCF911188CFF9CFE5E07E12A5
:103D5000F6CF0E949D0D2B013C010E94900DF82E84
:103D60000E949D0DF2E0FF1641F1FF1538F021E0B1
:103D7000FF20A1F0F216C9F020E0B8CF34E0F3162E
:103D800061F1F31610F145E0F412F6CF21E046168A
:103D900057066806790609F0A9CFEECF64157505B8
:103DA000860597050CF4A2CFE7CF21E0461657060B
:103DB000680679060CF49ACFDFCF21E04616570645
:103DC000680679060CF092CFD7CF21E0641575050F
:103DD000860597050CF08ACFCFCF21E0461657060F
:103DE0006806790649F682CFC1100C2DEE968FAD8C
:103DF000EE978F5FEE968FAFEE97C02E36CBCD57F6
:103E0000DF4F0881C358D0400F5FCD57DF4F088385
:103E1000C358D040EC96CFAEEC970FCB0E94900DDC
:103E2000C857DF4F8883C858D040CD57DF4F18821E
:103E3000C358D040C857DF4F0881C858D040CD572D
:103E4000DF4F2881C358D040021709F4A5C20E9451
:103E5000900D803109F06CC00E94900D082F0E94D7
:103E6000900DF82E002361F1013071F4EC963FAD16
:103E7000EC97032780EF8F0DEF2D803128F5F0E0D0
:103E8000E154FD4F008307C0023089F4EC960FAD7A
:103E9000EC97011115C0CD57DF4F0881C358D040B2
:103EA0000F5FCD57DF4F0883C358D040C3CF0330D7
:103EB00091F7EC960FADEC97002369F300E0DACFB1
:103EC000EC960FADEC97D6CFEF70F0E0E154FD4FDC
:103ED0008081081701F30083002341F108ECF3FE11
:103EE00007C020E0402F60E090E080E00E94840165
:103EF000F2FE07C020E0402F60E081E090E00E94E9
:103F00008401F1FE07C020E0402F60E082E090E0F5
:103F10000E948401F0FE07C020E0402F60E083E0B3
:103F200090E00E9484010E948D03B5CF00E0D7CFBE
:103F3000813109F04FC00E94900D082F0E94900D12
:103F4000EE968FAFEE970E949D0D6B017C010E9453
:103F50009D0D2B013C01EC962FADEC97222309F42B
:103F60009ACF013099F4C40CD51CE61CF71CEE96D0
:103F70000FADEE97077034E0039FF0011124E15676
:103F8000FD4FC082D182E282F38285CF023029F4D4
:103F9000C418D508E608F708EACF033039F4A701BA
:103FA00096010E942E2A6B017C01E1CF0430F9F6C4
:103FB000411451046104710449F0C701B601A30121
:103FC00092010E94882A69017A01D1CFC12CD12C9B
:103FD0007601CDCF823151F50E94900DA0E01034D2
:103FE00008F4A12FB0E0A152BD4FEC960FADEC97B5
:103FF0000023B1F09C91911113C0877024E0829F3F
:10400000F0011124E156FD4F40815181628173819D
:104010004F5F5F4F6F4F7F4F408351836283738346
:10402000EC960FADEC970C931F5F35CF833109F001
:104030007BC00E949D0D2B013C01C12C103408F463
:10404000C12ED12CC158DF4F0881CF57D040E12C71
:10405000083028F4C158DF4FE880CF57D040C1580E
:10406000DF4F0881CF57D0400F5FC158DF4F088323
:10407000CF57D040960121523D4F6901EC960FADCC
:10408000EC97D901002309F489C08C91B4E0EB9E30
:1040900070011124811114C0C2010E944010F70167
:1040A000E158FD4F4082518262827382F701E15AEA
:1040B000FD4F80829182A282B382E1E0D6016BC083
:1040C000F701E158FD4FEF96FFAFEEAFEF9780811C
:1040D0009181A281B381481659066A067B0669F36D
:1040E0009701215A3D4F7901F90180819181A28187
:1040F000B381A5019401281B390B4A0B5B0BDA0134
:10410000C901843F9140A105B105B8F2C2010E94E6
:104110004010EF96AEADBFADEF974D925D926D92B0
:104120007C921397F701C5CF8431D1F50E94900D91
:10413000C82ED12C00E0E02EF12CCD1471F00E949D
:10414000900D073140F40F5FE1E0F0E0EC0FFD1F50
:10415000EE0DFF1D8083D394EECFE1E0F0E0EC0F95
:10416000FD1FEE0DFF1D1082E12C103408F4E12E2E
:10417000F12CF701E152FD4F7F01EC960FADEC976A
:10418000002359F08081811104C0CE0101960E9464
:104190003310E1E0D701EC9347CFDF011C9244CF0D
:1041A000853109F078CE0E949D0D2B013C010E94C3
:1041B000900DCB57DF4F8883C558D040D12CC957BD
:1041C000DF4F1882C758D04000E0E82FF0E0C75713
:1041D000DF4FF983E883C958D040E02EF12CCB574C
:1041E000DF4F2881C558D040D21608F06DC00E941C
:1041F000900DEE968FAFEE97CC24C394CD0CC9579B
:10420000DF4F3881C758D04031114DC0853209F099
:104210004AC08D2D90E00196C757DF4F48815981E4
:10422000C958D04084179507F4F50E94900D863741
:10423000F9F42AE0A101C301B2010E948223D10155
:10424000E1E0F0E0EC0FFD1FEE0DFF1D8D918823E6
:1042500029F0073118F40F5F8193F8CF51E0C95767
:10426000DF4F5883C758D040DD24D394DC0CB5CF42
:104270000731D0F7E1E0F0E0EC0FFD1FEE0DFF1D80
:10428000EE969FADEE97908391E0900FE92FF0E0CE
:104290009731C1F00E5FA1E0B0E0AC0FBD1FEA0F97
:1042A000FB1F8083E1CF073158F40F5FE1E0F0E0BE
:1042B000EC0FFD1FEE0DFF1DEE96BFADEE97B08328
:1042C000CD2CD2CF07E1D0CFE1E0F0E0EC0FFD1F25
:1042D000EE0DFF1D1082C12C103408F4C12ED12C1C
:1042E000C158DF4F0881CF57D040E12C083028F467
:1042F000C158DF4FE880CF57D040C158DF4F088109
:10430000CF57D0400F5FC158DF4F0883CF57D04001
:10431000960121523D4F6901EC960FADEC97D90102
:10432000002309F43BCF8C91B4E0EB9E7001112483
:10433000811105C0CE0101960E943310B0CEF70165
:10434000E158FD4FEF96FFAFEEAFEF97808191817F
:10435000A281B381481659066A067B0609F4ADCEE0
:104360009701215A3D4F7901F90180819181A28104
:10437000B381A5019401281B390B4A0B5B0BDA01B1
:10438000C901843F9140A105B10508F496CECE0144
:1043900001960E943310BDCECA57DF4F0881C65820
:1043A000D0400F5FCA57DF4F0883C658D0400C94E7
:1043B000001A1092000100910201109103010115F1
:1043C000110509F4EBC00E949204C090FB03D09049
:1043D000FC03E090FD03F090FE039B01AC012C195F
:1043E0003D094E095F0969017A0130E020E0C016FD
:1043F000D106E206F30608F4D1C06093FB03709384
:10440000FC038093FD039093FE030E947408EC96D6
:104410008FAFEC978091A20311E3811101C010E3EB
:104420000091F903C158DF4F0883CF57D040009166
:10443000FA03CC57DF4F0883C458D0406091F5038E
:104440007091F6038091F7039091F8030E9465291B
:10445000562E472E6091F1037091F2038091F30381
:104460009091F4030E946529762E672E9090EF03B9
:104470008090F003B090ED03A090EE030091EB0369
:10448000CA57DF4F0883C658D0400091EC03CD5780
:10449000DF4F0883C358D04081E10E945603D82ED5
:1044A000C92E80E10E945603F82EE92E8FE00E946B
:1044B0005603EE968FAFEE97092F8EE00E945603BB
:1044C0001F92EC962FADEC972F931F921F93CC5712
:1044D000DF4F1881C458D0401F93C158DF4F188157
:1044E000CF57D0401F934F925F926F927F928F92DF
:1044F0009F92AF92BF92CD57DF4F1881C358D040E3
:104500001F93CA57DF4F1881C658D0401F93CF92D0
:10451000DF92EF92FF920F93EE960FADEE970F930F
:104520009F938F9320E030E048EC52E46091DB03EE
:104530007091DC038091DD039091DE030E94EF26F1
:104540000E9465297F936F9320E030E048EC52E4AD
:104550006091B7037091B8038091B9039091BA0349
:104560000E94EF260E9465297F936F9384E492E076
:104570009F938F931F9288E68F9321E030E02C0F5A
:104580003D1F3F932F930E94D0230FB6F894DEBFB8
:104590000FBECDBFCE0101960E94DC0B80E090E003
:1045A000892B11F40C9460170E943602882311F4B1
:1045B0000C9460170E9400000C946017809196067E
:1045C00090919706009739F0DC01ED91FC91028003
:1045D000F381E02D099580919806909199060097B6
:1045E00039F0DC01ED91FC910280F381E02D099519
:1045F0008091A3069091A4060E94492B8091A00669
:104600009091A10697FD03C060E00C9425030895E6
:10461000FC0188279927E89421912032E9F3293079
:1046200010F02E30C8F32B3241F02D3239F468945B
:1046300004C00E94A623820F911D219120532A308D
:10464000C0F31EF4909581959F4F08951F93FC0130
:1046500099278827BC01E89411911032E9F31930A9
:1046600010F01E30C8F31B3251F01D3249F468942B
:1046700006C00E949123610F711D811D911D119132
:1046800010531A30B0F33EF4909580957095619573
:104690007F4F8F4F9F4F1F910895FB01DC0102C098
:1046A00005900D9241505040D8F7089540EB56E0E8
:1046B0000E945B230895FA01A191B081009719F43B
:1046C0001097E1F0CD01DC01CD010D90002011F437
:1046D000C00113C0FB012191222319F02015D9F745
:1046E000F3CFFB012191201519F41E92119606C0FB
:1046F0002223C1F70D900020A1F7D001FA01A19368
:10470000B0830895BB272A3051F4992342F4BDE2C7
:1047100090958095709561957F4F8F4F9F4F0C942A
:10472000AF23592F482F372F262F660F771F881F4B
:10473000991F660F771F881F991F620F731F841FB1
:10474000951F660F771F881F991F08957AE0979F1E
:10475000902D879F802D910D11240895BB27FA017C
:10476000A62F6217710581059105330B30FB66F0AA
:10477000AA27660F771F881F991FAA1FA21710F07C
:10478000A21B63953850A9F7A05DAA3308F0A95D74
:10479000A19336F7B111B1931082CA010C94F025A0
:1047A000AEE0B0E0E6EDF3E20C94DC270D891E8963
:1047B0008F89988D2EE02C831A83098397FF02C07E
:1047C00080E090E801979E838D83AE01455E5F4F48
:1047D000698D7A8DCE0101960E9400244D815E8103
:1047E00057FD0AC02F813885421753070CF49A01F0
:1047F000020F131FF80110822E96E4E00C94F827A4
:10480000ABE0B0E0E6E0F4E20C94CE277C013B01A3
:104810008A01FC0117821682838181FFC8C1CE0103
:1048200001965C01F7019381F30193FD859193FF5C
:1048300081913F01882309F453C1853239F493FDF6
:10484000859193FF81913F01853229F4B70190E072
:104850000E940026E7CF912C212C312CFFE1F3158B
:1048600038F08B3211F190F4803209F1833229F162
:1048700037FC3CC020ED280F2A3050F536FE20C012
:104880008AE0989E200D1124922E06C08D3291F060
:10489000803371F7689430F8F30193FD859193FFAD
:1048A00081913F018111DACF21C0689431F8689479
:1048B00032F8F2CF689433F8EFCF689434F8ECCF45
:1048C000EAE02E9E200D1124222E689435F8E4CFC4
:1048D0008E3229F436FC04C1689436F8DDCF8C366C
:1048E00019F4689437F8D8CF8836B1F2982F9F7DA5
:1048F00095549330E0F08336A1F18337C1F18335CD
:1049000009F063C02801F2E04F0E511CF801C0808D
:10491000D180692D70E036FC02C06FEF7FEFC601D9
:104920000E94DA254C01689437F882010AC00C5FB6
:104930001F4FFFE3F98388248394912C6501E89449
:1049400037F833FE2DC0522C8114910471F5552097
:1049500009F468CFB70180E290E00E9400265A94E3
:10496000F6CFF801808189830E5F1F4FE4CF2801C5
:10497000F2E04F0E511CF801C080D180692D70E02B
:1049800036FC02C06FEF7FEFC6010E94E5254C01A7
:104990008201D5CFB70180E290E00E9400262A94E0
:1049A0002814190409F0B0F7CECFF60137FC859131
:1049B00037FE81916F01B70190E00E9400265110EF
:1049C0005A94F1E08F1A9108BFCF843619F08936D6
:1049D00009F077C0F80137FE6BC060817181828178
:1049E00093810C5F1F4FF32DFF763F2E97FF09C079
:1049F00090958095709561957F4F8F4F9F4F6894EC
:104A000037F82AE030E0A5010E943026C82ECA18E7
:104A10008C2C432C36FE0CC0E89440F8C91440F4AA
:104A200034FE05C032FC03C0F32DFE7E4F2E892CD0
:104A300044FE95C0FE01EC0DF11D8081803309F02C
:104A400087C0242D297E422E842D8870582E43FC49
:104A500095C040FE8FC09C2C821418F42C0C922C14
:104A6000981844FE91C0B70180E390E00E940026B0
:104A700042FE09C088E790E041FE02C088E590E070
:104A8000B7010E940026C91408F48AC0CA94D12C28
:104A90009FEFC91AD90ACA0CDB1CF60182916F017B
:104AA000B70190E00E940026AC14BD04B1F74FCFCF
:104AB00060817181072E000C880B990B0E5F1F4FD0
:104AC00092CFD32CE894D4F82AE030E0853739F13E
:104AD000232D297FD22E8F3601F148F48835A9F095
:104AE000F701868197812B96E2E10C94EA278037C3
:104AF00049F08837A9F7D4FE02C06894D2F820E1C3
:104B000030E00DC06894D4F8F6CF34FE03C0822F95
:104B10008660D82E20E132E002C028E030E0F801C3
:104B2000D7FE0FC060817181828193810C5F1F4F1E
:104B3000A5010E943026C82ECA183D2CE89437F8EB
:104B400067CF6081718190E080E00E5F1F4FF0CFF2
:104B500042FC02C0839478CF8394839475CF842DD4
:104B6000867809F471CFF6CFB70180E290E00E9419
:104B7000002683948214C0F3512C73CF522C581802
:104B8000821408F46ECFF8CF842D867809F47BCF99
:104B90008BE241FE80E247FC8DE2B70190E071CFED
:104BA000B70180E390E00E9400269A946CCF8FEFCB
:104BB0009FEF99CFFC010590615070400110D8F72C
:104BC000809590958E0F9F1F0895FC016150704055
:104BD00001900110D8F7809590958E0F9F1F089532
:104BE000DC01FC01672F71917723E1F7329704C054
:104BF0007C916D9370836291AE17BF07C8F30895DF
:104C00000F931F93CF93DF93182F092FEB018B8105
:104C100081FD09C01FEF0FEF812F902FDF91CF9102
:104C20001F910F91089582FF14C02E813F818C81C6
:104C30009D81281739073CF4E881F981CF0101965D
:104C40009983888310838E819F8101969F838E83B1
:104C5000E3CFE885F985812F0995892BA1F3DACF78
:104C6000FA01AA27283051F1203181F1E8946F939D
:104C70006E7F6E5F7F4F8F4F9F4FAF4FB1E03ED043
:104C8000B4E03CD0670F781F891F9A1FA11D680FE1
:104C9000791F8A1F911DA11D6A0F711D811D911D14
:104CA000A11D20D009F468943F912AE0269F112489
:104CB0003019305D3193DEF6CF010895462F4770ED
:104CC000405D4193B3E00FD0C9F7F6CF462F4F7048
:104CD000405D4A3318F0495D31FD4052419302D0A6
:104CE000A9F7EACFB4E0A69597958795779567954C
:104CF000BA95C9F700976105710508959B01AC014C
:104D00000A2E06945795479537952795BA95C9F772
:104D1000620F731F841F951FA01D0895E89409C09A
:104D200097FB3EF490958095709561957F4F8F4FDE
:104D30009F4F9923A9F0F92F96E9BB279395F695F4
:104D4000879577956795B795F111F8CFFAF4BB0F72
:104D500011F460FF1BC06F5F7F4F8F4F9F4F16C0D6
:104D6000882311F096E911C0772321F09EE8872F60
:104D7000762F05C0662371F096E8862F70E060E01C
:104D80002AF09A95660F771F881FDAF7880F969595
:104D9000879597F90895990F0008550FAA0BE0E839
:104DA000FEEF16161706E807F907C0F012161306ED
:104DB000E407F50798F0621B730B840B950B39F42D
:104DC0000A2661F0232B242B252B21F408950A2693
:104DD00009F4A140A6958FEF811D811D08950E94C1
:104DE00002270C9473270E94652738F00E946C27D5
:104DF00020F0952311F00C945C270C946227112469
:104E00000C94A7270E94842770F3959FC1F3950FF8
:104E100050E0551F629FF001729FBB27F00DB11D3E
:104E2000639FAA27F00DB11DAA1F649F6627B00DCE
:104E3000A11D661F829F2227B00DA11D621F739FB7
:104E4000B00DA11D621F839FA00D611D221F749FC5
:104E50003327A00D611D231F849F600D211D822F0C
:104E6000762F6A2F11249F5750409AF0F1F0882333
:104E70004AF0EE0FFF1FBB1F661F771F881F915060
:104E80005040A9F79E3F510580F00C945C270C948C
:104E9000A7275F3FE4F3983ED4F38695779567950F
:104EA000B795F795E7959F5FC1F7FE2B880F911D8A
:104EB0009695879597F9089597F99F6780E870E030
:104EC00060E008959FEF80EC089500240A94161680
:104ED000170618060906089500240A9412161306E8
:104EE000140605060895092E0394000C11F4882376
:104EF00052F0BB0F40F4BF2B11F460FF04C06F5F92
:104F00007F4F8F4F9F4F089557FD9058440F551F67
:104F100059F05F3F71F04795880F97FB991F61F03B
:104F20009F3F79F087950895121613061406551FB2
:104F3000F2CF4695F1DF08C0161617061806991F1E
:104F4000F1CF86957105610508940895E894BB2713
:104F500066277727CB0197F90895F999FECF92BD7F
:104F600081BDF89A992780B50895262FF999FECF2B
:104F70001FBA92BD81BD20BD0FB6F894FA9AF99A76
:104F80000FBE019608950E940528A59F900DB49F1D
:104F9000900DA49F800D911D112408952F923F9292
:104FA0004F925F926F927F928F929F92AF92BF9239
:104FB000CF92DF92EF92FF920F931F93CF93DF93E5
:104FC000CDB7DEB7CA1BDB0B0FB6F894DEBF0FBE42
:104FD000CDBF09942A88398848885F846E847D848F
:104FE0008C849B84AA84B984C884DF80EE80FD8091
:104FF0000C811B81AA81B981CE0FD11D0FB6F89407
:10500000DEBF0FBECDBFED010895A29FB001B39FDB
:10501000C001A39F700D811D1124911DB29F700DC1
:10502000811D1124911D08955058BB27AA270E9465
:105030002C280C9473270E94652738F00E946C2757
:1050400020F039F49F3F19F426F40C9462270EF4F3
:10505000E095E7FB0C945C27E92F0E94842758F326
:10506000BA17620773078407950720F079F4A6F54D
:105070000C94A6270EF4E0950B2EBA2FA02D0B0151
:10508000B90190010C01CA01A0011124FF27591B8D
:1050900099F0593F50F4503E68F11A16F040A22F93
:1050A000232F342F4427585FF3CF46953795279504
:1050B000A795F0405395C9F77EF41F16BA0B620B03
:1050C000730B840BBAF09150A1F0FF0FBB1F661F4A
:1050D000771F881FC2F70EC0BA0F621F731F841F8D
:1050E00048F4879577956795B795F7959E3F08F0B3
:1050F000B0CF9395880F08F09927EE0F9795879575
:1051000008950E94652760F080E891E009F49EEF21
:105110000E946C2728F040E851E071F45EEF0CC06B
:105120000C9462270C94A627E92FE0780E9484272C
:1051300040F3092E052AB1F3261737074807590708
:1051400038F00E2E07F8E02569F0E025E0640AC08B
:10515000EF6307F8009407FADB01B9019D01DC0158
:10516000CA01AD01EF930E940A290E9473270E9491
:10517000C4285F91552339F02BED3FE049E450FD01
:1051800049EC0C9415280895DF93DD27B92FBF77DC
:1051900040E85FE31616170648075B0718F4D92F97
:1051A0000E94C7299F938F937F936F930E94152A24
:1051B000E8E6F0E00E949B290E9473272F913F911F
:1051C0004F915F910E940227DD2351F09058A2EA8F
:1051D0002AED3FE049EC5FE3D0785D270E942C2860
:1051E000DF910C9473270E9407290C9473270E9467
:1051F0006C2758F00E94652740F029F45F3F29F0A2
:105200000C945C2751110C94A7270C9462270E94E0
:10521000842768F39923B1F3552391F3951B550B1C
:10522000BB27AA2762177307840738F09F5F5F4F79
:10523000220F331F441FAA1FA9F335D00E2E3AF0B8
:10524000E0E832D091505040E695001CCAF72BD0D0
:10525000FE2F29D0660F771F881FBB1F2617370721
:105260004807AB07B0E809F0BB0B802DBF01FF2753
:1052700093585F4F3AF09E3F510578F00C945C27AD
:105280000C94A7275F3FE4F3983ED4F38695779577
:105290006795B795F7959F5FC9F7880F911D96950C
:1052A000879597F90895E1E0660F771F881FBB1F68
:1052B000621773078407BA0720F0621B730B840B15
:1052C000BA0BEE1F88F7E09508950E946C29689448
:1052D000B1110C94A72708950E948C2788F09F573E
:1052E00098F0B92F9927B751B0F0E1F0660F771F0A
:1052F000881F991F1AF0BA95C9F714C0B13091F000
:105300000E94A627B1E008950C94A627672F782F56
:105310008827B85F39F0B93FCCF3869577956795C4
:10532000B395D9F73EF490958095709561957F4F30
:105330008F4F9F4F0895DF93CF931F930F93FF924B
:10534000EF92DF927B018C01689406C0DA2EEF01A8
:105350000E940227FE01E894A5912591359145917F
:105360005591A6F3EF010E942C28FE019701A80198
:10537000DA9469F7DF90EF90FF900F911F91CF9132
:10538000DF9108950E94CB2608F48FEF08959B01CA
:10539000AC0160E070E080E89FE30C94F32819F41E
:1053A00016F40C9462270C94192A0E948C27B8F3E7
:1053B0009923C9F3B6F39F57550B87FF0E94272AFD
:1053C0000024A0E640EA900180585695979528F46D
:1053D000805C660F771F881F20F026173707480765
:1053E00030F4621B730B840B202931294A2BA695BC
:1053F00017940794202531254A2758F7660F771F01
:10540000881F20F026173707480730F4620B730B0C
:10541000840B200D311D411DA09581F7B901842F0A
:105420009158880F9695879508959B01AC010C942F
:10543000EF269F3F31F0915020F48795779567953F
:10544000B795880F911D9695879597F90895915076
:105450005040660F771F881FD2F70895DB018F93A6
:105460009F930E94C327BF91AF91A29F800D911D72
:10547000A39F900DB29F900D11240895AA1BBB1BF2
:1054800051E107C0AA1FBB1FA617B70710F0A61B44
:10549000B70B881F991F5A95A9F780959095BC0165
:1054A000CD01089597FB072E16F4009407D077FDE1
:1054B00009D00E943E2A07FC05D03EF490958195C4
:1054C0009F4F0895709561957F4F0895A1E21A2E20
:1054D000AA1BBB1BFD010DC0AA1FBB1FEE1FFF1F98
:1054E000A217B307E407F50720F0A21BB30BE40BE8
:1054F000F50B661F771F881F991F1A9469F760952F
:105500007095809590959B01AC01BD01CF010895E8
:10551000052E97FB1EF400940E949F2A57FD07D08A
:105520000E94662A07FC03D04EF40C949F2A5095E3
:105530004095309521953F4F4F4F5F4F089590957F
:105540008095709561957F4F8F4F9F4F0895EE0F17
:10555000FF1F0590F491E02D09940F931F93CF93B3
:10556000DF938230910510F482E090E0E091B40680
:10557000F091B50630E020E0B0E0A0E0309799F47B
:105580002115310509F44AC0281B390B2430310597
:10559000D8F58A819B816115710589F1FB0193839F
:1055A0008283FE0111C0408151810281138148171D
:1055B0005907E0F04817590799F4109761F01296CF
:1055C0000C93129713961C933296CF01DF91CF91D3
:1055D0001F910F9108950093B4061093B506F4CF70
:1055E0002115310551F04217530738F0A901DB01AD
:1055F0009A01BD01DF01F801C1CFEF01F9CF90930E
:10560000B5068093B406CDCFFE01E20FF31F819360
:1056100091932250310939832883D7CF2091B20644
:105620003091B306232B41F42091060130910701FC
:105630003093B3062093B206209104013091050106
:105640002115310541F42DB73EB740910801509125
:105650000901241B350BE091B206F091B306E21765
:10566000F307A0F42E1B3F0B2817390778F0AC0185
:105670004E5F5F4F2417350748F04E0F5F1F509362
:10568000B3064093B206819391939FCFF0E0E0E0A0
:105690009CCFCF93DF930097E9F0FC013297138200
:1056A0001282A091B406B091B506ED0130E020E081
:1056B0001097A1F420813181820F931F2091B206AF
:1056C0003091B3062817390709F061C0F093B3068B
:1056D000E093B206DF91CF910895EA01CE17DF077C
:1056E000E8F54A815B819E0141155105B1F7E90159
:1056F000FB83EA8349915991C40FD51FEC17FD072D
:1057000061F4808191810296840F951FE90199834C
:105710008883828193819B838A83F0E0E0E0129604
:105720008D919C9113970097B9F52D913C9111970C
:10573000CD010296820F931F2091B2063091B306DD
:105740002817390739F6309751F51092B50610929F
:10575000B406B093B306A093B206BCCFD383C28382
:1057600040815181840F951FC817D90761F44E5F9E
:105770005F4F88819981480F591F518340838A81E7
:105780009B81938382832115310509F0B0CFF0937B
:10579000B506E093B4069ECFFD01DC01C0CF1382B5
:1057A0001282D7CFB0E0A0E0E8EDFBE20C94D02766
:1057B0008C01009751F4CB010E94AD2A8C01C801E5
:1057C000CDB7DEB7E0E10C94EC27FC01E60FF71F44
:1057D0009C0122503109E217F30708F49DC0D9015A
:1057E000CD91DC911197C617D70798F0C530D10538
:1057F00030F3CE0104978617970708F3C61BD70B23
:105800002297C193D1936D937C93CF010E94492B32
:10581000D6CF5B01AC1ABD0A4C018C0E9D1EA09127
:10582000B406B091B506512C412CF12CE12C109707
:1058300031F58091B2069091B3068815990509F06B
:105840005CC04616570608F058C08091040190913C
:105850000501009741F48DB79EB740910801509122
:105860000901841B950BE817F90708F055C0F09360
:10587000B306E093B206F90171836083A0CF8D91E6
:105880009C91119712966C90129713967C90139797
:10589000A815B90559F56C0142E0C40ED11CCA1413
:1058A000DB0420F1AC014A195B09DA011296159765
:1058B00080F06282738251834083D9016D937C931F
:1058C000E114F10471F0D7011396FC93EE93129753
:1058D00076CF22968C0F9D1FF90191838083F3016F
:1058E000EFCFF093B506E093B40669CF481659069A
:1058F00008F42C017D01D3019ACFCB010E94AD2A7F
:105900007C01009749F0AE01B8010E948F2CC801BC
:105910000E94492B870153CF10E000E050CFFB01DC
:10592000DC0102C001900D9241505040D8F708951B
:10593000DC0101C06D9341505040E0F70895FC0137
:105940008191861721F08823D9F7992708953197F7
:10595000CF010895FB01DC0101900D920020E1F7D9
:105960000895FB01DC014150504048F001900D9238
:105970000020C9F701C01D9241505040E0F7089542
:10598000AEE0B0E0E6ECFCE20C94DC270D891E8969
:105990008F89988D26E02C831A83098397FF02C094
:1059A00080E090E801979E838D83AE01455E5F4F56
:1059B000698D7A8DCE0101960E9400244D815E8111
:1059C00057FD0AC02F813885421753070CF49A01FE
:1059D000020F131FF80110822E96E4E00C94F827B2
:1059E00011E0C2E5D1E004C0FE010E94A72A219681
:0A59F000C335D107C9F7F894FFCFC3
:1059FA00010232000000B6062000AC3300000000AD
:105A0A00004005630A4105AD0B4F0C000000004041
:105A1A0005610A4105B70B9E0C000000006C02CC20
:105A2A0001F901B9022A0208021C0200000000144E
:105A3A0008E7075D08C4077D01D407C50741485434
:105A4A0078305F540041485478305F48003B002565
:065A5A00752E2575000009
:00000001FF
