:100000000C9448010C9470010C9470010C947001D4
:100010000C9470010C9470010C9470010C94100FEE
:100020000C9470010C9470010C9470010C9470018C
:100030000C9470010C9470010C9470010C9470017C
:100040000C94A70D0C9470010C94750D0C944F0D2D
:100050000C9470010C9470010C9470010C9470015C
:100060000C94F10D0C947001084AD73B3BCE016E05
:1000700084BCBFFDC12F3D6C74319ABD56833DDAFF
:100080003D00C77F11BED9E4BB4C3E916BAAAABE0E
:10009000000000803F0023353025640A0000000086
:1000A00000240027002A00000000080002010000D0
:1000B0000304070000000000000000233939253048
:1000C00032582530325825303258253032580A00FF
:1000D000076CFE7C38100700287C381003002400D1
:1000E000241803002C0024180342A5E74200030053
:1000F000E7E74200030000E7420023304125752571
:10010000752C25642C25642C25642C25642C2564F1
:100110002C25642C25632C25642C25642C25640A4D
:1001200000030040A0A0600380C0A0A040030060C6
:10013000808060032060A0A040030060A0C0600336
:1001400040A080C0800340A0602040038080C0A009
:10015000A001800080808002400040408003A0A079
:10016000C0A0A0028080808040050050A8A8A803FD
:1001700000C0A0A0A0030040A0A04004609090E0B8
:10018000800340A06020200400A050404003608015
:100190004020E00280C08080400300A0A0A0600357
:1001A00000A0A0A04005000088A850030000A040C7
:1001B000A003A0A06020400300E02080E003000036
:1001C0000000000180808000800400A0A0000007E3
:1001D00014FE28FC500400000000000400902040A1
:1001E0009005205068906802004040000002408066
:1001F000808040028040404080040060F060000346
:100200000040E04000010000008080030000E000AA
:10021000000100000000800400102040800340A086
:10022000A0A0400240C04040400340A02040E00366
:10023000C0204020C003204080E02003E080C02098
:10024000C0032040C0A04003E0204080800340A0C5
:1002500040A0400340A0E020C0010204081020405C
:100260008001020408102001020408102000000090
:1002700000250028002B00040404040404040402E4
:1002800002020202020303030303030038106C1985
:1002900011241FBECFEFD8E0DEBFCDBF25E0A2E620
:1002A000B1E001C01D92A932B207E1F711E0A0E070
:1002B000B1E0E2E0F5E402C005900D92A236B1078C
:1002C000D9F711E0C7E4D1E004C02197FE010E94F4
:1002D0002B20C634D107C9F70E9495110C947422C3
:1002E0000C94000080914D0390914E03891B990B53
:1002F0000895E0910F05F09110058E179F0798F56E
:1003000030911505332361F0639FB0011124672FED
:10031000349FA0011124452F329F90011124232FD7
:1003200030911B05E0911605F091170550911805C5
:1003300035131AC0DC01AA0FBB1F8A0F9B1F8E0F3B
:100340009F1FE0911805E80FF92FF11D6083E091E0
:100350001905E80FF92FF11D408330911A05830F1D
:10036000911DFC0120830895880F991F880F991F04
:100370008E0F9F1FFC01E30FF11D1082E2CF089545
:100380000895AF92BF92CF92DF92EF92FF920F93B8
:100390001F93CF93DF936C017B018B01040F151F1B
:1003A000EB015E01AE18BF08C017D10759F0699183
:1003B000D601ED91FC910190F081E02DC6010995E7
:1003C000892B79F7C501DF91CF911F910F91FF9094
:1003D000EF90DF90CF90BF90AF900895FC01538DC8
:1003E000448D252F30E0842F90E0821B930B54170F
:1003F00010F0CF96089501970895FC01918D828D9C
:10040000981761F0A28DAE0FBF2FB11D5D968C9134
:10041000928D9F5F9F73928F90E008958FEF9FEF73
:100420000895FC01918D828D981731F0828DE80F2F
:10043000F11D858D90E008958FEF9FEF0895FC01E9
:10044000918D228D892F90E0805C9F4F821B9109B6
:100450008F739927089587E094E00E941F0221E09E
:10046000892B09F420E0822F089580E090E0892B09
:1004700029F00E942B0281110C9400000895FC01C8
:10048000A48DA80FB92FB11DA35ABF4F2C91848DF5
:1004900090E001968F739927848FA689B7892C9352
:1004A000A089B1898C91837080648C93938D848DA5
:1004B000981306C00288F389E02D80818F7D8083A8
:1004C0000895EF92FF920F931F93CF93DF93EC0168
:1004D00081E0888F9B8D8C8D98131AC0E889F989EB
:1004E000808185FF15C09FB7F894EE89FF896083EE
:1004F000E889F98980818370806480839FBF81E06F
:1005000090E0DF91CF911F910F91FF90EF900895B0
:10051000F62E0B8D10E00F5F1F4F0F731127E02E8B
:100520008C8D8E110CC00FB607FCFACFE889F989C3
:10053000808185FFF5CFCE010E943F02F1CFEB8D88
:10054000EC0FFD2FF11DE35AFF4FF0829FB7F89497
:100550000B8FEA89FB8980818062CFCFCF93DF93B5
:10056000EC01888D8823B9F0AA89BB89E889F989CB
:100570008C9185FD03C0808186FD0DC00FB607FC00
:10058000F7CF8C9185FFF2CF808185FFEDCFCE0133
:100590000E943F02E9CFDF91CF91089590E0FC01E6
:1005A000E955FF4F2491FC01E75AFD4F3491FC01BE
:1005B000E958FD4FE491EE23C9F0222339F02330AE
:1005C00001F1A8F4213019F1223029F1F0E0EE0F09
:1005D000FF1FE359FD4FA591B4918FB7F894EC91AB
:1005E000611126C030953E233C938FBF089527307C
:1005F000A9F02830C9F0243049F7809180008F7D20
:1006000003C0809180008F7780938000DFCF84B516
:100610008F7784BDDBCF84B58F7DFBCF8091B00019
:100620008F778093B000D2CF8091B0008F7DF9CFCB
:100630003E2BDACFCF93DF9390E0FC01E75AFD4FDA
:10064000249189589D4FFC0184918823D1F090E03A
:10065000880F991FFC01E356FF4FA591B491FC014F
:10066000E359FD4FC591D49161110EC09FB7F89425
:100670008C91E22FE0958E238C932881E223E883EE
:100680009FBFDF91CF9108958FB7F894EC91E22B43
:10069000EC938FBFF6CF2091000190E4299F900149
:1006A00011248E50822B80937C0080917A0080648C
:1006B00080937A0080917A0086FDFCCF809178004B
:1006C0009091790008953FB7F8948091CA01909174
:1006D000CB01A091CC01B091CD0126B5A89B05C05E
:1006E0002F3F19F00196A11DB11D3FBFBA2FA92FB1
:1006F000982F8827BC01CD01620F711D811D911DAE
:1007000042E0660F771F881F991F4A95D1F7089519
:100710000F931F93CF93DF93CDB7DEB729970FB613
:10072000F894DEBF0FBECDBF8091160590911705DE
:10073000892B09F47CC00E94630300911C05109171
:100740001D0520911E0530911F0560177107820756
:10075000930740F460931C0570931D0580931E055C
:1007600090931F0500911C0510911D0520911E05F9
:1007700030911F05601B710B820B930B6C32714023
:1007800081059105C0F2F8948091110590911205B0
:100790009A838983E0911605F0911705DF01119680
:1007A0008081898790910D05E0912005F0912105C8
:1007B00080912205992309F445C09081982B988750
:1007C0009081809589238F838F818C8388E08B83B0
:1007D00058856F8149853B812C8189819A8150831D
:1007E00047FD252F3A952083262F39F0441F00C05E
:1007F00000006083000000C0F2CF38E04D916083BC
:100800000000019761F7F0932105E09320054987E7
:100810003B832C839A83898378940E94630360933B
:100820001C0570931D0580931E0590931F05299646
:100830000FB6F894DEBF0FBECDBFDF91CF911F91F1
:100840000F9108959081982B9887908180958923A6
:100850008F838F818E8388E08D8358856F81498552
:100860003D812E8189819A81508347FD252F00C0CB
:1008700000C0208300C000C000C000C000C0608372
:100880000000262F3A9541F0441F000000C000C030
:1008900000C000C000C0E8CF38E04D9100C06083C8
:1008A00000C0019709F7F0932105E09320054987DF
:1008B0003D832E83AFCF8F929F92AF92BF92CF9204
:1008C000DF92EF92FF924B015C010E9463036B0188
:1008D0007C010E9463036C197D098E099F09683EA3
:1008E000734081059105A8F321E0821A9108A108BF
:1008F000B10888EEC80E83E0D81EE11CF11C8114FB
:100900009104A104B10429F7FF90EF90DF90CF90FC
:10091000BF90AF909F908F9008952FB7F8946091FB
:10092000C6017091C7018091C8019091C9012FBF84
:1009300008954F925F926F927F928F929F92AF92A3
:10094000BF92CF92DF92EF92FF92CF93DF9300D0CE
:1009500000D000D0CDB7DEB79E838D836A017B01C6
:10096000DC0114968D919D910D90BC91A02D8983F1
:100970009A83AB83BC83ED81FE81208131814281EA
:100980005381BC01CD010E94FE1D9B01AC01698118
:100990007A818B819C810E94DC1E4B015C01AD81C0
:1009A000BE8154968D929D92AD92BC92579750966F
:1009B0004D905D906D907C905397A3019201C7017B
:1009C000B6010E94FD1DA50194010E94001DA30116
:1009D00092010E94FE1D6B017C01ED81FE81C486A7
:1009E000D586E686F786AC019B01C301B2010E9461
:1009F000FD1D9F77AD81BE8118962D913D914D9142
:100A00005C911B970E94001D2B013C01A5019401E4
:100A100060E070E080E89FE30E94FD1D29813A813B
:100A20004B815C810E94001D9B01AC01C301B2019E
:100A30000E94FE1DED81FE8164837583868397830A
:100A4000C08AD18AE28AF38AC701B60126960FB618
:100A5000F894DEBF0FBECDBFDF91CF91FF90EF9036
:100A6000DF90CF90BF90AF909F908F907F906F90CE
:100A70005F904F900895089508952091A201260F48
:100A80003327331F21323105ECF42091B903FC01E7
:100A900090E080E0243069F082E00895A091A20106
:100AA0002191AC014E575E4FA40FB52FB11D2C9371
:100AB0000196861798F38091A201680F6093A201B6
:100AC00080E0089581E008951092B90381E0809359
:100AD00098031092930361E082E10E94CE0261E0EC
:100AE00083E10E94CE02E9EBF0E080818E7F80837B
:100AF00080818D7F808388E48093B80085E4809333
:100B0000BC000895CF93DF9391E0909381018823F7
:100B1000B9F0C091B800D091BA008091BC008A7B36
:100B20008093BC0060E082E10E94CE0260E083E13D
:100B30000E94CE020E946405D093BA00C093B80010
:100B4000DF91CF9108958F929F92AF92BF92CF92F3
:100B5000DF92EF92FF920F931F93CF93DF93D82FE3
:100B6000C62F142F613208F09CC00E9463036B01F2
:100B70007C018091B90381116FC081E08093B9033A
:100B8000109398039FEF90939703109296039C0FF6
:100B9000909395038093940380919403DD0FD82B59
:100BA000D093940380919303813009F07CC010921C
:100BB00093030E9463036B017C01809194038093F3
:100BC000BB008091BB039091BC03A091BD03B09189
:100BD000BE03892B8A2B8B2BA1F00E94630300910B
:100BE000BB031091BC032091BD033091BE036C196F
:100BF0007D098E099F09061717072807390708F48A
:100C00004CC08091BC0083FDD8CF85EC8093BC00A4
:100C10000E9463036B017C018091B903813009F468
:100C200044C0809196038C1710F4C0919603E3E7BB
:100C3000F3E0A9E9B3E080E08C1359C08C2FDF9179
:100C4000CF911F910F91FF90EF90DF90CF90BF90C9
:100C5000AF909F908F9008958091BB039091BC03BB
:100C6000A091BD03B091BE03892B8A2B8B2B09F475
:100C700080CF0E9463038090BB039090BC03A09040
:100C8000BD03B090BE036C197D098E099F098616BD
:100C90009706A806B90608F06CCF8091BA030E94A7
:100CA0008205C0E0CBCF85EEB1CF8091BB039091A0
:100CB000BC03A091BD03B091BE03892B8A2B8B2B63
:100CC00009F4AACF0E9463030091BB031091BC03F7
:100CD0002091BD033091BE036C197D098E099F09D7
:100CE000061717072807390708F096CFD6CF919136
:100CF0009D938F5FA1CF8F929F92AF92BF92CF9221
:100D0000DF92EF92FF920F931F93CF93DF93D091D7
:100D10007203D13208F0D7C0182FC09171030E941E
:100D200063036B017C018091B90381116BC082E088
:100D30008093B903109398038FEF809397031092D9
:100D40009603D0939503A1E5B3E0E3E7F3E080E0F9
:100D5000D81391C01092940380919403CC0FC82BA8
:100D6000C093940380919303813009F088C010925E
:100D700093030E9463036B017C0180919403809331
:100D8000BB008091BB039091BC03A091BD03B091C7
:100D9000BE03892B8A2B8B2BA1F00E946303009149
:100DA000BB031091BC032091BD033091BE036C19AD
:100DB0007D098E099F09061717072807390708F4C8
:100DC00042C08091BC0083FDD8CF85EC8093BC00ED
:100DD0000E9463036B017C018091B903823009F4A6
:100DE00050C0809197038F3F09F46FC080919703A3
:100DF000803209F46CC080919703803309F469C094
:100E000084E026C08091BB039091BC03A091BD03F8
:100E1000B091BE03892B8A2B8B2B09F484CF0E94BF
:100E200063038090BB039090BC03A090BD03B0907F
:100E3000BE036C197D098E099F0986169706A806C0
:100E4000B90608F070CF8091BA030E94820585E050
:100E5000109250031092720310924F03DF91CF91C2
:100E60001F910F91FF90EF90DF90CF90BF90AF90C8
:100E70009F908F9008959D9191938F5F69CF85EE9C
:100E8000A5CF8091BB039091BC03A091BD03B0910D
:100E9000BE03892B8A2B8B2B09F49ECF0E94630300
:100EA0000091BB031091BC032091BD033091BE03A0
:100EB0006C197D098E099F0906171707280739073E
:100EC00008F08ACFC0CF81E0C3CF80E0C1CF82E0FD
:100ED000BFCF83E0BDCFCF93DF93EA01DC01119652
:100EE0008D919C91DC01ED91FC910280F381E02DCC
:100EF0000995C817D90729F481E00E947B0691E083
:100F0000811190E0892FDF91CF910895CF93DF93E6
:100F1000EC018B818823A1F0888191E090934F03AD
:100F200080937103109250031092720381E00E942B
:100F30007B0691E0811190E0892FDF91CF91089598
:100F400010924E0310924D031092500310927203B0
:100F50000E9464058FEB91E09093D3018093D201BE
:100F600080EC91E09093D5018093D40181E08B8354
:100F7000CE010E948607982F8111CECFDDCF089534
:100F8000E0914E0380914D03E81730F4F0E0E7560E
:100F9000FC4F808190E008958FEF9FEF089590912E
:100FA0004E0380914D032FEF3FEF981748F4E92F40
:100FB000F0E0E756FC4F208130E09F5F90934E03B6
:100FC000C9010895CF92DF92EF92FF920F931F9382
:100FD000CF93DF937C01CB018A0120914F03222321
:100FE00089F0EB016B01C40ED51ECC15DD0569F04F
:100FF0006991D701ED91FC910190F081E02DC7013D
:101000000995F3CF642F0E943D05C801DF91CF9170
:101010001F910F91FF90EF90DF90CF900895CF93A5
:10102000DF931F92CDB7DEB7698320914F03222350
:10103000F9F020917203203258F021E030E0FC01F9
:101040003383228390E080E00F90DF91CF91089569
:1010500080915003E82FF0E0EF5AFC4F9981908384
:101060008F5F809350038093720381E090E0ECCF18
:1010700061E0CE0101960E943D05F7CFCF93C62FC8
:1010800091E090934F039DE1909371031092500370
:1010900010927203682F84EA94E00E940F086C2F6C
:1010A00084EA94E00E940F0881E0CF910C947B06C3
:1010B00090E080E00895CF93DF9383E08093000178
:1010C0008EE00E944B038EE00E944B03EC0181E016
:1010D000809300018EE00E944B03CE01DF91CF91FF
:1010E00008950F931F93CF93DF93FC01C481D581A3
:1010F00008E611E041E050E070E060E06C177D0729
:1011000008F062C080819181009709F45DC0860F6C
:10111000971FDC018C9190ED980F9A3040F0982F3A
:101120009F7D8FEB890F9753863008F09FEF929544
:10113000907F4C175D0708F049C02081318121154F
:10114000310509F443C0240F351FD9013C9120ED2E
:10115000230F2A3040F0232F2F7D8FEB820F275350
:10116000863008F02FEF920FD8019D938D016E5FAE
:101170007F4F4E5F5F4F4B30510509F0BFCF8091DD
:1011800070008D7F80937000809168018093C1030F
:10119000809169018093C20380916A018093C303A7
:1011A00080916B018093C40380916C018093C5038F
:1011B0001092BF0380917000826080937000DF9175
:1011C000CF911F910F91089580E0A5CF30E0BFCF60
:1011D00041E00E94A30510924E0380934D030895B1
:1011E00091E090934F039DE190937103109250030F
:1011F00010927203682F84EA94E00E940F0880E046
:101200000E947B0661E070E08DE190E00E94E808BA
:1012100090914D0380914E03981729F084EA94E051
:101220000E94CF07089580E00895CF93DF93C82FE1
:10123000D62F8AE20E94F008C095C8236C2F6D2B30
:101240008AE2DF91CF910C943E088091F8048823C4
:1012500041F081E08093F9041092F8046EEF0C9451
:1012600015098091F904882349F01092F90461E08E
:1012700081E00E94150981E08093F80408956F923F
:101280007F928F929F92AF92BF92CF92DF92EF9216
:10129000FF920F931F93CF93DF936C013B017A0171
:1012A00010E000E0D60114968D919C91E701C01BDF
:1012B000D10B8C179D0708F4EC0141E0C7018C1B92
:1012C0009D0B0817190708F440E06C2FC13208F095
:1012D00060E2F60180810E94A30510924E03809384
:1012E0004D038C171D0679F54301800E911E5401A4
:1012F000C501881999098C179D0778F4D6011196B4
:101300008D919C91DC01ED91FC910284F385E02D9F
:101310000995F50181935F01EBCF0C0F1D1F0E1591
:101320001F0508F4BFCF81E0DF91CF911F910F918E
:10133000FF90EF90DF90CF90BF90AF909F908F90F5
:101340007F906F90089580E0EFCFCF93DF931F924F
:10135000CDB7DEB741E050E0BE016F5F7F4FFC01CB
:10136000848595850E943F09882329F089810F9003
:10137000DF91CF9108958FEFFACF0C94CD200C948C
:10138000CD204F925F926F927F92AF92BF92CF9299
:10139000DF92EF92FF920F931F93CF93DF93CDB71E
:1013A000DEB729970FB6F894DEBF0FBECDBF8C0114
:1013B0007B016A010E948D042B013C018091070191
:1013C00090910801A09109018F839887A987D8017E
:1013D0001C968D919C91FC0124813581233031052F
:1013E000B8F4B12C8B2D29960FB6F894DEBF0FBE42
:1013F000CDBFDF91CF911F910F91FF90EF90DF90C4
:10140000CF90BF90AF907F906F905F904F90089576
:10141000208131E030934F032093710310925003E9
:101420001092720343E050E0BE01695F7F4F0E945B
:101430006B078823B1F2C8010E94A50987FF07C086
:101440006AE070E080E090E00E945B04F4CF46E048
:1014500050E0BE016F5F7F4FF801848595850E9443
:101460003F09B82E882309F4BCCF6A817B81762797
:1014700067277627CB01B0E0A0E09C01AD0184E0B6
:10148000220F331F441F551F8A95D1F7AC808A2D38
:1014900090E064E0959587956A95E1F7092E000C38
:1014A000AA0BBB0BBC01CD01622B732B842B952B9C
:1014B0000E949F1C20E030E048EC52E40E94001D96
:1014C00020E030E040E855E30E94001DD80114966A
:1014D0006D937D938D939C9317976A2D6F7070E039
:1014E00090E080E0982F872F762F66272D81622B42
:1014F000982F872F762F66272E81622B0E949F1CA4
:1015000020E030E048E453E40E94001D20E030E099
:1015100040E855E30E94001D20E030E048E452E43A
:101520000E94FD1DF8016083718382839383C1143F
:10153000D10481F1F601349680E2DF011D928A9593
:10154000E9F784E290E0A0E0B0E0F60180839183C7
:10155000A283B383D8011A968D919C91B0E0A0E04C
:1015600084839583A683B7838DE090E0A0E0B0E00C
:1015700080879187A287B387408A518A628A738A5B
:10158000F80180819181A281B381F601848B958BD2
:10159000A68BB78BE114F10409F424CFF70134963C
:1015A00080E2DF011D928A95E9F784E290E0A0E0F5
:1015B000B0E0F70180839183A283B383D8011896AA
:1015C0008D919C91B0E0A0E084839583A683B7833E
:1015D0008DE090E0A0E0B0E080879187A287B3879C
:1015E000408A518A628A738AF80184819581A68132
:1015F000B781F701848B958BA68BB78BF3CEAB01AC
:1016000070E060E0FC01848195810E94C10981E065
:10161000089550E040E0FC01848195810E94C10959
:1016200081E00895CF93DF93E0E7F0E080818D7F44
:101630008083A1ECB3E086E4ED0119928A95E9F785
:101640001092BF031092CE011092CF011092D901D7
:10165000808182608083DF91CF910895FC010190A9
:101660000020E9F73197AF01481B590BBC0187E017
:1016700094E00C94C1010F931F93CF93DF93CDB7E8
:10168000DEB72C970FB6F894DEBF0FBECDBF9F9389
:101690008F9386E990E09F938F931F928CE08F93B6
:1016A0008E010F5F1F4F1F930F930E94F119C80106
:1016B0000E942E0B0FB6F894DEBF0FBECDBF2C9646
:1016C0000FB6F894DEBF0FBECDBFDF91CF911F9153
:1016D0000F9108950F931F93CF93DF938C01EB012C
:1016E00088E2FB0111928A95E9F74BE050E06AE449
:1016F00071E0CE010E9435221B8681E090E0A0E0DF
:10170000B0E08C879D87AE87BF87F8018281938187
:10171000092E000CAA0BBB0B888B998BAA8BBB8B59
:101720008DE090E0A0E0B0E08C8B9D8BAE8BBF8B0A
:101730001CA21DA21EA21FA280E090E0A0E2B2ECBB
:101740008C8F9D8FAE8FBF8F80E090E0AAEAB2E4CD
:10175000888F998FAA8FBB8F8AE999E9A9E9BEE39F
:1017600088A399A3AAA3BBA3DF91CF911F910F9147
:1017700008950F931F93CF93DF938C01EB0188E2C1
:10178000FB0111928A95E9F74BE050E062E571E0C8
:10179000CE010E9435221B8681E090E0A0E0B0E0FF
:1017A0008C879D87AE87BF87F80182819381092E40
:1017B000000CAA0BBB0B888B998BAA8BBB8B8CE084
:1017C00090E0A0E0B0E08C8B9D8BAE8BBF8B1CA219
:1017D0001DA21EA21FA21C8E1D8E1E8E1F8E80E0BB
:1017E00090E0A8ECB2E4888F998FAA8FBB8F80E03D
:1017F00090E0A0E0B0E488A399A3AAA3BBA3DF91E3
:10180000CF911F910F91089585ED8093BC00809139
:10181000BB039091BC03A091BD03B091BE0307969A
:10182000A11DB11D23E0B695A795979587952A959B
:10183000D1F72091BC0024FD03C01092B903089594
:101840004091BB035091BC036091BD037091BE03F6
:10185000452B462B472B69F30097A105B10541F0B5
:101860002AE22A95F1F700C00197A109B109E1CF59
:101870008091BA030C9482058F929F92AF92BF928F
:10188000CF92DF92EF92FF920F931F93CF93DF934C
:1018900000D000D000D0CDB7DEB7142F26E0629F75
:1018A000800D911D1124BC0146E050E0CE0101964F
:1018B0000E94B419E12FF0E04F0183E095948794E2
:1018C0008A95E1F7412F4770898195E0989D9001B5
:1018D000999D300D11242F533C4FDE0112967E014D
:1018E00057E0E50EF11CBD01042F10E0F9019191C4
:1018F0009F01FB01A190BF016901F1E0CF1AD1085E
:10190000B12C042E02C0B594A7940A94E2F79A2948
:10191000F60190836E157F0549F7080F111D0730FA
:1019200011050CF1E1E0E80D25E0E29FF001112442
:10193000EF53FC4F0730110551F158E0541B7F0164
:10194000F70141917F019D918F0101501109292FCC
:10195000052E01C0220F0A94EAF7242BF8012083F8
:101960006A177B0769F78F5F26960FB6F894DEBF7C
:101970000FBECDBFDF91CF911F910F91FF90EF90E0
:10198000DF90CF90BF90AF909F908F90089590E0A0
:101990002191DF0111972F772C939F5F9530C1F72D
:1019A000E2CFCF92DF92EF92FF920F931F93CF93EC
:1019B000DF93CDB7DEB764970FB6F894DEBF0FBEE6
:1019C000CDBF9E012F5F3F4F6901DC01F90100E0AF
:1019D0002AE10617C1F00431B1F09D918FE9890F1A
:1019E0008A3120F480830F5F3196F3CF8FEB890F1C
:1019F0008A31C0F380EE890F8A3118F496509083B3
:101A0000F2CF2083F0CF809170008D7F80937000A3
:101A1000E1ECF3E086E4DF011D928A95E9F77601B7
:101A200010E08E2D8C19801750F4F70161917F0121
:101A3000412F81E291E00E943C0C180FF2CF80917F
:101A400070008260809370001930F8F01850109385
:101A5000C003809170008D7F8093700081E080933F
:101A6000BF038091700082608093700064960FB60F
:101A7000F894DEBF0FBECDBFDF91CF911F910F91C4
:101A8000FF90EF90DF90CF9008951092C003809167
:101A900070008D7F809370001092BF03E2CF1F9281
:101AA0000F920FB60F9211242F933F934F935F9392
:101AB0006F937F938F939F93AF93BF93EF93FF9316
:101AC00087E094E00E943F02FF91EF91BF91AF91B8
:101AD0009F918F917F916F915F914F913F912F9146
:101AE0000F900FBE0F901F9018951F920F920FB678
:101AF0000F9211242F938F939F93EF93FF93E09175
:101B00001704F09118048081E0911D04F0911E04E7
:101B100082FD1BC09081809120048F5F8F73209184
:101B20002104821741F0E0912004F0E0E95FFB4FCF
:101B3000958F80932004FF91EF919F918F912F912A
:101B40000F900FBE0F901F9018958081F4CF1F92B9
:101B50000F920FB60F9211242F933F938F939F9361
:101B6000AF93BF938091C6019091C701A091C80126
:101B7000B091C9013091C50123E0230F2D3758F5ED
:101B80000196A11DB11D2093C5018093C6019093BC
:101B9000C701A093C801B093C9018091CA01909177
:101BA000CB01A091CC01B091CD010196A11DB11D39
:101BB0008093CA019093CB01A093CC01B093CD0147
:101BC000BF91AF919F918F913F912F910F900FBE39
:101BD0000F901F90189526E8230F0296A11DB11DA6
:101BE000D2CF1F920F920FB60F9211242F933F93D3
:101BF0004F935F936F937F938F939F93AF93BF9315
:101C0000EF93FF938091B900887F803609F44AC032
:101C1000F0F5883209F4A7C018F5803109F49BC0AB
:101C2000B8F4882309F4F9C0883009F494C0FF910E
:101C3000EF91BF91AF919F918F917F916F915F9144
:101C40004F913F912F910F900FBE0F901F901895BD
:101C5000883109F488C0803251F78093970314C00B
:101C6000803409F49DC040F48033B9F38833F9F629
:101C70008093970385ECB0C0803509F485C0883522
:101C800009F496C0883499F60E94040CD0CF8839A4
:101C900009F48CC038F5883729F050F4883611F0F3
:101CA000803729F683E08093B9031092C40157C0AE
:101CB000883809F47BC0803919F0803809F0B7CF33
:101CC0008091C401803208F071C0E091C40181E0CC
:101CD0008E0F8093C4018091BB00F0E0EC55FE4F65
:101CE00080833DC0803B39F0E0F4803A09F479C04C
:101CF000883A09F09CCF84E08093B9031092A30145
:101D00001092A201E091D201F091D3010995809146
:101D1000A20181110FC081E08093A2011092820183
:101D200009C0803C09F4A6CF883C09F4A3CF883BC6
:101D300009F07DCFE091A30181E08E0F8093A30194
:101D4000F0E0EE57FE4F80818093BB009091A3019D
:101D50008091A20129C0809194038093BB0085ECFF
:101D60008093BC0064CF909196038091950398175F
:101D700058F5E091960381E08E0F80939603F0E092
:101D8000ED58FC4F8081E9CFE091960381E08E0F02
:101D9000809396038091BB00F0E0ED58FC4F808368
:101DA00090919603809195039817C8F285E8D8CF53
:101DB000E091960381E08E0F809396038091BB00A3
:101DC000F0E0ED58FC4F80838091980381115CCF47
:101DD00081E08093930384EA8093BC001092B9035E
:101DE00026CF85EC8093BC001092B9038091C4018A
:101DF000803230F4E091C401F0E0EC55FE4F1082E7
:101E00006091C40170E0E091D401F091D50184EAC1
:101E100091E009951092C4010ACF1092970334CF34
:101E20001F920F920FB60F9211242F933F934F934F
:101E30005F936F937F938F939F93AF93BF93CF9352
:101E4000DF93EF93FF9385B1807E85B98BB1837E5D
:101E50008BB980916701893108F075C08091670165
:101E60008F5F8093670180916701893069F4809169
:101E7000CE01823009F4AAC008F068C0882309F4B2
:101E80007BC0813009F48BC080916701883008F0F5
:101E900047C08091CF0190E023E0959587952A95E2
:101EA000E1F74091CF01477009F0BEC025E0289FBF
:101EB000F001299FF00D1124EF53FC4FA2E6B1E091
:101EC00087E691E021912D938A179B07D9F72091FE
:101ED00067018BB194E0299F90011124822B8BB96B
:101EE0009091670181E001C0880F9A95EAF7E2E6D8
:101EF000F1E030E020E090E061E070E041914823C3
:101F000039F0AB01022E01C0440F0A94EAF7942B7A
:101F10002F5F3F4F2530310589F785B1892B85B972
:101F2000FF91EF91DF91CF91BF91AF919F918F91F1
:101F30007F916F915F914F913F912F910F900FBEC5
:101F40000F901F901895109267018DCF833009F480
:101F50005FC0843009F098CF8091D0019091D10179
:101F600001969093D1018093D0018091D0019091FE
:101F7000D1010897D8F588CF8091BF03882309F451
:101F800083CF1092CF011092D1011092D001109204
:101F9000BF031092D90181E08093CE0175CF80916B
:101FA000D0019091D10101969093D1018093D001FD
:101FB0008091D0019091D1018436910508F464CFCD
:101FC0001092D1011092D00182E0E6CF8091D00131
:101FD0009091D10101969093D1018093D00180918D
:101FE000D0019091D101489708F44ECF1092D101C1
:101FF0001092D0018091CF018F5F8093CF0190919B
:10200000CF018091C003981708F43ECF83E0C4CF7E
:1020100081E08093D9011092CF011092D1011092EA
:10202000D0011092CE0130CF58E0541B25E0289FFC
:10203000F001299FF00D1124EF01CF53DC4FEA533B
:10204000FC4FA2E6B1E089912191042E01C0880FD6
:102050000A94EAF730E0052E02C0359527950A94D8
:10206000E2F7822B8D9381E0A736B80761F72FCF77
:1020700010920A041092090488EE93E0A0E0B0E008
:1020800080930B0490930C04A0930D04B0930E0462
:102090002AE231E0309308042093070425EC30E075
:1020A000309314042093130424EC30E0309316048E
:1020B0002093150420EC30E030931804209317048B
:1020C00021EC30E030931A042093190422EC30E024
:1020D00030931C0420931B0426EC30E030931E0444
:1020E00020931D04109220041092210410922204C7
:1020F000109223041092A7041092A6048093A804BF
:102100009093A904A093AA04B093AB048CE391E04C
:102110009093A5048093A40410920E0510921505C7
:1021200010921C0510921D0510921E0510921F059D
:1021300081E080931B05809318051092190592E0A9
:1021400090931A0580930D058CE090E09093120512
:10215000809311050E9431209093170580931605F6
:10216000009709F4D9C02CE0FC0111922A95E9F7F7
:1021700084E090E09093100580930F0585E090E057
:10218000909314058093130580910E05882341F0E8
:1021900061E085E00E941A0360E085E00E94CE02C3
:1021A000ECE7F2E0E491F0E0EE0FFF1FE359FD4FA2
:1021B000859194919093210580932005EEE5F2E0BE
:1021C000E491E09322051092080510920705109201
:1021D0000A051092090510920C0510920B05109239
:1021E000F8041092F9041092EC041092ED0410928D
:1021F000EE041092EF041092F0041092F104109289
:10220000F2041092F3041092F4041092F504109268
:10221000F6041092F7048AE999E9A9E9BFE38093EB
:10222000E0049093E104A093E204B093E30480936C
:10223000E4049093E504A093E604B093E7044DEC26
:102240005CEC6CE47DE34093E8045093E904609314
:10225000EA047093EB041092D4041092D504109207
:10226000D6041092D7041092D8041092D904109278
:10227000DA041092DB041092DC041092DD04109258
:10228000DE041092DF048093C8049093C904A093E5
:10229000CA04B093CB048093CC049093CD04A09354
:1022A000CE04B093CF044093D0045093D1046093F4
:1022B000D2047093D3041092BC041092BD04109207
:1022C000BE041092BF041092C0041092C104109278
:1022D000C2041092C3041092C4041092C504109258
:1022E000C6041092C7048093B0049093B104A093E5
:1022F000B204B093B3048093B4049093B504A09354
:10230000B604B093B7044093B8045093B9046093F3
:10231000BA047093BB04089510921205109211052F
:102320001092100510920F0529CFCF93DF93CDB7F0
:10233000DEB7CB56D1090FB6F894DEBF0FBECDBFC6
:10234000789484B5826084BD84B5816084BD85B590
:10235000826085BD85B5816085BD80916E0081609C
:1023600080936E0010928100809181008260809342
:102370008100809181008160809381008091800044
:102380008160809380008091B10084608093B1006F
:102390008091B00081608093B00080917A00846069
:1023A00080937A0080917A00826080937A00809195
:1023B0007A00816080937A0080917A0080688093AF
:1023C0007A001092C10060911505633329F12091C4
:1023D0001605309117056150C9F070E08FEF92E358
:1023E0000E941720F9014091110550911205CF016B
:1023F000821B930B8417950760F44081469FC001B0
:10240000479F900D112490833196EDCF70E060E0EE
:10241000E9CF83E38093150580911305909114050E
:1024200097FD23C161E00E941A0360E080911305CB
:102430000E94CE0281E080930E0520E040E06FEF25
:1024400090E080E00E94790120E04FEF60E081E0C1
:1024500090E00E9479012FEF40E060E082E090E0A0
:102460000E9479012FEF40E06FEF83E090E00E943F
:1024700079010E9488038AB18C618AB984B18F6125
:1024800084B9F89412E01093B00003E00093B10017
:1024900086EA8093B3001092B20010937000789493
:1024A0001092D1011092D0011092CF011092CE0162
:1024B0001092BF031092D9010E94120BE0911704F1
:1024C000F09118041083E0911304F0911404108229
:1024D000E0911504F091160480E1808310921F04AE
:1024E000E0911B04F0911C0496E09083E0911904A4
:1024F000F0911A04808180618083E0911904F09149
:102500001A04808188608083E0911904F0911A0494
:10251000808180688083E0911904F0911A048081A1
:102520008F7D80831F920F931F920F932AE531E0D6
:102530003F932F931F929F939E012F5F3F4F19014F
:102540003F932F930E944422F10101900020E9F76C
:102550003197BF0162197309C1010E94D10C6CED62
:1025600075E080E090E00E945B040E94120B64E141
:1025700070E080E090E00E945B04809107059091FC
:1025800008050FB6F894DEBF0FBECDBF009711F05F
:102590000E94CD2086E090E00E9431208C0188E3EB
:1025A000D8018C9384EA94E012969C938E931197B1
:1025B00013961C92139780E290E015969C938E934D
:1025C0001497109308050093070510924E0310927C
:1025D0004D0310925003109272030E9464058FEB1A
:1025E00091E09093D3018093D20180EC91E090939D
:1025F000D5018093D401FF24F394F801F382C8013C
:102600000E948607882309F4A6C08AEB89838091FB
:10261000070590910805DC0114962D913C911597C2
:10262000232B09F498C02C91F0924F03209371034F
:10263000109250031092720341E050E0B1010E94E9
:102640006B07882309F487C064E170E080E090E0C4
:102650000E945B048BEF94E00E94A50987FF08C0ED
:102660006AE070E080E090E0F3CF10920E05E5CED6
:1026700081EE898388E08A831B828091070590918F
:102680000805FC01248135812330310578F0208153
:1026900031E030934F032093710310925003109256
:1026A000720343E050E0B1010E946B078BEF94E0AE
:1026B0000E94A50987FF07C06AE070E080E090E013
:1026C0000E945B04F3CF8BEF94E00E94A50983FF87
:1026D00042C080910B0590910C05009739F0DC0108
:1026E000ED91FC910280F381E02D0995809109051F
:1026F00090910A05009739F0DC01ED91FC91028080
:10270000F381E02D099586E090E00E943120FC01E4
:102710008CE191E09183808380E290E193838283D6
:102720000BEF14E015830483F0930C05E0930B0585
:1027300086E090E00E943120FC018EE091E09183E0
:10274000808381E290E19383828315830483F093F5
:102750000A05E09309058DE00E94F0088A3539F5F5
:102760001092F80460E48BE20E943E086AE070E098
:1027700080E090E00E945B040E94250960E08EE00A
:102780000E943E080E9425090E94250960E288E314
:102790000E9415090E9425090E94250981E0809365
:1027A000FA0460E082E00E9415090E94250961E0B8
:1027B00081E00E94150981E08093F80440911105A1
:1027C0005091120570E060E0809116059091170518
:1027D0000E941C220E9488034FEF51E063E272E0E6
:1027E0008BEF94E00E94C1090E948D046093470220
:1027F000709348028093490290934A020E948D048C
:102800006093FB017093FC018093FD019093FE01A6
:102810000E948D046093DA017093DB018093DC01E8
:102820009093DD0188E19FE00FB6F894A89580931E
:1028300060000FBE90936000FE013796A396FFAF35
:10284000EEAFA39787E094E00E941F02A5969FAF8A
:102850008EAFA597892B09F45BC087E094E00E94B6
:10286000FD01833279F4F1E0F093D801E091D701D2
:10287000F093D60120E4E29FF0011124E55BFD4FC7
:102880008083E0CF9091D8019923E1F29091D60115
:102890008A3061F5E091D70130E4E39FF001112423
:1028A000E55BFD4FE90FF11D108280914C038430F0
:1028B00080F48091D70190E00196837099278093EE
:1028C000D70180914C038F5F80934C031092D80105
:1028D000B9CF8091D70190E00196837099278093BA
:1028E000D7018091D70180934B03F0CF9F3308F03D
:1028F000A9CFE091D70121E0290F2093D60140E430
:10290000E49FF0011124E55BFD4FE90FF11DB8CF05
:10291000A89580914C03882309F47CC000914B0357
:1029200050E4059F80011124055B1D4F80914B03EE
:1029300090E001968370992780934B0380914C031C
:10294000815080934C03D8018C91833209F062C08E
:102950006AE270E0C8010E942322FC01892BA9F1E0
:10296000818190ED980F9A3050F09FEB980F963040
:10297000C0F09FE9980F9630B0F499EA980F9295BD
:10298000907F228180ED820F8A3078F4982BD801D5
:10299000119680E02D912223A9F02A3299F0822706
:1029A000F9CF99ECEBCF90E0EACF8FEB820F863036
:1029B00018F42753922BEBCF8FE9820F863038F72C
:1029C0002755F8CF891326C01082F80181818053E2
:1029D000F280F0EDFF0E2AE0829FF00C11240D5FD3
:1029E0001F4F3FE13F1508F48FC24EE1F41608F087
:1029F00002C45DE0F51609F427C35F1508F413C29D
:102A00006BE0F61609F4ECC26F1508F4EEC2F2168C
:102A100009F4DDC20E948D042B013C018091470224
:102A200090914802A0914902B0914A02A3019201FB
:102A3000281B390B4A0B5B0BDA01C901853F91401A
:102A4000A105B10580F04FEF51E063E272E08BEF3A
:102A500094E00E94C109409247025092480260925D
:102A6000490270924A028091FB019091FC01A09171
:102A7000FD01B091FE01A3019201281B390B4A0B05
:102A80005B0BDA01C90185369105A105B10508F492
:102A900010C18091F804882309F465C031E03093B7
:102AA0004F038DE1809371031092500310927203D3
:102AB00061E084EA94E00E940F0880E00E947B06B7
:102AC0008091FA0466E070E0811102C063E070E07A
:102AD0008DE190E00E94E808710184EA94E00E9490
:102AE000CF07D82ED7018C9311969C93B2E0EB0EB2
:102AF000F11C8091FA04870102501109882309F41E
:102B0000AFC384EA94E00E94CF07AB96DFAEAB97E9
:102B1000AA961FAEAA97AB96EEADFFADAB978E2BE4
:102B20009F2B26E0959587952A95E1F7D8018D93FF
:102B30009C9389819A819093FA018093F9018B810A
:102B40009C819093F8018093F7018D819E819093F1
:102B5000F6018093F501A3962EAD3FADA3972E15F8
:102B60003F0509F0BACF6091F9017091FA01072E83
:102B7000000C880B990B0E94A11CAB01BC0180EEDC
:102B800094E00E9499046B017C01C092F101D09203
:102B9000F201E092F301F092F4016091F70170917B
:102BA000F801072E000C880B990B0E94A11CAB01A9
:102BB000BC0188EC94E00E9499044B015C01809276
:102BC000ED019092EE01A092EF01B092F0016091C0
:102BD000F5017091F601072E000C880B990B0E94ED
:102BE000A11CAB01BC0180EB94E00E9499049B0105
:102BF000AC010E94001DA9966CAF7DAF8EAF9FAF58
:102C0000A997A5019401C501B4010E94001DA996D0
:102C10002CAD3DAD4EAD5FADA9970E94FE1D0E944B
:102C2000BE1F9B01AC01C701B6010E947D1E2EEBA9
:102C30003EE245E652E40E94001D6093E901709374
:102C4000EA018093EB019093EC01A7019601C70183
:102C5000B6010E94001DA9962CAD3DAD4EAD5FADF5
:102C6000A9970E94FE1D0E94BE1F9B01AC01C501D9
:102C7000B4010E947D1E2EEB3EE245E652E40E9426
:102C8000001D6093E5017093E6018093E701909346
:102C9000E8018091E4018F5F843008F0E8C28093FE
:102CA000E4014092FB015092FC016092FD017092A0
:102CB000FE018091DA019091DB01A091DC01B091DD
:102CC000DD01A3019201281B390B4A0B5B0BDA01D2
:102CD000C901CD97A105B10508F498C00E945B0811
:102CE000F82EE92E3091DE01A4963FAFA4974091D3
:102CF000DF01A6964FAFA6976091E5017091E601BE
:102D00008091E7019091E8010E944E1F862EAC96BB
:102D10007FAFAC976091E9017091EA018091EB017E
:102D20009091EC010E944E1F062F972E8091D901A1
:102D300011E3811101C010E381E10E944B03B82E21
:102D4000A92E80E10E944B03D82EC92E8FE00E944D
:102D50004B03A6965FADA6975F93A4966FADA4971D
:102D60006F93AC96AFADAC97AF938F929F920F934A
:102D70001F921F93AF92BF92CF92DF929F938F9338
:102D8000EF92FF9220E030E048EC52E4609137028D
:102D9000709138028091390290913A020E94001D90
:102DA0000E944E1F7F936F9320E030E048EC52E486
:102DB0006091130270911402809115029091160295
:102DC0000E94001D0E944E1F7F936F931F9283E00D
:102DD0008F931F928F93EAEFF0E0FF93EF931F9290
:102DE00080E68F933F922F920E94F119C1010E94B9
:102DF0002E0B4092DA015092DB016092DC0170925E
:102E0000DD010FB6F894DEBF0FBECDBF80E090E0CD
:102E1000892B09F417CD0E942B02882309F412CDC7
:102E20000E9400000FCD8FE0F81609F480C1F8165B
:102E300008F43AC18CEE8F0D823008F0EBCD60E6DD
:102E400071E0C8010E94BD19009709F4E3CD0E940A
:102E50009619D82E60E671E090E080E00E94BD19DE
:102E6000009709F4D7CD0E949619182F60E671E0FB
:102E700090E080E00E94BD19009709F4CBCD0E943C
:102E80009619082F60E671E090E080E00E94BD197D
:102E9000009709F4BFCD0E949619E82EE4E1FE12D6
:102EA0000CC0409111055091120570E060E08091D6
:102EB0001605909117050E941C22D3FE07C02E2DE7
:102EC000402F612F90E080E00E947901D2FE07C080
:102ED0002E2D402F612F81E090E00E947901D1FEDC
:102EE00007C02E2D402F612F82E090E00E947901D3
:102EF000D0FE07C02E2D402F612F83E090E00E946E
:102F000079010E94880386CD93E2F91609F497C1EE
:102F10009F1560F0A1E2FA1609F48AC1AF1508F016
:102F200084C18091F7019091F80186C1B9E2FB1646
:102F300009F48AC1BF15A8F0E8E2FE126BCD20E0CB
:102F400030E048EC52E460911302709114028091D9
:102F50001502909116020E94001D0E944E1FCB0187
:102F60006BC1FAE2FF1609F478C123E6F21252CDE2
:102F700083E090E00E94BE1DF82E82E090E00E9467
:102F8000BE1D082F81E090E00E94BE1D182F90E02A
:102F900080E00E94BE1D1F92FF921F920F931F920E
:102FA0001F931F928F934BEB50E05F934F931F92B1
:102FB0008EE08F933F922F920E94F119C1010E94DF
:102FC0002E0B0FB6F894DEBF0FBECDBF23CD0E94EF
:102FD000120B40E060E080ED90E00E943C0C1ACDC6
:102FE0000E94120B40E061E0F6CF60E671E0C8019C
:102FF0000E94BD19009709F40DCD0E9496198C010D
:1030000060E671E090E080E00E94BD19009709F44D
:1030100001CD0E9496190830110508F0FBCC8530CF
:10302000910508F0F7CCFC01EF53FC4F87E090E0EE
:10303000801B910B21E030E001C0220F8A95EAF756
:103040008081822B8083E6CC60E671E0C8010E941B
:10305000BD19009709F4DECC0E9496198C0160E638
:1030600071E090E080E00E94BD19009709F4D2CC95
:103070000E9496190830110508F0CCCC85309105D6
:1030800008F0C8CCFC01EF53FC4F87E090E0801BB8
:10309000910B21E030E001C0220F8A95EAF72095DC
:1030A000808128232083B6CC1A8219821C821B823D
:1030B0001E821D820115110549F1F80101900020C1
:1030C000E9F731977F01E01AF10AB7016F5F7F4F8F
:1030D00090E080E00E945621009771F09A838983E6
:1030E000FC82EB822D813E81232BD9F0FE82ED8282
:1030F000B8010E942E220AC089819A810097A1F40A
:103100001A8219821E821D821C821B82C1010E94AA
:10311000710889819A81009709F47CCC0E94CD20A6
:1031200079CCDC011C92E2CF0E94CD20E9CF60E691
:1031300071E0C8010E94BD19009709F46BCC0E9490
:1031400096198C0160E671E090E080E00E94BD1964
:10315000009709F45FCC0E9496197C0160E671E04B
:1031600090E080E00E94BD19009709F453CC0E94C2
:1031700096196C0160E671E090E080E00E94BD1954
:10318000009709F447CC0E9496198E199F09880F61
:10319000991F9601201B310BAC01421B530B220FD0
:1031A000331FC016D1060CF435CC08301105B0F42D
:1031B000B5E0EB16F10490F4F701EF53FC4F67E034
:1031C00070E0601B710BA1E0B0E002C0AA0FBB1F52
:1031D0006A95E2F7BD017081672B608314161506AE
:1031E0002CF4BFEFEB1AFB0A421B530B480F591F7D
:1031F0000F5F1F4FD6CFF80101900020E9F73197FC
:10320000E01BF10BEE33F10528F4E00FF11F20E293
:1032100020831182F80101900020E9F76E2F601BD6
:103220006250C8010E94D10CF5CB0E94120BF2CB68
:103230008091F9019091FA010E943B0BEBCB8091B8
:10324000F5019091F601F8CF609137027091380244
:103250008091390290913A0280CE0E945B08ECCFB7
:103260008D2DDD0C990BF8019183808362CC109237
:10327000E4012091E0013091E1014091E20150919F
:10328000E301C701B6010E94FD1DC092E001D0928A
:10329000E101E092E201F092E3016B017C01E8942C
:1032A000F7F820E030E048E452E4C701B6010E949C
:1032B000AB1F181644F4C701B6010E944E1FA59615
:1032C0007FAF6EAFA597A5964EAD5FADA597509316
:1032D000DF014093DE01E5CC8091090590910A055C
:1032E000009739F0DC01ED91FC910280F381E02D33
:1032F000099580910B0590910C05009739F0DC0140
:10330000ED91FC910280F381E02D099580911605E5
:10331000909117050E94CD2080911305909114057E
:1033200097FD03C060E00C941A030895FC01882700
:103330009927E89421912032E9F3293010F02E30BA
:10334000C8F32B3241F02D3239F4689404C00E9446
:10335000E919820F911D219120532A30C0F31EF4E8
:10336000909581959F4F0895FB01DC0102C0059067
:103370000D9241505040D8F7089543E255E00E9425
:10338000C2190895FA01A191B081009719F410971C
:10339000E1F0CD01DC01CD010D90002011F4C00160
:1033A00013C0FB012191222319F02015D9F7F3CF87
:1033B000FB012191201519F41E92119606C02223BB
:1033C000C1F70D900020A1F7D001FA01A193B083BD
:1033D00008957AE0979F902D879F802D910D11245D
:1033E0000895AEE0B0E0E7EFF9E10C94D41D0D894B
:1033F0001E898F89988D2EE02C831A83098397FF6D
:1034000002C080E090E801979E838D83AE01455E07
:103410005F4F698D7A8DCE0101960E94211A4D81F0
:103420005E8157FD0AC02F813885421753070CF47F
:103430009A01020F131FF80110822E96E4E00C94FB
:10344000F01DABE0B0E0E7E2FAE10C94C61D7C01B0
:103450003B018A01FC0117821682838181FFC8C16A
:10346000CE0101965C01F7019381F30193FD8591F3
:1034700093FF81913F01882309F453C1853239F4C8
:1034800093FD859193FF81913F01853229F4B70126
:1034900090E00E94111CE7CF912C212C312CFFE1F0
:1034A000F31538F08B3211F190F4803209F1833248
:1034B00029F137FC3CC020ED280F2A3050F536FEAC
:1034C00020C08AE0989E200D1124922E06C08D32D5
:1034D00091F0803371F7689430F8F30193FD859192
:1034E00093FF81913F018111DACF21C0689431F8B7
:1034F000689432F8F2CF689433F8EFCF689434F8D8
:10350000ECCFEAE02E9E200D1124222E689435F88F
:10351000E4CF8E3229F436FC04C1689436F8DDCF4E
:103520008C3619F4689437F8D8CF8836B1F2982FD2
:103530009F7D95549330E0F08336A1F18337C1F13C
:10354000833509F063C02801F2E04F0E511CF801E9
:10355000C080D180692D70E036FC02C06FEF7FEF34
:10356000C6010E94FB1B4C01689437F882010AC017
:103570000C5F1F4FFFE3F98388248394912C65012E
:10358000E89437F833FE2DC0522C8114910471F564
:10359000552009F468CFB70180E290E00E94111C29
:1035A0005A94F6CFF801808189830E5F1F4FE4CFD4
:1035B0002801F2E04F0E511CF801C080D180692D26
:1035C00070E036FC02C06FEF7FEFC6010E94061C60
:1035D0004C018201D5CFB70180E290E00E94111C1E
:1035E0002A942814190409F0B0F7CECFF60137FC5D
:1035F000859137FE81916F01B70190E00E94111C07
:1036000051105A94F1E08F1A9108BFCF843619F007
:10361000893609F077C0F80137FE6BC0608171818F
:10362000828193810C5F1F4FF32DFF763F2E97FF12
:1036300009C090958095709561957F4F8F4F9F4FF2
:10364000689437F82AE030E0A5010E94411CC82E9A
:10365000CA188C2C432C36FE0CC0E89440F8C914D0
:1036600040F434FE05C032FC03C0F32DFE7E4F2E25
:10367000892C44FE95C0FE01EC0DF11D8081803344
:1036800009F087C0242D297E422E842D8870582E63
:1036900043FC95C040FE8FC09C2C821418F42C0C67
:1036A000922C981844FE91C0B70180E390E00E94EC
:1036B000111C42FE09C088E790E041FE02C088E587
:1036C00090E0B7010E94111CC91408F48AC0CA9482
:1036D000D12C9FEFC91AD90ACA0CDB1CF6018291C2
:1036E0006F01B70190E00E94111CAC14BD04B1F74A
:1036F0004FCF60817181072E000C880B990B0E5FF4
:103700001F4F92CFD32CE894D4F82AE030E08537CD
:1037100039F1232D297FD22E8F3601F148F48835D7
:10372000A9F0F701868197812B96E2E10C94E21DC6
:10373000803749F08837A9F7D4FE02C06894D2F8E0
:1037400020E130E00DC06894D4F8F6CF34FE03C019
:10375000822F8660D82E20E132E002C028E030E0DF
:10376000F801D7FE0FC060817181828193810C5F67
:103770001F4FA5010E94411CC82ECA183D2CE89479
:1037800037F867CF6081718190E080E00E5F1F4F56
:10379000F0CF42FC02C0839478CF8394839475CF9A
:1037A000842D867809F471CFF6CFB70180E290E0DE
:1037B0000E94111C83948214C0F3512C73CF522C9D
:1037C0005818821408F46ECFF8CF842D867809F447
:1037D0007BCF8BE241FE80E247FC8DE2B70190E0B7
:1037E00071CFB70180E390E00E94111C9A946CCFD6
:1037F0008FEF9FEF99CFFC01059061507040011051
:10380000D8F7809590958E0F9F1F0895FC01615009
:10381000704001900110D8F7809590958E0F9F1FF2
:1038200008950F931F93CF93DF93182F092FEB0168
:103830008B8181FD09C01FEF0FEF812F902FDF914A
:10384000CF911F910F91089582FF14C02E813F8167
:103850008C819D81281739073CF4E881F981CF01DB
:1038600001969983888310838E819F8101969F831F
:103870008E83E3CFE885F985812F0995892BA1F304
:10388000DACFFA01AA27283051F1203181F1E894EA
:103890006F936E7F6E5F7F4F8F4F9F4FAF4FB1E043
:1038A0003ED0B4E03CD0670F781F891F9A1FA11D3E
:1038B000680F791F8A1F911DA11D6A0F711D811D3F
:1038C000911DA11D20D009F468943F912AE0269F04
:1038D00011243019305D3193DEF6CF010895462F63
:1038E0004770405D4193B3E00FD0C9F7F6CF462F44
:1038F0004F70405D4A3318F0495D31FD40524193AD
:1039000002D0A9F7EACFB4E0A69597958795779569
:103910006795BA95C9F700976105710508959B01F0
:10392000AC010A2E06945795479537952795BA9579
:10393000C9F7620F731F841F951FA01D0895E89497
:1039400009C097FB3EF490958095709561957F4FE7
:103950008F4F9F4F9923A9F0F92F96E9BB27939595
:10396000F695879577956795B795F111F8CFFAF4A5
:10397000BB0F11F460FF1BC06F5F7F4F8F4F9F4FD6
:1039800016C0882311F096E911C0772321F09EE834
:10399000872F762F05C0662371F096E8862F70E09A
:1039A00060E02AF09A95660F771F881FDAF7880F74
:1039B0009695879597F90895990F0008550FAA0BCA
:1039C000E0E8FEEF16161706E807F907C0F0121632
:1039D0001306E407F50798F0621B730B840B950B35
:1039E00039F40A2661F0232B242B252B21F408958A
:1039F0000A2609F4A140A6958FEF811D811D089527
:103A00000E94131D0C94841D0E94761D38F00E94A4
:103A10007D1D20F0952311F00C946D1D0C94731DE9
:103A200011240C94B81D0E94951D70F3959FC1F34D
:103A3000950F50E0551F629FF001729FBB27F00D5C
:103A4000B11D639FAA27F00DB11DAA1F649F6627B1
:103A5000B00DA11D661F829F2227B00DA11D621F00
:103A6000739FB00DA11D621F839FA00D611D221FBA
:103A7000749F3327A00D611D231F849F600D211D9E
:103A8000822F762F6A2F11249F5750409AF0F1F021
:103A900088234AF0EE0FFF1FBB1F661F771F881F8A
:103AA00091505040A9F79E3F510580F00C946D1D38
:103AB0000C94B81D5F3FE4F3983ED4F38695779558
:103AC0006795B795F795E7959F5FC1F7FE2B880F30
:103AD000911D9695879597F9089597F99F6780E8C6
:103AE00070E060E008959FEF80EC089500240A9450
:103AF0001616170618060906089500240A941216C9
:103B00001306140605060895092E0394000C11F4FB
:103B1000882352F0BB0F40F4BF2B11F460FF04C0A8
:103B20006F5F7F4F8F4F9F4F089557FD9058440F01
:103B3000551F59F05F3F71F04795880F97FB991F0C
:103B400061F09F3F79F087950895121613061406C9
:103B5000551FF2CF4695F1DF08C016161706180656
:103B6000991FF1CF86957105610508940895E89431
:103B7000BB2766277727CB0197F90895F999FECFE0
:103B800092BD81BDF89A992780B508952F923F92F2
:103B90004F925F926F927F928F929F92AF92BF925D
:103BA000CF92DF92EF92FF920F931F93CF93DF9309
:103BB000CDB7DEB7CA1BDB0B0FB6F894DEBF0FBE66
:103BC000CDBF09942A88398848885F846E847D84B3
:103BD0008C849B84AA84B984C884DF80EE80FD80B5
:103BE0000C811B81AA81B981CE0FD11D0FB6F8942B
:103BF000DEBF0FBECDBFED0108955058BB27AA27E9
:103C00000E94151E0C94841D0E94761D38F00E949F
:103C10007D1D20F039F49F3F19F426F40C94731D98
:103C20000EF4E095E7FB0C946D1DE92F0E94951DA5
:103C300058F3BA17620773078407950720F079F4E1
:103C4000A6F50C94B71D0EF4E0950B2EBA2FA02DFF
:103C50000B01B90190010C01CA01A0011124FF2739
:103C6000591B99F0593F50F4503E68F11A16F04034
:103C7000A22F232F342F4427585FF3CF4695379533
:103C80002795A795F0405395C9F77EF41F16BA0BF8
:103C9000620B730B840BBAF09150A1F0FF0FBB1FA6
:103CA000661F771F881FC2F70EC0BA0F621F731FEF
:103CB000841F48F4879577956795B795F7959E3F4C
:103CC00008F0B0CF9395880F08F09927EE0F9795DD
:103CD000879508950E94761D60F080E891E009F4D0
:103CE0009EEF0E947D1D28F040E851E071F45EEFE8
:103CF0000CC00C94731D0C94B71DE92FE0780E9442
:103D0000951D40F3092E052AB1F3261737074807FA
:103D1000590738F00E2E07F8E02569F0E025E06439
:103D20000AC0EF6307F8009407FADB01B9019D01AF
:103D3000DC01CA01AD01EF930E94F31E0E94841DB5
:103D40000E94AD1E5F91552339F02BED3FE049E411
:103D500050FD49EC0C94FE1D0895DF93DD27B92F2B
:103D6000BF7740E85FE31616170648075B0718F4AD
:103D7000D92F0E94B01F9F938F937F936F930E94C0
:103D8000FE1FE8E6F0E00E94841F0E94841D2F9130
:103D90003F914F915F910E94131DDD2351F0905888
:103DA000A2EA2AED3FE049EC5FE3D0785D270E946C
:103DB000151EDF910C94841D0E94F01E0C94841D2E
:103DC0000E947D1D58F00E94761D40F029F45F3F4F
:103DD00029F00C946D1D51110C94B81D0C94731D99
:103DE0000E94951D68F39923B1F3552391F3951B18
:103DF000550BBB27AA2762177307840738F09F5F0C
:103E00005F4F220F331F441FAA1FA9F335D00E2E78
:103E10003AF0E0E832D091505040E695001CCAF7E5
:103E20002BD0FE2F29D0660F771F881FBB1F2617A8
:103E300037074807AB07B0E809F0BB0B802DBF017F
:103E4000FF2793585F4F3AF09E3F510578F00C944E
:103E50006D1D0C94B81D5F3FE4F3983ED4F3869536
:103E600077956795B795F7959F5FC9F7880F911D6F
:103E70009695879597F90895E1E0660F771F881F5B
:103E8000BB1F621773078407BA0720F0621B730B0E
:103E9000840BBA0BEE1F88F7E09508950E94551F1A
:103EA0006894B1110C94B81D08950E949D1D88F06E
:103EB0009F5798F0B92F9927B751B0F0E1F0660FEE
:103EC000771F881F991F1AF0BA95C9F714C0B1302F
:103ED00091F00E94B71DB1E008950C94B71D672FB3
:103EE000782F8827B85F39F0B93FCCF3869577955E
:103EF0006795B395D9F73EF4909580957095619547
:103F00007F4F8F4F9F4F0895DF93CF931F930F9352
:103F1000FF92EF92DF927B018C01689406C0DA2E4B
:103F2000EF010E94131DFE01E894A59125913591A2
:103F300045915591A6F3EF010E94151EFE019701D0
:103F4000A801DA9469F7DF90EF90FF900F911F912D
:103F5000CF91DF9108950E94DC1C08F48FEF089543
:103F60009B01AC0160E070E080E89FE30C94DC1EF4
:103F700019F416F40C94731D0C9402200E949D1DDC
:103F8000B8F39923C9F3B6F39F57550B87FF0E94E7
:103F900010200024A0E640EA90018058569597959D
:103FA00028F4805C660F771F881F20F026173707DC
:103FB000480730F4621B730B840B202931294A2BEC
:103FC000A69517940794202531254A2758F7660FA0
:103FD000771F881F20F026173707480730F4620B39
:103FE000730B840B200D311D411DA09581F7B90184
:103FF000842F9158880F9695879508959B01AC0161
:104000000C94001D9F3F31F0915020F487957795D7
:104010006795B795880F911D9695879597F908959F
:1040200091505040660F771F881FD2F70895AA1B42
:10403000BB1B51E107C0AA1FBB1FA617B70710F093
:10404000A61BB70B881F991F5A95A9F780959095C5
:10405000BC01CD010895EE0FFF1F0590F491E02DF6
:1040600009940F931F93CF93DF938230910510F43F
:1040700082E090E0E0912705F091280530E020E013
:10408000B0E0A0E0309799F42115310509F44AC059
:10409000281B390B24303105D8F58A819B816115A5
:1040A000710589F1FB0193838283FE0111C0408178
:1040B00051810281138148175907E0F048175907C9
:1040C00099F4109761F012960C93129713961C9323
:1040D0003296CF01DF91CF911F910F9108950093F8
:1040E000270510932805F4CF2115310551F042170B
:1040F000530738F0A901DB019A01BD01DF01F80186
:10410000C1CFEF01F9CF9093280580932705CDCF3C
:10411000FE01E20FF31F81939193225031093983FD
:104120002883D7CF2091250530912605232B41F4F4
:104130002091030130910401309326052093250539
:1041400020910101309102012115310541F42DB773
:104150003EB74091050150910601241B350BE091BB
:104160002505F0912605E217F307A0F42E1B3F0B5F
:104170002817390778F0AC014E5F5F4F24173507D9
:1041800048F04E0F5F1F50932605409325058193FD
:1041900091939FCFF0E0E0E09CCFCF93DF93009727
:1041A000E9F0FC01329713821282A0912705B091A9
:1041B0002805ED0130E020E01097A1F42081318145
:1041C000820F931F20912505309126052817390766
:1041D00009F061C0F0932605E0932505DF91CF91AA
:1041E0000895EA01CE17DF07E8F54A815B819E0159
:1041F00041155105B1F7E901FB83EA8349915991D2
:10420000C40FD51FEC17FD0761F4808191810296E0
:10421000840F951FE90199838883828193819B8311
:104220008A83F0E0E0E012968D919C9113970097BD
:10423000B9F52D913C911197CD010296820F931FF4
:1042400020912505309126052817390739F6309732
:1042500051F51092280510922705B0932605A093DA
:104260002505BCCFD383C28340815181840F951F24
:10427000C817D90761F44E5F5F4F88819981480F55
:10428000591F518340838A819B81938382832115A7
:10429000310509F0B0CFF0932805E09327059ECFB4
:1042A000FD01DC01C0CF13821282D7CFB0E0A0E0C5
:1042B000ECE5F1E20C94C81D8C01009751F4CB01A0
:1042C0000E9431208C01C801CDB7DEB7E0E10C942B
:1042D000E41DFC01E60FF71F9C0122503109E21793
:1042E000F30708F49DC0D901CD91DC911197C61751
:1042F000D70798F0C530D10530F3CE010497861763
:10430000970708F3C61BD70B2297C193D1936D93E0
:104310007C93CF010E94CD20D6CF5B01AC1ABD0AA1
:104320004C018C0E9D1EA0912705B0912805512CA3
:10433000412CF12CE12C109731F5809125059091BD
:1043400026058815990509F05CC04616570608F041
:1043500058C08091010190910201009741F48DB7FE
:104360009EB74091050150910601841B950BE817FB
:10437000F90708F055C0F0932605E0932505F901EB
:1043800071836083A0CF8D919C91119712966C9050
:10439000129713967C901397A815B90559F56C01DF
:1043A00042E0C40ED11CCA14DB0420F1AC014A194E
:1043B0005B09DA011296159780F06282738251834D
:1043C0004083D9016D937C93E114F10471F0D7011E
:1043D0001396FC93EE93129776CF22968C0F9D1F27
:1043E000F90191838083F301EFCFF0932805E093E7
:1043F000270569CF4816590608F42C017D01D30121
:104400009ACFCB010E9431207C01009749F0AE0188
:10441000B8010E941322C8010E94CD20870153CF0A
:1044200010E000E050CFFB01DC0102C001900D92D2
:1044300041505040D8F70895DC0101C06D934150C0
:104440005040E0F70895FC018191861721F0882300
:10445000D9F7992708953197CF010895FB01DC0121
:1044600001900D920020E1F70895FB01DC0141501D
:10447000504048F001900D920020C9F701C01D92F4
:1044800041505040E0F70895AEE0B0E0EAE4F2E2D7
:104490000C94D41D0D891E898F89988D26E02C835C
:1044A0001A83098397FF02C080E090E801979E83FA
:1044B0008D83AE01455E5F4F698D7A8DCE01019689
:1044C0000E94211A4D815E8157FD0AC02F813885D7
:1044D000421753070CF49A01020F131FF8011082C0
:1044E0002E96E4E00C94F01D11E0C7E4D1E004C086
:1044F000FE010E942B202196C834D107C9F7F894F9
:02450000FFCFEB
:1045020001000029052000AC3300000000003B053B
:10451200BF093C05FF0A6A0B000000003B05BD090C
:104522003C05090BB90B000000006102C101EE015C
:10453200AE021F02FD011102000000000F08E20797
:104542005808BF077201CF07C00741485478305F4F
:10455200540041485478305F480025752E25750077
:024562003B001C
:00000001FF
